{
  "contractName": "Roulette",
  "abi": [
    {
      "inputs": [],
      "stateMutability": "payable",
      "type": "constructor",
      "payable": true
    },
    {
      "stateMutability": "payable",
      "type": "fallback",
      "payable": true
    },
    {
      "inputs": [],
      "name": "commitHash",
      "outputs": [
        {
          "internalType": "bytes32",
          "name": "",
          "type": "bytes32"
        }
      ],
      "stateMutability": "view",
      "type": "function",
      "constant": true
    },
    {
      "stateMutability": "payable",
      "type": "receive",
      "payable": true
    },
    {
      "inputs": [],
      "name": "depositMoney",
      "outputs": [],
      "stateMutability": "payable",
      "type": "function",
      "payable": true
    },
    {
      "inputs": [],
      "name": "getCasinoDeposit",
      "outputs": [
        {
          "internalType": "uint256",
          "name": "",
          "type": "uint256"
        }
      ],
      "stateMutability": "view",
      "type": "function",
      "constant": true
    },
    {
      "inputs": [
        {
          "internalType": "bytes32",
          "name": "_outcomeHash",
          "type": "bytes32"
        }
      ],
      "name": "getOutcomeHash",
      "outputs": [
        {
          "internalType": "bytes32",
          "name": "",
          "type": "bytes32"
        }
      ],
      "stateMutability": "nonpayable",
      "type": "function"
    },
    {
      "inputs": [
        {
          "internalType": "uint256[][]",
          "name": "_bets",
          "type": "uint256[][]"
        }
      ],
      "name": "placeBet",
      "outputs": [],
      "stateMutability": "payable",
      "type": "function",
      "payable": true
    },
    {
      "inputs": [
        {
          "internalType": "uint256",
          "name": "_winningNumber",
          "type": "uint256"
        },
        {
          "internalType": "bytes32",
          "name": "_nonce",
          "type": "bytes32"
        }
      ],
      "name": "revealWinningNumber",
      "outputs": [
        {
          "internalType": "uint256",
          "name": "",
          "type": "uint256"
        }
      ],
      "stateMutability": "payable",
      "type": "function",
      "payable": true
    },
    {
      "inputs": [],
      "name": "WinningNumber",
      "outputs": [
        {
          "internalType": "uint256",
          "name": "",
          "type": "uint256"
        }
      ],
      "stateMutability": "view",
      "type": "function",
      "constant": true
    },
    {
      "inputs": [],
      "name": "getBalance",
      "outputs": [
        {
          "internalType": "uint256",
          "name": "",
          "type": "uint256"
        }
      ],
      "stateMutability": "view",
      "type": "function",
      "constant": true
    },
    {
      "inputs": [],
      "name": "seeBets",
      "outputs": [
        {
          "components": [
            {
              "internalType": "uint256[]",
              "name": "numbers",
              "type": "uint256[]"
            },
            {
              "internalType": "uint256",
              "name": "multiplier",
              "type": "uint256"
            },
            {
              "internalType": "uint256",
              "name": "betAmount",
              "type": "uint256"
            }
          ],
          "internalType": "struct Roulette.Bet[]",
          "name": "",
          "type": "tuple[]"
        }
      ],
      "stateMutability": "view",
      "type": "function",
      "constant": true
    },
    {
      "inputs": [],
      "name": "seePlayerWinnings",
      "outputs": [
        {
          "internalType": "int256",
          "name": "",
          "type": "int256"
        }
      ],
      "stateMutability": "view",
      "type": "function",
      "constant": true
    },
    {
      "inputs": [],
      "name": "gameReset",
      "outputs": [],
      "stateMutability": "nonpayable",
      "type": "function"
    },
    {
      "inputs": [
        {
          "internalType": "uint256",
          "name": "index",
          "type": "uint256"
        }
      ],
      "name": "removeBet",
      "outputs": [],
      "stateMutability": "nonpayable",
      "type": "function"
    }
  ],
  "bytecode": "0x6080604052600060035566038d7ea4c6800060045530600560006101000a81548173ffffffffffffffffffffffffffffffffffffffff021916908373ffffffffffffffffffffffffffffffffffffffff1602179055506000801b60065560266007556000600960006101000a81548160ff0219169083151502179055506000600960016101000a81548160ff0219169083151502179055506000600960026101000a81548160ff0219169083151502179055506001600960036101000a81548160ff02191690831515021790555033600260006101000a81548173ffffffffffffffffffffffffffffffffffffffff021916908373ffffffffffffffffffffffffffffffffffffffff1602179055506131c08061011d6000396000f3fe6080604052600436106100ab5760003560e01c80636f2e5698116100645780636f2e56981461019157806373b31cc2146101bc578063857c1c9a146101d8578063bce5008c14610203578063d14f6c061461022e578063ec867c3514610259576100b2565b806308873656146100b457806312065fe0146100cb578063161ebe55146100f657806316c05aa21461012157806351d2dc3b1461012b5780635c2029a914610168576100b2565b366100b257005b005b3480156100c057600080fd5b506100c9610289565b005b3480156100d757600080fd5b506100e061058d565b6040516100ed9190613004565b60405180910390f35b34801561010257600080fd5b5061010b610595565b6040516101189190612e2c565b60405180910390f35b61012961069f565b005b34801561013757600080fd5b50610152600480360381019061014d91906127f2565b61073c565b60405161015f9190612e4e565b60405180910390f35b34801561017457600080fd5b5061018f600480360381019061018a919061281b565b610875565b005b34801561019d57600080fd5b506101a6610a9b565b6040516101b39190613004565b60405180910390f35b6101d660048036038101906101d191906127b1565b610aa5565b005b3480156101e457600080fd5b506101ed610dc4565b6040516101fa9190612e4e565b60405180910390f35b34801561020f57600080fd5b50610218610dca565b6040516102259190612e69565b60405180910390f35b34801561023a57600080fd5b50610243610e13565b6040516102509190613004565b60405180910390f35b610273600480360381019061026e9190612844565b610e36565b6040516102809190613004565b60405180910390f35b600260009054906101000a900473ffffffffffffffffffffffffffffffffffffffff1673ffffffffffffffffffffffffffffffffffffffff163373ffffffffffffffffffffffffffffffffffffffff1614610319576040517f08c379a000000000000000000000000000000000000000000000000000000000815260040161031090612ee4565b60405180910390fd5b600960029054906101000a900460ff1661033257600080fd5b6000801b600654141561034457600080fd5b6000600960026101000a81548160ff0219169083151502179055506001600960036101000a81548160ff0219169083151502179055506000801b600681905550600754600881905550602660078190555060008090505b60018054905081101561058a575b6000806000600184815481106103bb57fe5b9060005260206000200160009054906101000a900473ffffffffffffffffffffffffffffffffffffffff1673ffffffffffffffffffffffffffffffffffffffff1673ffffffffffffffffffffffffffffffffffffffff1681526020019081526020016000206001018054905011156104ec576000806001838154811061043d57fe5b9060005260206000200160009054906101000a900473ffffffffffffffffffffffffffffffffffffffff1673ffffffffffffffffffffffffffffffffffffffff1673ffffffffffffffffffffffffffffffffffffffff1681526020019081526020016000206001018054806104ae57fe5b6001900381819060005260206000209060030201600080820160006104d391906125ab565b60018201600090556002820160009055505090556103a9565b6000806000600184815481106104fe57fe5b9060005260206000200160009054906101000a900473ffffffffffffffffffffffffffffffffffffffff1673ffffffffffffffffffffffffffffffffffffffff1673ffffffffffffffffffffffffffffffffffffffff16815260200190815260200160002060000160156101000a81548160ff021916908315150217905550808060010191505061039b565b50565b600047905090565b60606000803373ffffffffffffffffffffffffffffffffffffffff1673ffffffffffffffffffffffffffffffffffffffff168152602001908152602001600020600101805480602002602001604051908101604052809291908181526020016000905b8282101561069657838290600052602060002090600302016040518060600160405290816000820180548060200260200160405190810160405280929190818152602001828054801561066a57602002820191906000526020600020905b815481526020019060010190808311610656575b5050505050815260200160018201548152602001600282015481525050815260200190600101906105f8565b50505050905090565b600260009054906101000a900473ffffffffffffffffffffffffffffffffffffffff1673ffffffffffffffffffffffffffffffffffffffff163373ffffffffffffffffffffffffffffffffffffffff161461072f576040517f08c379a000000000000000000000000000000000000000000000000000000000815260040161072690612f84565b60405180910390fd5b3460035401600381905550565b6000600960039054906101000a900460ff1661075757600080fd5b600260009054906101000a900473ffffffffffffffffffffffffffffffffffffffff1673ffffffffffffffffffffffffffffffffffffffff163373ffffffffffffffffffffffffffffffffffffffff16146107e7576040517f08c379a00000000000000000000000000000000000000000000000000000000081526004016107de90612f24565b60405180910390fd5b6000801b6006541461082e576040517f08c379a000000000000000000000000000000000000000000000000000000000815260040161082590612f04565b60405180910390fd5b816006819055506000600960036101000a81548160ff0219169083151502179055506001600960016101000a81548160ff0219169083151502179055506006549050919050565b60003390506000808273ffffffffffffffffffffffffffffffffffffffff1673ffffffffffffffffffffffffffffffffffffffff1681526020019081526020016000206001018054905082106108cb5750610a98565b60008290505b60016000808473ffffffffffffffffffffffffffffffffffffffff1673ffffffffffffffffffffffffffffffffffffffff1681526020019081526020016000206001018054905003811015610a12576000808373ffffffffffffffffffffffffffffffffffffffff1673ffffffffffffffffffffffffffffffffffffffff168152602001908152602001600020600101600182018154811061096f57fe5b90600052602060002090600302016000808473ffffffffffffffffffffffffffffffffffffffff1673ffffffffffffffffffffffffffffffffffffffff16815260200190815260200160002060010182815481106109c957fe5b906000526020600020906003020160008201816000019080546109ed9291906125cc565b50600182015481600101556002820154816002015590505080806001019150506108d1565b506000808273ffffffffffffffffffffffffffffffffffffffff1673ffffffffffffffffffffffffffffffffffffffff168152602001908152602001600020600101805480610a5d57fe5b600190038181906000526020600020906003020160008082016000610a8291906125ab565b6001820160009055600282016000905550509055505b50565b6000600354905090565b600960019054906101000a900460ff16610abe57600080fd5b6000339050600260009054906101000a900473ffffffffffffffffffffffffffffffffffffffff1673ffffffffffffffffffffffffffffffffffffffff168173ffffffffffffffffffffffffffffffffffffffff161415610b54576040517f08c379a0000000000000000000000000000000000000000000000000000000008152600401610b4b90612f64565b60405180910390fd5b6003546024340210610b9b576040517f08c379a0000000000000000000000000000000000000000000000000000000008152600401610b9290612f44565b60405180910390fd5b6001341015610bdf576040517f08c379a0000000000000000000000000000000000000000000000000000000008152600401610bd690612ea4565b60405180910390fd5b600454341115610c24576040517f08c379a0000000000000000000000000000000000000000000000000000000008152600401610c1b90612fa4565b60405180910390fd5b6000808273ffffffffffffffffffffffffffffffffffffffff1673ffffffffffffffffffffffffffffffffffffffff16815260200190815260200160002060000160149054906101000a900460ff16610db5576001339080600181540180825580915050600190039060005260206000200160009091909190916101000a81548173ffffffffffffffffffffffffffffffffffffffff021916908373ffffffffffffffffffffffffffffffffffffffff160217905550336000808373ffffffffffffffffffffffffffffffffffffffff1673ffffffffffffffffffffffffffffffffffffffff16815260200190815260200160002060000160006101000a81548173ffffffffffffffffffffffffffffffffffffffff021916908373ffffffffffffffffffffffffffffffffffffffff16021790555060016000808373ffffffffffffffffffffffffffffffffffffffff1673ffffffffffffffffffffffffffffffffffffffff16815260200190815260200160002060000160146101000a81548160ff0219169083151502179055505b610dc0818334610f7e565b5050565b60065481565b60008060003373ffffffffffffffffffffffffffffffffffffffff1673ffffffffffffffffffffffffffffffffffffffff16815260200190815260200160002060020154905090565b6000600960029054906101000a900460ff16610e2e57600080fd5b600754905090565b6000600260009054906101000a900473ffffffffffffffffffffffffffffffffffffffff1673ffffffffffffffffffffffffffffffffffffffff163373ffffffffffffffffffffffffffffffffffffffff1614610ec8576040517f08c379a0000000000000000000000000000000000000000000000000000000008152600401610ebf90612fe4565b60405180910390fd5b6006548383604051602001610ede929190612e00565b6040516020818303038152906040528051906020012014610f34576040517f08c379a0000000000000000000000000000000000000000000000000000000008152600401610f2b90612fc4565b60405180910390fd5b6000600960016101000a81548160ff0219169083151502179055506001600960026101000a81548160ff021916908315150217905550610f7333611417565b600754905092915050565b600080905060008351905060008090505b81811015610fd057848181518110610fa357fe5b6020026020010151600081518110610fb757fe5b6020026020010151830192508080600101915050610f8f565b50828214611013576040517f08c379a000000000000000000000000000000000000000000000000000000000815260040161100a90612e84565b60405180910390fd5b60008090505b8181101561140f57600085828151811061102f57fe5b602002602001015160008151811061104357fe5b602002602001015190506000600187848151811061105d57fe5b6020026020010151510360248161107057fe5b049050602787848151811061108157fe5b602002602001015160018151811061109557fe5b602002602001015114806110d0575060288784815181106110b257fe5b60200260200101516001815181106110c657fe5b6020026020010151145b80611102575060298784815181106110e457fe5b60200260200101516001815181106110f857fe5b6020026020010151145b806111345750602a87848151811061111657fe5b602002602001015160018151811061112a57fe5b6020026020010151145b156111425760029050611272565b602b87848151811061115057fe5b602002602001015160018151811061116457fe5b6020026020010151148061119f5750602c87848151811061118157fe5b602002602001015160018151811061119557fe5b6020026020010151145b806111d15750602d8784815181106111b357fe5b60200260200101516001815181106111c757fe5b6020026020010151145b806112035750602e8784815181106111e557fe5b60200260200101516001815181106111f957fe5b6020026020010151145b806112355750602f87848151811061121757fe5b602002602001015160018151811061122b57fe5b6020026020010151145b806112675750603087848151811061124957fe5b602002602001015160018151811061125d57fe5b6020026020010151145b1561127157600390505b5b6060600188858151811061128257fe5b6020026020010151510367ffffffffffffffff811180156112a257600080fd5b506040519080825280602002602001820160405280156112d15781602001602082028036833780820191505090505b5090506000600190505b8885815181106112e757fe5b6020026020010151518110156113465788858151811061130357fe5b6020026020010151818151811061131657fe5b602002602001015182600183038151811061132d57fe5b60200260200101818152505080806001019150506112db565b506000808a73ffffffffffffffffffffffffffffffffffffffff1673ffffffffffffffffffffffffffffffffffffffff168152602001908152602001600020600101604051806060016040528083815260200184815260200185815250908060018154018082558091505060019003906000526020600020906003020160009091909190915060008201518160000190805190602001906113e892919061261e565b50602082015181600101556040820151816002015550505050508080600101915050611019565b505050505050565b600960029054906101000a900460ff1661143057600080fd5b6000809050600080600090505b6000808573ffffffffffffffffffffffffffffffffffffffff1673ffffffffffffffffffffffffffffffffffffffff168152602001908152602001600020600101805490508110156123155760008060008673ffffffffffffffffffffffffffffffffffffffff1673ffffffffffffffffffffffffffffffffffffffff16815260200190815260200160002060000160156101000a81548160ff021916908315150217905550600060075414806114f657506026600754145b156115d0576007546000808673ffffffffffffffffffffffffffffffffffffffff1673ffffffffffffffffffffffffffffffffffffffff168152602001908152602001600020600101828154811061154a57fe5b906000526020600020906003020160000160008154811061156757fe5b9060005260206000200154146000808673ffffffffffffffffffffffffffffffffffffffff1673ffffffffffffffffffffffffffffffffffffffff16815260200190815260200160002060000160156101000a81548160ff021916908315150217905550612184565b60276000808673ffffffffffffffffffffffffffffffffffffffff1673ffffffffffffffffffffffffffffffffffffffff168152602001908152602001600020600101828154811061161e57fe5b906000526020600020906003020160000160008154811061163b57fe5b906000526020600020015414156116b957600060026007548161165a57fe5b06146000808673ffffffffffffffffffffffffffffffffffffffff1673ffffffffffffffffffffffffffffffffffffffff16815260200190815260200160002060000160156101000a81548160ff021916908315150217905550612183565b60286000808673ffffffffffffffffffffffffffffffffffffffff1673ffffffffffffffffffffffffffffffffffffffff168152602001908152602001600020600101828154811061170757fe5b906000526020600020906003020160000160008154811061172457fe5b906000526020600020015414156117a257600160026007548161174357fe5b06146000808673ffffffffffffffffffffffffffffffffffffffff1673ffffffffffffffffffffffffffffffffffffffff16815260200190815260200160002060000160156101000a81548160ff021916908315150217905550612182565b60296000808673ffffffffffffffffffffffffffffffffffffffff1673ffffffffffffffffffffffffffffffffffffffff16815260200190815260200160002060010182815481106117f057fe5b906000526020600020906003020160000160008154811061180d57fe5b9060005260206000200154141561192257600a60075411158061184257506014600754101580156118415750601c60075411155b5b156118b457600060026007548161185557fe5b06146000808673ffffffffffffffffffffffffffffffffffffffff1673ffffffffffffffffffffffffffffffffffffffff16815260200190815260200160002060000160156101000a81548160ff02191690831515021790555061191d565b60016002600754816118c257fe5b06146000808673ffffffffffffffffffffffffffffffffffffffff1673ffffffffffffffffffffffffffffffffffffffff16815260200190815260200160002060000160156101000a81548160ff0219169083151502179055505b612181565b602a6000808673ffffffffffffffffffffffffffffffffffffffff1673ffffffffffffffffffffffffffffffffffffffff168152602001908152602001600020600101828154811061197057fe5b906000526020600020906003020160000160008154811061198d57fe5b90600052602060002001541480156119b1575060006002600754816119ae57fe5b06145b15611aba57600a6007541115806119da57506014600754101580156119d95750601c60075411155b5b15611a4c5760016002600754816119ed57fe5b06146000808673ffffffffffffffffffffffffffffffffffffffff1673ffffffffffffffffffffffffffffffffffffffff16815260200190815260200160002060000160156101000a81548160ff021916908315150217905550611ab5565b6000600260075481611a5a57fe5b06146000808673ffffffffffffffffffffffffffffffffffffffff1673ffffffffffffffffffffffffffffffffffffffff16815260200190815260200160002060000160156101000a81548160ff0219169083151502179055505b612180565b602b6000808673ffffffffffffffffffffffffffffffffffffffff1673ffffffffffffffffffffffffffffffffffffffff1681526020019081526020016000206001018281548110611b0857fe5b9060005260206000209060030201600001600081548110611b2557fe5b90600052602060002001541415611b9a57600c60075411156000808673ffffffffffffffffffffffffffffffffffffffff1673ffffffffffffffffffffffffffffffffffffffff16815260200190815260200160002060000160156101000a81548160ff02191690831515021790555061217f565b602c6000808673ffffffffffffffffffffffffffffffffffffffff1673ffffffffffffffffffffffffffffffffffffffff1681526020019081526020016000206001018281548110611be857fe5b9060005260206000209060030201600001600081548110611c0557fe5b90600052602060002001541415611c8857600c600754118015611c2b5750601860075411155b6000808673ffffffffffffffffffffffffffffffffffffffff1673ffffffffffffffffffffffffffffffffffffffff16815260200190815260200160002060000160156101000a81548160ff02191690831515021790555061217e565b602d6000808673ffffffffffffffffffffffffffffffffffffffff1673ffffffffffffffffffffffffffffffffffffffff1681526020019081526020016000206001018281548110611cd657fe5b9060005260206000209060030201600001600081548110611cf357fe5b90600052602060002001541415611d67576018600754116000808673ffffffffffffffffffffffffffffffffffffffff1673ffffffffffffffffffffffffffffffffffffffff16815260200190815260200160002060000160156101000a81548160ff02191690831515021790555061217d565b602e6000808673ffffffffffffffffffffffffffffffffffffffff1673ffffffffffffffffffffffffffffffffffffffff1681526020019081526020016000206001018281548110611db557fe5b9060005260206000209060030201600001600081548110611dd257fe5b90600052602060002001541415611e50576001600360075481611df157fe5b06146000808673ffffffffffffffffffffffffffffffffffffffff1673ffffffffffffffffffffffffffffffffffffffff16815260200190815260200160002060000160156101000a81548160ff02191690831515021790555061217c565b602f6000808673ffffffffffffffffffffffffffffffffffffffff1673ffffffffffffffffffffffffffffffffffffffff1681526020019081526020016000206001018281548110611e9e57fe5b9060005260206000209060030201600001600081548110611ebb57fe5b90600052602060002001541415611f39576002600360075481611eda57fe5b06146000808673ffffffffffffffffffffffffffffffffffffffff1673ffffffffffffffffffffffffffffffffffffffff16815260200190815260200160002060000160156101000a81548160ff02191690831515021790555061217b565b60306000808673ffffffffffffffffffffffffffffffffffffffff1673ffffffffffffffffffffffffffffffffffffffff1681526020019081526020016000206001018281548110611f8757fe5b9060005260206000209060030201600001600081548110611fa457fe5b90600052602060002001541415612022576000600360075481611fc357fe5b06146000808673ffffffffffffffffffffffffffffffffffffffff1673ffffffffffffffffffffffffffffffffffffffff16815260200190815260200160002060000160156101000a81548160ff02191690831515021790555061217a565b60008090505b6000808673ffffffffffffffffffffffffffffffffffffffff1673ffffffffffffffffffffffffffffffffffffffff168152602001908152602001600020600101828154811061207457fe5b906000526020600020906003020160000180549050811015612178576007546000808773ffffffffffffffffffffffffffffffffffffffff1673ffffffffffffffffffffffffffffffffffffffff16815260200190815260200160002060010183815481106120df57fe5b906000526020600020906003020160000182815481106120fb57fe5b9060005260206000200154141561216b5760016000808773ffffffffffffffffffffffffffffffffffffffff1673ffffffffffffffffffffffffffffffffffffffff16815260200190815260200160002060000160156101000a81548160ff021916908315150217905550612178565b8080600101915050612028565b505b5b5b5b5b5b5b5b5b5b5b600015156000808673ffffffffffffffffffffffffffffffffffffffff1673ffffffffffffffffffffffffffffffffffffffff16815260200190815260200160002060000160159054906101000a900460ff1615151415612246576000808573ffffffffffffffffffffffffffffffffffffffff1673ffffffffffffffffffffffffffffffffffffffff168152602001908152602001600020600101818154811061222b57fe5b90600052602060002090600302016002015482019150612308565b6000808573ffffffffffffffffffffffffffffffffffffffff1673ffffffffffffffffffffffffffffffffffffffff168152602001908152602001600020600101818154811061229257fe5b9060005260206000209060030201600201546000808673ffffffffffffffffffffffffffffffffffffffff1673ffffffffffffffffffffffffffffffffffffffff16815260200190815260200160002060010182815481106122f057fe5b90600052602060002090600302016001015402830192505b808060010191505061143d565b5061231f81612339565b6123298284612347565b612334828285612466565b505050565b806003540160038190555050565b81600354036003819055506123bd6000808373ffffffffffffffffffffffffffffffffffffffff1673ffffffffffffffffffffffffffffffffffffffff16815260200190815260200160002060000160009054906101000a900473ffffffffffffffffffffffffffffffffffffffff16836124f6565b60008060008373ffffffffffffffffffffffffffffffffffffffff1673ffffffffffffffffffffffffffffffffffffffff16815260200190815260200160002060010180549050905060008090505b81811015612460576000808473ffffffffffffffffffffffffffffffffffffffff1673ffffffffffffffffffffffffffffffffffffffff16815260200190815260200160002050808060010191505061240c565b50505050565b8183036000808373ffffffffffffffffffffffffffffffffffffffff1673ffffffffffffffffffffffffffffffffffffffff16815260200190815260200160002060020154016000808373ffffffffffffffffffffffffffffffffffffffff1673ffffffffffffffffffffffffffffffffffffffff16815260200190815260200160002060020181905550505050565b600060608373ffffffffffffffffffffffffffffffffffffffff168360405161251e90612deb565b60006040518083038185875af1925050503d806000811461255b576040519150601f19603f3d011682016040523d82523d6000602084013e612560565b606091505b5091509150816125a5576040517f08c379a000000000000000000000000000000000000000000000000000000000815260040161259c90612ec4565b60405180910390fd5b50505050565b50805460008255906000526020600020908101906125c9919061266b565b50565b82805482825590600052602060002090810192821561260d5760005260206000209182015b8281111561260c5782548255916001019190600101906125f1565b5b50905061261a919061266b565b5090565b82805482825590600052602060002090810192821561265a579160200282015b8281111561265957825182559160200191906001019061263e565b5b509050612667919061266b565b5090565b61268d91905b80821115612689576000816000905550600101612671565b5090565b90565b600082601f8301126126a157600080fd5b81356126b46126af8261304c565b61301f565b9150818183526020840193506020810190508360005b838110156126fa57813586016126e08882612704565b8452602084019350602083019250506001810190506126ca565b5050505092915050565b600082601f83011261271557600080fd5b813561272861272382613074565b61301f565b9150818183526020840193506020810190508385602084028201111561274d57600080fd5b60005b8381101561277d5781612763888261279c565b845260208401935060208301925050600181019050612750565b5050505092915050565b6000813590506127968161315c565b92915050565b6000813590506127ab81613173565b92915050565b6000602082840312156127c357600080fd5b600082013567ffffffffffffffff8111156127dd57600080fd5b6127e984828501612690565b91505092915050565b60006020828403121561280457600080fd5b600061281284828501612787565b91505092915050565b60006020828403121561282d57600080fd5b600061283b8482850161279c565b91505092915050565b6000806040838503121561285757600080fd5b60006128658582860161279c565b925050602061287685828601612787565b9150509250929050565b600061288c8383612d66565b905092915050565b60006128a08383612db6565b60208301905092915050565b60006128b7826130bc565b6128c181856130ec565b9350836020820285016128d38561309c565b8060005b8581101561290f57848403895281516128f08582612880565b94506128fb836130d2565b925060208a019950506001810190506128d7565b50829750879550505050505092915050565b600061292c826130c7565b61293681856130fd565b9350612941836130ac565b8060005b838110156129725781516129598882612894565b9750612964836130df565b925050600181019050612945565b5085935050505092915050565b6129888161312a565b82525050565b61299f61299a8261312a565b613148565b82525050565b6129ae81613134565b82525050565b60006129c1602783613119565b91507f42657420616d6f756e74206e6f74206571756976616c656e7420746f20746f7460008301527f616c2062657473000000000000000000000000000000000000000000000000006020830152604082019050919050565b6000612a27601c83613119565b91507f42657473206d75737420626520206174206c65617374203120776569000000006000830152602082019050919050565b6000612a67601483613119565b91507f4661696c656420746f2073656e642045746865720000000000000000000000006000830152602082019050919050565b6000612aa7601e83613119565b91507f4f6e6c792074686520636173696e6f2063616e2072657365742067616d6500006000830152602082019050919050565b6000612ae7601483613119565b91507f4861736820616c726561647920637265617465640000000000000000000000006000830152602082019050919050565b6000612b27602483613119565b91507f4f6e6c792074686520636173696e6f2063616e2067656e6572617465206f757460008301527f636f6d65000000000000000000000000000000000000000000000000000000006020830152604082019050919050565b6000612b8d601783613119565b91507f436173696e6f2063616e6e6f7420636f766572206265740000000000000000006000830152602082019050919050565b6000612bcd601983613119565b91507f436173696e6f2063616e6e6f74206265206120706c61796572000000000000006000830152602082019050919050565b6000612c0d602183613119565b91507f4f6e6c792074686520636173696e6f2063616e206465706f736974206d6f6e6560008301527f79000000000000000000000000000000000000000000000000000000000000006020830152604082019050919050565b6000612c73601083613119565b91507f4d617820626574206578636565646564000000000000000000000000000000006000830152602082019050919050565b6000612cb360008361310e565b9150600082019050919050565b6000612ccd601283613119565b91507f4861736820646f65736e2774206d6174636800000000000000000000000000006000830152602082019050919050565b6000612d0d602783613119565b91507f4f6e6c792074686520636173696e6f2063616e2072657665616c57696e6e696e60008301527f674e756d626572000000000000000000000000000000000000000000000000006020830152604082019050919050565b60006060830160008301518482036000860152612d838282612921565b9150506020830151612d986020860182612db6565b506040830151612dab6040860182612db6565b508091505092915050565b612dbf8161313e565b82525050565b612dce8161313e565b82525050565b612de5612de08261313e565b613152565b82525050565b6000612df682612ca6565b9150819050919050565b6000612e0c8285612dd4565b602082019150612e1c828461298e565b6020820191508190509392505050565b60006020820190508181036000830152612e4681846128ac565b905092915050565b6000602082019050612e63600083018461297f565b92915050565b6000602082019050612e7e60008301846129a5565b92915050565b60006020820190508181036000830152612e9d816129b4565b9050919050565b60006020820190508181036000830152612ebd81612a1a565b9050919050565b60006020820190508181036000830152612edd81612a5a565b9050919050565b60006020820190508181036000830152612efd81612a9a565b9050919050565b60006020820190508181036000830152612f1d81612ada565b9050919050565b60006020820190508181036000830152612f3d81612b1a565b9050919050565b60006020820190508181036000830152612f5d81612b80565b9050919050565b60006020820190508181036000830152612f7d81612bc0565b9050919050565b60006020820190508181036000830152612f9d81612c00565b9050919050565b60006020820190508181036000830152612fbd81612c66565b9050919050565b60006020820190508181036000830152612fdd81612cc0565b9050919050565b60006020820190508181036000830152612ffd81612d00565b9050919050565b60006020820190506130196000830184612dc5565b92915050565b6000604051905081810181811067ffffffffffffffff8211171561304257600080fd5b8060405250919050565b600067ffffffffffffffff82111561306357600080fd5b602082029050602081019050919050565b600067ffffffffffffffff82111561308b57600080fd5b602082029050602081019050919050565b6000819050602082019050919050565b6000819050602082019050919050565b600081519050919050565b600081519050919050565b6000602082019050919050565b6000602082019050919050565b600082825260208201905092915050565b600082825260208201905092915050565b600081905092915050565b600082825260208201905092915050565b6000819050919050565b6000819050919050565b6000819050919050565b6000819050919050565b6000819050919050565b6131658161312a565b811461317057600080fd5b50565b61317c8161313e565b811461318757600080fd5b5056fea264697066735822122023b0bc1f240e1f3b78abbcd9d6c0bf4aef403ce4c531ac76ac6c6330ea25b1ca64736f6c63430006060033",
  "immutableReferences": {},
  "source": "pragma solidity ^0.6.6;\npragma experimental ABIEncoderV2;\n\n\ncontract Roulette { \n    \n    struct Bet {\n        uint256[] numbers;\n        uint256 multiplier;\n        uint256 betAmount;\n    }\n    \n    struct Player {\n        address payable playerAddress;\n        bool playerExists; // Whether the player has already been added to map and array;\n        bool win; // Whether the player won or lost\n        // bool gameInProgress; // Whether the player is currently playing a game\n        // uint256 result;\n        Bet[] bets;\n        int256 totalWinnings; // Keeps track of player balance\n    }\n    \n    mapping(address => Player) playerMap; // Map containing all players playing the game (this is not iterable)\n    address[] playerAddressArray; // Array of all players addresses of players playing the game (this is iterable)\n    address payable casino;  // Address of the casino, will not change after contract is deployed\n    uint256 casinoDeposit = 0; // Value of the casino deposit\n    uint256 maxBet = .001 ether; \n    address payable contractAddress = address(this);  // Address of this contract\n    bytes32 public commitHash = 0;\n    uint256 winningNumber = 38;\n    uint256 lastWinningNumber;\n    bool wheelSpun = false;\n    \n    bool bettingPhase  = false;\n    bool payingPhase = false ;\n    bool resetPhase = true;\n    \n    constructor () public payable{\n        // Casino initiates the contract\n        casino = msg.sender;\n    }\n    \n    // Function to receive Ether. msg.data must be empty\n    receive() external payable {}\n\n    // Fallback function is called when msg.data is not empty\n    fallback() external payable {}\n    \n    // Function to send a value of money to an address\n    function sendViaCall(address payable _to, uint256 _amount) internal {\n        (bool sent, bytes memory data) = _to.call{value: _amount}(\"\"); \n        require(sent, \"Failed to send Ether\");\n    }\n    \n    // Function for the casino to deposit money, must be called for the rest of the contract to work\n    function depositMoney() public payable {\n        require(msg.sender == casino, \"Only the casino can deposit money\");\n        casinoDeposit = casinoDeposit + msg.value;\n    }\n    \n    function getCasinoDeposit() public view returns (uint256){\n        return casinoDeposit;\n    }\n    \n    function getOutcomeHash(bytes32 _outcomeHash) public returns (bytes32) {\n        require (resetPhase);\n        require(msg.sender == casino, \"Only the casino can generate outcome\");\n        require (commitHash == 0, \"Hash already created\");\n        commitHash = _outcomeHash;\n        resetPhase = false;\n        bettingPhase = true;\n        return commitHash;\n    }\n    \n    // Function for the casino to match the bet amount\n    function matchBet(uint256 _betAmount) internal {\n        casinoDeposit = casinoDeposit - _betAmount; // bet amount is deducted from casinoDeposit and but remains in the contract balance\n    }\n    \n    function placeBet(uint256[][] memory _bets) public payable {\n        require(bettingPhase);\n        address _playerAddress = msg.sender;\n        require(_playerAddress != casino, \"Casino cannot be a player\");\n        require(msg.value * 36 < casinoDeposit, \"Casino cannot cover bet\"); // Bet must be less than the money in the casino deposit to ensure casino can cover the bet\n        require(msg.value >= 1 wei, \"Bets must be  at least 1 wei\"); // Must be greater or equal to minimum bet of 1 wei\n        require(msg.value <= maxBet, \"Max bet exceeded\"); // Must be less than or equal to max bet of .001 ether\n        \n        if( !playerMap[_playerAddress].playerExists) { // If player is new\n            playerAddressArray.push(msg.sender); // Add player address to array of player addresses\n            playerMap[_playerAddress].playerAddress = msg.sender; \n            playerMap[_playerAddress].playerExists = true;\n        }\n        \n        setBet(_playerAddress, _bets, msg.value);\n    }\n    \n    // This is the spin wheel function\n    function revealWinningNumber(uint256 _winningNumber, bytes32 _nonce) public payable returns (uint256){\n        require(msg.sender == casino, \"Only the casino can revealWinningNumber\");\n        require(keccak256(abi.encodePacked(_winningNumber, _nonce)) ==  commitHash, \"Hash doesn't match\"); // Ensures winning winningNumber was not changed\n        bettingPhase = false;\n        payingPhase = true;\n        payout(msg.sender);\n        return winningNumber;\n    }\n    \n    function WinningNumber() public view returns (uint256)  {\n        require(payingPhase);\n        return winningNumber;\n    }\n    \n    function payout(address _playerAddress) internal{\n        require(payingPhase);\n        uint256 winAmount = 0;\n        uint256 loseAmount;\n        for(uint256 i = 0; i < playerMap[_playerAddress].bets.length; i++){ // Loop through players bets\n            playerMap[_playerAddress].win = false;\n            if (winningNumber == 0  || winningNumber == 38){ // Winning number is 0 or 00\n                playerMap[_playerAddress].win = (playerMap[_playerAddress].bets[i].numbers[0] == winningNumber);\n            }\n            else if(playerMap[_playerAddress].bets[i].numbers[0] == 39){ // Evens\n                playerMap[_playerAddress].win = (winningNumber % 2 == 0);\n            }\n            else if (playerMap[_playerAddress].bets[i].numbers[0] == 40){ // Odds\n                playerMap[_playerAddress].win = (winningNumber % 2 == 1);\n            }\n            else if (playerMap[_playerAddress].bets[i].numbers[0] == 41){  // Blacks\n                if (winningNumber <= 10 || (winningNumber >= 20 && winningNumber <= 28)) {\n                    playerMap[_playerAddress].win = (winningNumber % 2 == 0);\n                } \n                else {\n                    playerMap[_playerAddress].win = (winningNumber % 2 == 1);\n                }\n            }\n            else if (playerMap[_playerAddress].bets[i].numbers[0] == 42 && winningNumber % 2 == 0){ // Reds\n                if (winningNumber <= 10 || (winningNumber >= 20 && winningNumber <= 28)) {\n                    playerMap[_playerAddress].win = (winningNumber % 2 == 1);\n                } \n                else {\n                     playerMap[_playerAddress].win = (winningNumber % 2 == 0);\n                }\n            }\n            else if (playerMap[_playerAddress].bets[i].numbers[0] == 43){ // First dozen\n                playerMap[_playerAddress].win = (winningNumber <= 12);\n            }\n            else if (playerMap[_playerAddress].bets[i].numbers[0] == 44){ // Second dozen\n                playerMap[_playerAddress].win = (winningNumber > 12 && winningNumber <= 24);\n            }\n            else if (playerMap[_playerAddress].bets[i].numbers[0] == 45){ // Third dozen\n                playerMap[_playerAddress].win = (winningNumber > 24);\n            }\n            else if (playerMap[_playerAddress].bets[i].numbers[0] == 46){ // First Column\n                playerMap[_playerAddress].win = (winningNumber % 3 == 1);\n            }\n            else if (playerMap[_playerAddress].bets[i].numbers[0] == 47){ // Second Column\n                playerMap[_playerAddress].win = (winningNumber % 3 == 2);\n            }\n            else if (playerMap[_playerAddress].bets[i].numbers[0] == 48){ // Third Column\n                playerMap[_playerAddress].win = (winningNumber % 3 == 0);\n            }\n            else {\n                for(uint256 j = 0; j < playerMap[_playerAddress].bets[i].numbers.length; j++){ // Loop through every winningNumber in the bet\n                    if(playerMap[_playerAddress].bets[i].numbers[j] == winningNumber){ // Check if any are individual winning number\n                        playerMap[_playerAddress].win = true;\n                        break;\n                    }\n                }\n            }\n            if (playerMap[_playerAddress].win == false){\n                loseAmount = loseAmount + playerMap[_playerAddress].bets[i].betAmount;\n            }\n            else{\n                winAmount = winAmount + playerMap[_playerAddress].bets[i].multiplier * playerMap[_playerAddress].bets[i].betAmount;\n            }\n        }\n        payCasino(loseAmount);\n        payPlayer(winAmount, _playerAddress);\n        updateWinnings(winAmount, loseAmount, _playerAddress);\n    }\n    \n    function setBet(address _playerAddress, uint256[][] memory _bets, uint256 _betTotal) internal{\n        // Sample Bets [[100,1,2,3,4],[100,20],[100,1,2,3,4,5,6,7,8,9,10,11,12]]\n        uint256 betTotal = 0;\n        uint256 n = _bets.length;\n        for(uint i = 0; i < n; i++){\n            betTotal += _bets[i][0];\n        }\n        require(betTotal == _betTotal, \"Bet amount not equivalent to total bets\");\n        for(uint i = 0; i < n; i++){\n            uint256 betAmount = _bets[i][0];\n            uint256 multiplier = 36/(_bets[i].length - 1);\n            if(_bets[i][1] == 39 || _bets[i][1] == 40 || _bets[i][1] == 41 || _bets[i][1] == 42){ // Evens\n                multiplier = 2;\n            }\n            else if (_bets[i][1] == 43 || _bets[i][1] == 44 || _bets[i][1] == 45 || _bets[i][1] == 46 || _bets[i][1] == 47 || _bets[i][1] == 48){ // First dozen\n                multiplier = 3;\n            }\n            uint256[] memory numbers = new uint256[](_bets[i].length - 1);\n            for(uint j = 1; j < _bets[i].length; j++){\n                numbers[j-1]= _bets[i][j];\n            }\n            playerMap[_playerAddress].bets.push(Bet(numbers,multiplier,betAmount));\n        }\n    }\n    \n    function payCasino(uint256 amount) internal{\n        casinoDeposit = casinoDeposit + amount;\n    }\n    \n    function payPlayer(uint256 amount, address _playerAddress) internal{\n        casinoDeposit = casinoDeposit - amount;\n        sendViaCall(playerMap[_playerAddress].playerAddress, amount);\n        uint256 numberOfBets = playerMap[_playerAddress].bets.length;\n        for(uint256 i = 0; i < numberOfBets; i++){\n            playerMap[_playerAddress].bets.pop;\n        }\n    }\n    \n    // Funtion to return total balance of the contract which is casinoDeposit + all bets currently on the table\n    function getBalance() public view returns (uint) {\n        return address(this).balance;\n    }\n    \n    // See current players bets\n    function seeBets() public view returns (Bet[] memory){\n        return playerMap[msg.sender].bets;\n    }\n    \n    function seePlayerWinnings() public view returns (int256){\n        return playerMap[msg.sender].totalWinnings;\n    }\n    \n    function updateWinnings(uint256 winAmount, uint256 loseAmount, address _playerAddress) internal{\n        playerMap[_playerAddress].totalWinnings = playerMap[_playerAddress].totalWinnings + int256(winAmount - loseAmount);\n    }\n    \n    function gameReset() external{\n        require(msg.sender == casino, \"Only the casino can reset game\");\n        require(payingPhase);\n        require(commitHash != 0);\n        payingPhase = false;\n        resetPhase = true;\n        commitHash = 0;\n        lastWinningNumber = winningNumber;\n        winningNumber = 38;\n        for (uint i = 0; i < playerAddressArray.length; i++){\n            while(playerMap[playerAddressArray[i]].bets.length > 0){\n                playerMap[playerAddressArray[i]].bets.pop();\n            }\n            playerMap[playerAddressArray[i]].win = false;\n        }\n    }\n    \n    function removeBet(uint index) public {\n        address _playerAddress = msg.sender;\n        if (index >= playerMap[_playerAddress].bets.length) return ;\n        for (uint i = index; i< playerMap[_playerAddress].bets.length - 1; i++){\n            playerMap[_playerAddress].bets[i] = playerMap[_playerAddress].bets[i+1];\n        }\n        playerMap[_playerAddress].bets.pop();\n    }\n    \n    \n}",
  "sourcePath": "/Users/MMayaguari/Documents/GitHub/EthereumRoullette/dapp/contracts/Roulette.sol",
  "compiler": {
    "name": "solc",
    "version": "0.6.6+commit.6c089d02.Emscripten.clang"
  },
  "schemaVersion": "3.3.4",
  "updatedAt": "2021-04-21T22:59:16.591Z",
  "networkType": "ethereum",
  "devdoc": {
    "methods": {}
  },
  "userdoc": {
    "methods": {}
  }
}