{
  "contractName": "Roullette",
  "abi": [
    {
      "inputs": [],
      "stateMutability": "payable",
      "type": "constructor",
      "payable": true
    },
    {
      "stateMutability": "payable",
      "type": "fallback",
      "payable": true
    },
    {
      "inputs": [],
      "name": "casinoDeposit",
      "outputs": [
        {
          "internalType": "uint256",
          "name": "",
          "type": "uint256"
        }
      ],
      "stateMutability": "view",
      "type": "function",
      "constant": true
    },
    {
      "stateMutability": "payable",
      "type": "receive",
      "payable": true
    },
    {
      "inputs": [],
      "name": "depositMoney",
      "outputs": [],
      "stateMutability": "payable",
      "type": "function",
      "payable": true
    },
    {
      "inputs": [],
      "name": "getOutcomeHash",
      "outputs": [
        {
          "internalType": "bytes32",
          "name": "",
          "type": "bytes32"
        }
      ],
      "stateMutability": "nonpayable",
      "type": "function"
    },
    {
      "inputs": [
        {
          "internalType": "uint256[][]",
          "name": "_bets",
          "type": "uint256[][]"
        }
      ],
      "name": "placeBet",
      "outputs": [],
      "stateMutability": "payable",
      "type": "function",
      "payable": true
    },
    {
      "inputs": [],
      "name": "spinWheel",
      "outputs": [
        {
          "internalType": "uint256",
          "name": "",
          "type": "uint256"
        }
      ],
      "stateMutability": "payable",
      "type": "function",
      "payable": true
    },
    {
      "inputs": [],
      "name": "revealWinningNumber",
      "outputs": [
        {
          "internalType": "uint256",
          "name": "",
          "type": "uint256"
        }
      ],
      "stateMutability": "view",
      "type": "function",
      "constant": true
    },
    {
      "inputs": [],
      "name": "getBalance",
      "outputs": [
        {
          "internalType": "uint256",
          "name": "",
          "type": "uint256"
        }
      ],
      "stateMutability": "view",
      "type": "function",
      "constant": true
    },
    {
      "inputs": [],
      "name": "seeBets",
      "outputs": [
        {
          "components": [
            {
              "internalType": "uint256[]",
              "name": "numbers",
              "type": "uint256[]"
            },
            {
              "internalType": "uint256",
              "name": "multiplier",
              "type": "uint256"
            },
            {
              "internalType": "uint256",
              "name": "betAmount",
              "type": "uint256"
            }
          ],
          "internalType": "struct Roullette.Bet[]",
          "name": "",
          "type": "tuple[]"
        }
      ],
      "stateMutability": "view",
      "type": "function",
      "constant": true
    },
    {
      "inputs": [],
      "name": "seePlayerWinnings",
      "outputs": [
        {
          "internalType": "int256",
          "name": "",
          "type": "int256"
        }
      ],
      "stateMutability": "view",
      "type": "function",
      "constant": true
    },
    {
      "inputs": [
        {
          "internalType": "uint256",
          "name": "index",
          "type": "uint256"
        }
      ],
      "name": "removeBet",
      "outputs": [],
      "stateMutability": "nonpayable",
      "type": "function"
    }
  ],
  "bytecode": "0x6080604052600060035566038d7ea4c6800060045530600560006101000a81548173ffffffffffffffffffffffffffffffffffffffff021916908373ffffffffffffffffffffffffffffffffffffffff1602179055506000801b60065560266007556000600a60006101000a81548160ff02191690831515021790555033600260006101000a81548173ffffffffffffffffffffffffffffffffffffffff021916908373ffffffffffffffffffffffffffffffffffffffff160217905550611ef4806100cc6000396000f3fe6080604052600436106100955760003560e01c80636e93cfa2116100595780636e93cfa21461014557806373b31cc2146101705780637a0d819e1461018c5780639fb40dee146101b7578063bce5008c146101e25761009c565b806312065fe01461009e57806315ecef92146100c9578063161ebe55146100e757806316c05aa2146101125780635c2029a91461011c5761009c565b3661009c57005b005b3480156100aa57600080fd5b506100b361020d565b6040516100c09190611cec565b60405180910390f35b6100d1610215565b6040516100de9190611cec565b60405180910390f35b3480156100f357600080fd5b506100fc610298565b6040516101099190611b74565b60405180910390f35b61011a6103a2565b005b34801561012857600080fd5b50610143600480360381019061013e919061164d565b61043f565b005b34801561015157600080fd5b5061015a610665565b6040516101679190611cec565b60405180910390f35b61018a6004803603810190610185919061160c565b61066f565b005b34801561019857600080fd5b506101a1610975565b6040516101ae9190611cec565b60405180910390f35b3480156101c357600080fd5b506101cc61097b565b6040516101d99190611b96565b60405180910390f35b3480156101ee57600080fd5b506101f7610a68565b6040516102049190611bb1565b60405180910390f35b600047905090565b6000600654600754600954604051602001610231929190611b48565b6040516020818303038152906040528051906020012014610287576040517f08c379a000000000000000000000000000000000000000000000000000000000815260040161027e90611ccc565b60405180910390fd5b61029033610ab1565b600754905090565b60606000803373ffffffffffffffffffffffffffffffffffffffff1673ffffffffffffffffffffffffffffffffffffffff168152602001908152602001600020600101805480602002602001604051908101604052809291908181526020016000905b8282101561039957838290600052602060002090600302016040518060600160405290816000820180548060200260200160405190810160405280929190818152602001828054801561036d57602002820191906000526020600020905b815481526020019060010190808311610359575b5050505050815260200160018201548152602001600282015481525050815260200190600101906102fb565b50505050905090565b600260009054906101000a900473ffffffffffffffffffffffffffffffffffffffff1673ffffffffffffffffffffffffffffffffffffffff163373ffffffffffffffffffffffffffffffffffffffff1614610432576040517f08c379a000000000000000000000000000000000000000000000000000000000815260040161042990611c8c565b60405180910390fd5b3460035401600381905550565b60003390506000808273ffffffffffffffffffffffffffffffffffffffff1673ffffffffffffffffffffffffffffffffffffffff1681526020019081526020016000206001018054905082106104955750610662565b60008290505b60016000808473ffffffffffffffffffffffffffffffffffffffff1673ffffffffffffffffffffffffffffffffffffffff16815260200190815260200160002060010180549050038110156105dc576000808373ffffffffffffffffffffffffffffffffffffffff1673ffffffffffffffffffffffffffffffffffffffff168152602001908152602001600020600101600182018154811061053957fe5b90600052602060002090600302016000808473ffffffffffffffffffffffffffffffffffffffff1673ffffffffffffffffffffffffffffffffffffffff168152602001908152602001600020600101828154811061059357fe5b906000526020600020906003020160008201816000019080546105b792919061141b565b506001820154816001015560028201548160020155905050808060010191505061049b565b506000808273ffffffffffffffffffffffffffffffffffffffff1673ffffffffffffffffffffffffffffffffffffffff16815260200190815260200160002060010180548061062757fe5b60019003818190600052602060002090600302016000808201600061064c919061146d565b6001820160009055600282016000905550509055505b50565b6000600754905090565b6000339050600260009054906101000a900473ffffffffffffffffffffffffffffffffffffffff1673ffffffffffffffffffffffffffffffffffffffff168173ffffffffffffffffffffffffffffffffffffffff161415610705576040517f08c379a00000000000000000000000000000000000000000000000000000000081526004016106fc90611c6c565b60405180910390fd5b600354602434021061074c576040517f08c379a000000000000000000000000000000000000000000000000000000000815260040161074390611c4c565b60405180910390fd5b6001341015610790576040517f08c379a000000000000000000000000000000000000000000000000000000000815260040161078790611bec565b60405180910390fd5b6004543411156107d5576040517f08c379a00000000000000000000000000000000000000000000000000000000081526004016107cc90611cac565b60405180910390fd5b6000808273ffffffffffffffffffffffffffffffffffffffff1673ffffffffffffffffffffffffffffffffffffffff16815260200190815260200160002060000160149054906101000a900460ff16610966576001339080600181540180825580915050600190039060005260206000200160009091909190916101000a81548173ffffffffffffffffffffffffffffffffffffffff021916908373ffffffffffffffffffffffffffffffffffffffff160217905550336000808373ffffffffffffffffffffffffffffffffffffffff1673ffffffffffffffffffffffffffffffffffffffff16815260200190815260200160002060000160006101000a81548173ffffffffffffffffffffffffffffffffffffffff021916908373ffffffffffffffffffffffffffffffffffffffff16021790555060016000808373ffffffffffffffffffffffffffffffffffffffff1673ffffffffffffffffffffffffffffffffffffffff16815260200190815260200160002060000160146101000a81548160ff0219169083151502179055505b610971818334610d7b565b5050565b60035481565b60008060001b600654146109c4576040517f08c379a00000000000000000000000000000000000000000000000000000000081526004016109bb90611c2c565b60405180910390fd5b602642336040516020016109d9929190611b1c565b6040516020818303038152906040528051906020012060001c816109f957fe5b0660078190555042604051602001610a119190611b01565b60405160208183030381529060405280519060200120600981905550600754600954604051602001610a44929190611b48565b60405160208183030381529060405280519060200120600681905550600654905090565b60008060003373ffffffffffffffffffffffffffffffffffffffff1673ffffffffffffffffffffffffffffffffffffffff16815260200190815260200160002060020154905090565b6000809050600080600090505b6000808573ffffffffffffffffffffffffffffffffffffffff1673ffffffffffffffffffffffffffffffffffffffff16815260200190815260200160002060010180549050811015610d4f57600080905060008090505b6000808773ffffffffffffffffffffffffffffffffffffffff1673ffffffffffffffffffffffffffffffffffffffff1681526020019081526020016000206001018381548110610b6157fe5b906000526020600020906003020160000180549050811015610cd0576007546000808873ffffffffffffffffffffffffffffffffffffffff1673ffffffffffffffffffffffffffffffffffffffff1681526020019081526020016000206001018481548110610bcc57fe5b90600052602060002090600302016000018281548110610be857fe5b90600052602060002001541415610cc3576000808773ffffffffffffffffffffffffffffffffffffffff1673ffffffffffffffffffffffffffffffffffffffff1681526020019081526020016000206001018381548110610c4557fe5b9060005260206000209060030201600201546000808873ffffffffffffffffffffffffffffffffffffffff1673ffffffffffffffffffffffffffffffffffffffff1681526020019081526020016000206001018481548110610ca357fe5b906000526020600020906003020160010154028501945060019150610cd0565b8080600101915050610b15565b50600015158115151415610d41576000808673ffffffffffffffffffffffffffffffffffffffff1673ffffffffffffffffffffffffffffffffffffffff1681526020019081526020016000206001018281548110610d2a57fe5b906000526020600020906003020160020154830192505b508080600101915050610abe565b50610d5981611015565b610d638284611023565b610d6e828285611142565b610d766111d2565b505050565b600080905060008351905060008090505b81811015610dcd57848181518110610da057fe5b6020026020010151600081518110610db457fe5b6020026020010151830192508080600101915050610d8c565b50828214610e10576040517f08c379a0000000000000000000000000000000000000000000000000000000008152600401610e0790611bcc565b60405180910390fd5b60008090505b8181101561100d576000858281518110610e2c57fe5b6020026020010151600081518110610e4057fe5b6020026020010151905060006001878481518110610e5a57fe5b60200260200101515103602481610e6d57fe5b04905060606001888581518110610e8057fe5b6020026020010151510367ffffffffffffffff81118015610ea057600080fd5b50604051908082528060200260200182016040528015610ecf5781602001602082028036833780820191505090505b5090506000600190505b888581518110610ee557fe5b602002602001015151811015610f4457888581518110610f0157fe5b60200260200101518181518110610f1457fe5b6020026020010151826001830381518110610f2b57fe5b6020026020010181815250508080600101915050610ed9565b506000808a73ffffffffffffffffffffffffffffffffffffffff1673ffffffffffffffffffffffffffffffffffffffff16815260200190815260200160002060010160405180606001604052808381526020018481526020018581525090806001815401808255809150506001900390600052602060002090600302016000909190919091506000820151816000019080519060200190610fe692919061148e565b50602082015181600101556040820151816002015550505050508080600101915050610e16565b505050505050565b806003540160038190555050565b81600354036003819055506110996000808373ffffffffffffffffffffffffffffffffffffffff1673ffffffffffffffffffffffffffffffffffffffff16815260200190815260200160002060000160009054906101000a900473ffffffffffffffffffffffffffffffffffffffff1683611366565b60008060008373ffffffffffffffffffffffffffffffffffffffff1673ffffffffffffffffffffffffffffffffffffffff16815260200190815260200160002060010180549050905060008090505b8181101561113c576000808473ffffffffffffffffffffffffffffffffffffffff1673ffffffffffffffffffffffffffffffffffffffff1681526020019081526020016000205080806001019150506110e8565b50505050565b8183036000808373ffffffffffffffffffffffffffffffffffffffff1673ffffffffffffffffffffffffffffffffffffffff16815260200190815260200160002060020154016000808373ffffffffffffffffffffffffffffffffffffffff1673ffffffffffffffffffffffffffffffffffffffff16815260200190815260200160002060020181905550505050565b6000801b60065414156111e457600080fd5b6000801b600681905550600754600881905550602660078190555060008090505b600180549050811015611363575b60008060006001848154811061122557fe5b9060005260206000200160009054906101000a900473ffffffffffffffffffffffffffffffffffffffff1673ffffffffffffffffffffffffffffffffffffffff1673ffffffffffffffffffffffffffffffffffffffff16815260200190815260200160002060010180549050111561135657600080600183815481106112a757fe5b9060005260206000200160009054906101000a900473ffffffffffffffffffffffffffffffffffffffff1673ffffffffffffffffffffffffffffffffffffffff1673ffffffffffffffffffffffffffffffffffffffff16815260200190815260200160002060010180548061131857fe5b60019003818190600052602060002090600302016000808201600061133d919061146d565b6001820160009055600282016000905550509055611213565b8080600101915050611205565b50565b600060608373ffffffffffffffffffffffffffffffffffffffff168360405161138e90611aec565b60006040518083038185875af1925050503d80600081146113cb576040519150601f19603f3d011682016040523d82523d6000602084013e6113d0565b606091505b509150915081611415576040517f08c379a000000000000000000000000000000000000000000000000000000000815260040161140c90611c0c565b60405180910390fd5b50505050565b82805482825590600052602060002090810192821561145c5760005260206000209182015b8281111561145b578254825591600101919060010190611440565b5b50905061146991906114db565b5090565b508054600082559060005260206000209081019061148b91906114db565b50565b8280548282559060005260206000209081019282156114ca579160200282015b828111156114c95782518255916020019190600101906114ae565b5b5090506114d791906114db565b5090565b6114fd91905b808211156114f95760008160009055506001016114e1565b5090565b90565b600082601f83011261151157600080fd5b813561152461151f82611d34565b611d07565b9150818183526020840193506020810190508360005b8381101561156a57813586016115508882611574565b84526020840193506020830192505060018101905061153a565b5050505092915050565b600082601f83011261158557600080fd5b813561159861159382611d5c565b611d07565b915081818352602084019350602081019050838560208402820111156115bd57600080fd5b60005b838110156115ed57816115d388826115f7565b8452602084019350602083019250506001810190506115c0565b5050505092915050565b60008135905061160681611ea7565b92915050565b60006020828403121561161e57600080fd5b600082013567ffffffffffffffff81111561163857600080fd5b61164484828501611500565b91505092915050565b60006020828403121561165f57600080fd5b600061166d848285016115f7565b91505092915050565b60006116828383611a67565b905092915050565b60006116968383611ab7565b60208301905092915050565b6116b36116ae82611e12565b611e62565b82525050565b60006116c482611da4565b6116ce8185611dd4565b9350836020820285016116e085611d84565b8060005b8581101561171c57848403895281516116fd8582611676565b945061170883611dba565b925060208a019950506001810190506116e4565b50829750879550505050505092915050565b600061173982611daf565b6117438185611de5565b935061174e83611d94565b8060005b8381101561177f578151611766888261168a565b975061177183611dc7565b925050600181019050611752565b5085935050505092915050565b61179581611e24565b82525050565b6117ac6117a782611e24565b611e74565b82525050565b6117bb81611e2e565b82525050565b60006117ce602783611e01565b91507f42657420616d6f756e74206e6f74206571756976616c656e7420746f20746f7460008301527f616c2062657473000000000000000000000000000000000000000000000000006020830152604082019050919050565b6000611834601c83611e01565b91507f42657473206d75737420626520206174206c65617374203120776569000000006000830152602082019050919050565b6000611874601483611e01565b91507f4661696c656420746f2073656e642045746865720000000000000000000000006000830152602082019050919050565b60006118b4601483611e01565b91507f4861736820616c726561647920637265617465640000000000000000000000006000830152602082019050919050565b60006118f4601783611e01565b91507f436173696e6f2063616e6e6f7420636f766572206265740000000000000000006000830152602082019050919050565b6000611934601983611e01565b91507f436173696e6f2063616e6e6f74206265206120706c61796572000000000000006000830152602082019050919050565b6000611974602183611e01565b91507f4f6e6c792074686520636173696e6f2063616e206465706f736974206d6f6e6560008301527f79000000000000000000000000000000000000000000000000000000000000006020830152604082019050919050565b60006119da601083611e01565b91507f4d617820626574206578636565646564000000000000000000000000000000006000830152602082019050919050565b6000611a1a600083611df6565b9150600082019050919050565b6000611a34601283611e01565b91507f4861736820646f65736e2774206d6174636800000000000000000000000000006000830152602082019050919050565b60006060830160008301518482036000860152611a84828261172e565b9150506020830151611a996020860182611ab7565b506040830151611aac6040860182611ab7565b508091505092915050565b611ac081611e58565b82525050565b611acf81611e58565b82525050565b611ae6611ae182611e58565b611e90565b82525050565b6000611af782611a0d565b9150819050919050565b6000611b0d8284611ad5565b60208201915081905092915050565b6000611b288285611ad5565b602082019150611b3882846116a2565b6014820191508190509392505050565b6000611b548285611ad5565b602082019150611b64828461179b565b6020820191508190509392505050565b60006020820190508181036000830152611b8e81846116b9565b905092915050565b6000602082019050611bab600083018461178c565b92915050565b6000602082019050611bc660008301846117b2565b92915050565b60006020820190508181036000830152611be5816117c1565b9050919050565b60006020820190508181036000830152611c0581611827565b9050919050565b60006020820190508181036000830152611c2581611867565b9050919050565b60006020820190508181036000830152611c45816118a7565b9050919050565b60006020820190508181036000830152611c65816118e7565b9050919050565b60006020820190508181036000830152611c8581611927565b9050919050565b60006020820190508181036000830152611ca581611967565b9050919050565b60006020820190508181036000830152611cc5816119cd565b9050919050565b60006020820190508181036000830152611ce581611a27565b9050919050565b6000602082019050611d016000830184611ac6565b92915050565b6000604051905081810181811067ffffffffffffffff82111715611d2a57600080fd5b8060405250919050565b600067ffffffffffffffff821115611d4b57600080fd5b602082029050602081019050919050565b600067ffffffffffffffff821115611d7357600080fd5b602082029050602081019050919050565b6000819050602082019050919050565b6000819050602082019050919050565b600081519050919050565b600081519050919050565b6000602082019050919050565b6000602082019050919050565b600082825260208201905092915050565b600082825260208201905092915050565b600081905092915050565b600082825260208201905092915050565b6000611e1d82611e38565b9050919050565b6000819050919050565b6000819050919050565b600073ffffffffffffffffffffffffffffffffffffffff82169050919050565b6000819050919050565b6000611e6d82611e7e565b9050919050565b6000819050919050565b6000611e8982611e9a565b9050919050565b6000819050919050565b60008160601b9050919050565b611eb081611e58565b8114611ebb57600080fd5b5056fea2646970667358221220840efb6f581c20674313b49a3feb014a3046579ae875e4ab1846a20db59747c464736f6c63430006060033",
  "immutableReferences": {},
  "source": "pragma solidity ^0.6.6;\npragma experimental ABIEncoderV2;\n\n\ncontract Roullette { \n    \n    struct Bet {\n        uint256[] numbers;\n        uint256 multiplier;\n        uint256 betAmount;\n    }\n    \n    struct Player {\n        address payable playerAddress;\n        bool playerExists; // Whether the player has already been added to map and array;\n        bool win; // Whether the player won or lost\n        // bool gameInProgress; // Whether the player is currently playing a game\n        // uint256 result;\n        Bet[] bets;\n        int256 totalWinnings; // Keeps track of player balance\n    }\n    \n\n    // struct Game {\n    //     Player[] playersInGame;\n    //     uint256 gameTimeOut;\n    //     uint256 winningNumber;\n    //     mapping(address => player) playersInGame;\n    // }\n    \n    // mapping(uint256 => Game) gameMap;\n    \n    mapping(address => Player) playerMap; // Map containing all players playing the game (this is not iterable)\n    address[] playerAddressArray; // Array of all players addresses of players playing the game (this is iterable)\n    address payable casino;  // Address of the casino, will not change after contract is deployed\n    uint256 public casinoDeposit = 0; // Value of the casino deposit\n    uint256 maxBet = .001 ether; \n    address payable contractAddress = address(this);  // Address of this contract\n    bytes32 commitHash = 0;\n    uint256 winningNumber = 38;\n    uint256 lastWinningNumber;\n    bytes32 nonce;\n    // uint256 gameTimeOut;\n    bool wheelSpun = false;\n    \n    constructor () public payable{\n        // Casino initiates the contract\n        casino = msg.sender;\n    }\n    \n    // Function to receive Ether. msg.data must be empty\n    receive() external payable {}\n\n    // Fallback function is called when msg.data is not empty\n    fallback() external payable {}\n    \n    // Function to send a value of money to an address\n    function sendViaCall(address payable _to, uint256 _amount) internal {\n        (bool sent, bytes memory data) = _to.call{value: _amount}(\"\"); \n        require(sent, \"Failed to send Ether\");\n    }\n    \n    // Function for the casino to deposit money, must be called for the rest of the contract to work\n    function depositMoney() public payable {\n        require(msg.sender == casino, \"Only the casino can deposit money\");\n        casinoDeposit = casinoDeposit + msg.value;\n    }\n    \n    \n    // How can we automate this?\n    function getOutcomeHash() public returns (bytes32) {\n        require (commitHash == 0, \"Hash already created\");\n        winningNumber = uint256(keccak256(abi.encodePacked(now, msg.sender))) % 38;\n        nonce = keccak256(abi.encodePacked(now));\n        commitHash = keccak256(abi.encodePacked(winningNumber, nonce));\n        // gameTimeOut = now + 1 minutes;\n        return commitHash;\n    }\n    \n    // Function for the casino to match the bet amount\n    function matchBet(uint256 _betAmount) internal {\n        casinoDeposit = casinoDeposit - _betAmount; // bet amount is deducted from casinoDeposit and but remains in the contract balance\n    }\n    \n    function placeBet(uint256[][] memory _bets) public payable {\n        // require (now < gameTimeOut, \"Betting period has ended\");\n        address _playerAddress = msg.sender;\n        require(_playerAddress != casino, \"Casino cannot be a player\");\n        require(msg.value * 36 < casinoDeposit, \"Casino cannot cover bet\"); // Bet must be less than the money in the casino deposit to ensure casino can cover the bet\n        require(msg.value >= 1 wei, \"Bets must be  at least 1 wei\"); // Must be greater or equal to minimum bet of 1 wei\n        require(msg.value <= maxBet, \"Max bet exceeded\"); // Must be less than or equal to max bet of .001 ether\n        \n        if( !playerMap[_playerAddress].playerExists) { // If player is new\n            playerAddressArray.push(msg.sender); // Add player address to array of player addresses\n            playerMap[_playerAddress].playerAddress = msg.sender; \n            playerMap[_playerAddress].playerExists = true;\n        }\n        \n        setBet(_playerAddress, _bets, msg.value);\n    }\n    \n    function spinWheel() public payable returns (uint256){\n        // require(now > gameTimeOut, \"Must wait for betting to end\"); \n        require(keccak256(abi.encodePacked(winningNumber, nonce)) ==  commitHash, \"Hash doesn't match\"); // Ensures winning number was not changed\n        payout(msg.sender);\n        return winningNumber;\n    }\n    \n    function revealWinningNumber() public view returns (uint256)  {\n        // require (gameTimeOut > now, \"Betting still in progress\");\n        return winningNumber;\n    }\n    \n    function payout(address _playerAddress) internal{\n        uint256 winAmount = 0;\n        uint256 loseAmount;\n        for(uint256 i = 0; i < playerMap[_playerAddress].bets.length; i++){ // Loop through players bets\n            bool win = false;\n            for(uint256 j = 0; j < playerMap[_playerAddress].bets[i].numbers.length; j++){ // Loop through every number in the bet\n                \n                if(playerMap[_playerAddress].bets[i].numbers[j] == winningNumber){ // Check if any are winning number\n                    winAmount = winAmount + playerMap[_playerAddress].bets[i].multiplier * playerMap[_playerAddress].bets[i].betAmount;\n                    win = true;\n                    break;\n                }\n            }\n            if (win == false){\n                loseAmount = loseAmount + playerMap[_playerAddress].bets[i].betAmount;\n            }\n        }\n        payCasino(loseAmount);\n        payPlayer(winAmount, _playerAddress);\n        updateWinnings(winAmount, loseAmount, _playerAddress);\n        gameReset();\n    }\n    \n    function setBet(address _playerAddress, uint256[][] memory _bets, uint256 _betTotal) internal{\n        // Sample Bets [[100,1,2,3,4],[100,20],[100,1,2,3,4,5,6,7,8,9,10,11,12]]\n        uint256 betTotal = 0;\n        uint256 n = _bets.length;\n        for(uint i = 0; i < n; i++){\n            betTotal += _bets[i][0];\n        }\n        require(betTotal == _betTotal, \"Bet amount not equivalent to total bets\");\n        for(uint i = 0; i < n; i++){\n            uint256  betAmount = _bets[i][0];\n            uint256 multiplier = 36/(_bets[i].length - 1);\n            uint256[] memory numbers = new uint256[](_bets[i].length - 1);\n            for(uint j = 1; j < _bets[i].length; j++){\n                numbers[j-1]= _bets[i][j];\n            //     playerMap[_playerAddress].bets[i].numbers[j- 1] = _bets[i][j];\n            }\n            \n            playerMap[_playerAddress].bets.push(Bet(numbers,multiplier,betAmount));\n            // playerMap[_playerAddress].bets[i].betAmount = _bets[i][0];\n            // playerMap[_playerAddress].bets[i].multiplier = 36/(_bets[i].length - 1);\n            //     for(uint j = 1; j < _bets[i].length; j++){\n            //     playerMap[_playerAddress].bets[i].numbers[j- 1] = _bets[i][j];\n            //     }\n        }\n    }\n    \n    function payCasino(uint256 amount) internal{\n        casinoDeposit = casinoDeposit + amount;\n    }\n    \n    function payPlayer(uint256 amount, address _playerAddress) internal{\n        casinoDeposit = casinoDeposit - amount;\n        sendViaCall(playerMap[_playerAddress].playerAddress, amount);\n        uint256 numberOfBets = playerMap[_playerAddress].bets.length;\n        for(uint256 i = 0; i < numberOfBets; i++){\n            playerMap[_playerAddress].bets.pop;\n        }\n    }\n    \n    // Funtion to return total balance of the contract which is casinoDeposit + all bets currently on the table\n    function getBalance() public view returns (uint) {\n        return address(this).balance;\n    }\n    \n    // See current players bets\n    function seeBets() public view returns (Bet[] memory){\n        return playerMap[msg.sender].bets;\n    }\n    \n    function seePlayerWinnings() public view returns (int256){\n        return playerMap[msg.sender].totalWinnings;\n    }\n    \n    function updateWinnings(uint256 winAmount, uint256 loseAmount, address _playerAddress) internal{\n        playerMap[_playerAddress].totalWinnings = playerMap[_playerAddress].totalWinnings + int256(winAmount - loseAmount);\n    }\n    \n    // Automate this?\n    function gameReset() internal{\n        require(commitHash != 0);\n        commitHash = 0;\n        lastWinningNumber = winningNumber;\n        winningNumber = 38;\n        for (uint i = 0; i < playerAddressArray.length; i++){\n            while(playerMap[playerAddressArray[i]].bets.length > 0){\n                playerMap[playerAddressArray[i]].bets.pop();\n            }\n        }\n    }\n    \n    function removeBet(uint index) public {\n        address _playerAddress = msg.sender;\n        if (index >= playerMap[_playerAddress].bets.length) return ;\n        for (uint i = index; i< playerMap[_playerAddress].bets.length - 1; i++){\n            playerMap[_playerAddress].bets[i] = playerMap[_playerAddress].bets[i+1];\n        }\n        playerMap[_playerAddress].bets.pop();\n    }\n    \n    \n}",
  "sourcePath": "/Users/MMayaguari/Documents/GitHub/EthereumRoullette/dapp/contracts/Roullette.sol",
  "compiler": {
    "name": "solc",
    "version": "0.6.6+commit.6c089d02.Emscripten.clang"
  },
  "schemaVersion": "3.3.4",
  "updatedAt": "2021-04-03T15:54:26.875Z",
  "networkType": "ethereum",
  "devdoc": {
    "methods": {}
  },
  "userdoc": {
    "methods": {}
  }
}