{
  "contractName": "Roulette",
  "abi": [
    {
      "inputs": [],
      "stateMutability": "payable",
      "type": "constructor",
      "payable": true
    },
    {
      "anonymous": false,
      "inputs": [],
      "name": "bettingPhaseClosed",
      "type": "event"
    },
    {
      "anonymous": false,
      "inputs": [],
      "name": "bettingPhaseOpen",
      "type": "event"
    },
    {
      "stateMutability": "payable",
      "type": "fallback",
      "payable": true
    },
    {
      "inputs": [],
      "name": "commitHash",
      "outputs": [
        {
          "internalType": "bytes32",
          "name": "",
          "type": "bytes32"
        }
      ],
      "stateMutability": "view",
      "type": "function",
      "constant": true
    },
    {
      "stateMutability": "payable",
      "type": "receive",
      "payable": true
    },
    {
      "inputs": [],
      "name": "depositMoney",
      "outputs": [],
      "stateMutability": "payable",
      "type": "function",
      "payable": true
    },
    {
      "inputs": [],
      "name": "getCasinoDeposit",
      "outputs": [
        {
          "internalType": "uint256",
          "name": "",
          "type": "uint256"
        }
      ],
      "stateMutability": "view",
      "type": "function",
      "constant": true
    },
    {
      "inputs": [],
      "name": "getCommitmentHash",
      "outputs": [
        {
          "internalType": "bytes32",
          "name": "",
          "type": "bytes32"
        }
      ],
      "stateMutability": "view",
      "type": "function",
      "constant": true
    },
    {
      "inputs": [
        {
          "internalType": "uint256",
          "name": "amount",
          "type": "uint256"
        }
      ],
      "name": "withdrawCasinoDeposit",
      "outputs": [],
      "stateMutability": "nonpayable",
      "type": "function"
    },
    {
      "inputs": [
        {
          "internalType": "bytes32",
          "name": "_outcomeHash",
          "type": "bytes32"
        }
      ],
      "name": "setCommitmentHash",
      "outputs": [
        {
          "internalType": "bytes32",
          "name": "",
          "type": "bytes32"
        }
      ],
      "stateMutability": "nonpayable",
      "type": "function"
    },
    {
      "inputs": [
        {
          "internalType": "uint256[][]",
          "name": "_bets",
          "type": "uint256[][]"
        }
      ],
      "name": "placeBet",
      "outputs": [],
      "stateMutability": "payable",
      "type": "function",
      "payable": true
    },
    {
      "inputs": [
        {
          "internalType": "uint256",
          "name": "_winningNumber",
          "type": "uint256"
        },
        {
          "internalType": "bytes32",
          "name": "_nonce",
          "type": "bytes32"
        }
      ],
      "name": "revealWinningNumber",
      "outputs": [
        {
          "internalType": "uint256",
          "name": "",
          "type": "uint256"
        }
      ],
      "stateMutability": "payable",
      "type": "function",
      "payable": true
    },
    {
      "inputs": [],
      "name": "WinningNumber",
      "outputs": [
        {
          "internalType": "uint256",
          "name": "",
          "type": "uint256"
        }
      ],
      "stateMutability": "view",
      "type": "function",
      "constant": true
    },
    {
      "inputs": [],
      "name": "getBalance",
      "outputs": [
        {
          "internalType": "uint256",
          "name": "",
          "type": "uint256"
        }
      ],
      "stateMutability": "view",
      "type": "function",
      "constant": true
    },
    {
      "inputs": [],
      "name": "seeBets",
      "outputs": [
        {
          "components": [
            {
              "internalType": "uint256[]",
              "name": "numbers",
              "type": "uint256[]"
            },
            {
              "internalType": "uint256",
              "name": "multiplier",
              "type": "uint256"
            },
            {
              "internalType": "uint256",
              "name": "betAmount",
              "type": "uint256"
            }
          ],
          "internalType": "struct Roulette.Bet[]",
          "name": "",
          "type": "tuple[]"
        }
      ],
      "stateMutability": "view",
      "type": "function",
      "constant": true
    },
    {
      "inputs": [],
      "name": "seePlayerWinnings",
      "outputs": [
        {
          "internalType": "int256",
          "name": "",
          "type": "int256"
        }
      ],
      "stateMutability": "view",
      "type": "function",
      "constant": true
    },
    {
      "inputs": [],
      "name": "gameReset",
      "outputs": [],
      "stateMutability": "nonpayable",
      "type": "function"
    },
    {
      "inputs": [
        {
          "internalType": "uint256",
          "name": "index",
          "type": "uint256"
        }
      ],
      "name": "removeBet",
      "outputs": [],
      "stateMutability": "nonpayable",
      "type": "function"
    },
    {
      "inputs": [],
      "name": "getGameState",
      "outputs": [
        {
          "internalType": "string",
          "name": "",
          "type": "string"
        }
      ],
      "stateMutability": "view",
      "type": "function",
      "constant": true
    },
    {
      "inputs": [],
      "name": "getLastGameResults",
      "outputs": [
        {
          "internalType": "bool",
          "name": "",
          "type": "bool"
        },
        {
          "internalType": "int256",
          "name": "",
          "type": "int256"
        },
        {
          "internalType": "uint256",
          "name": "",
          "type": "uint256"
        },
        {
          "internalType": "bytes32",
          "name": "",
          "type": "bytes32"
        },
        {
          "internalType": "bytes32",
          "name": "",
          "type": "bytes32"
        }
      ],
      "stateMutability": "view",
      "type": "function",
      "constant": true
    }
  ],
  "bytecode": "0x6080604052600060035566038d7ea4c6800060045530600560006101000a81548173ffffffffffffffffffffffffffffffffffffffff021916908373ffffffffffffffffffffffffffffffffffffffff1602179055506000801b60065560266007556000600a60006101000a81548160ff0219169083151502179055506000600c60006101000a81548160ff0219169083151502179055506001600c60016101000a81548160ff0219169083151502179055506000600c60026101000a81548160ff02191690831515021790555033600260006101000a81548173ffffffffffffffffffffffffffffffffffffffff021916908373ffffffffffffffffffffffffffffffffffffffff160217905550613a488061011d6000396000f3fe6080604052600436106100f75760003560e01c806373b31cc21161008a578063bce5008c11610059578063bce5008c146102d4578063d14f6c06146102ff578063ebfa46d31461032a578063ec867c3514610353576100fe565b806373b31cc2146102375780637556e7bf14610253578063857c1c9a1461027e578063b7d0628b146102a9576100fe565b80634c2cbde7116100c65780634c2cbde7146101775780635c2029a9146101b45780636f2e5698146101dd578063712c352d14610208576100fe565b8063088736561461010057806312065fe014610117578063161ebe551461014257806316c05aa21461016d576100fe565b366100fe57005b005b34801561010c57600080fd5b50610115610383565b005b34801561012357600080fd5b5061012c61069f565b6040516101399190613857565b60405180910390f35b34801561014e57600080fd5b506101576106a7565b604051610164919061358a565b60405180910390f35b6101756107b1565b005b34801561018357600080fd5b5061019e60048036038101906101999190612d4a565b61087a565b6040516101ab91906135ff565b60405180910390f35b3480156101c057600080fd5b506101db60048036038101906101d69190612d73565b610a15565b005b3480156101e957600080fd5b506101f2610c3b565b6040516101ff9190613857565b60405180910390f35b34801561021457600080fd5b5061021d610c45565b60405161022e9594939291906135ac565b60405180910390f35b610251600480360381019061024c9190612d05565b610cf8565b005b34801561025f57600080fd5b50610268610fa5565b60405161027591906135ff565b60405180910390f35b34801561028a57600080fd5b50610293610faf565b6040516102a091906135ff565b60405180910390f35b3480156102b557600080fd5b506102be610fb5565b6040516102cb9190613635565b60405180910390f35b3480156102e057600080fd5b506102e96110b3565b6040516102f6919061361a565b60405180910390f35b34801561030b57600080fd5b506103146110fc565b6040516103219190613857565b60405180910390f35b34801561033657600080fd5b50610351600480360381019061034c9190612d73565b611155565b005b61036d60048036038101906103689190612d9c565b6111fd565b60405161037a9190613857565b60405180910390f35b600260009054906101000a900473ffffffffffffffffffffffffffffffffffffffff1673ffffffffffffffffffffffffffffffffffffffff163373ffffffffffffffffffffffffffffffffffffffff1614610413576040517f08c379a000000000000000000000000000000000000000000000000000000000815260040161040a906136f7565b60405180910390fd5b600c60019054906101000a900460ff16610462576040517f08c379a000000000000000000000000000000000000000000000000000000000815260040161045990613837565b60405180910390fd5b6000600c60016101000a81548160ff0219169083151502179055506001600c60026101000a81548160ff0219169083151502179055506000801b600681905550602660078190555060005b60018054905081101561069c575b6000806000600184815481106104cd57fe5b9060005260206000200160009054906101000a900473ffffffffffffffffffffffffffffffffffffffff1673ffffffffffffffffffffffffffffffffffffffff1673ffffffffffffffffffffffffffffffffffffffff1681526020019081526020016000206002018054905011156105fe576000806001838154811061054f57fe5b9060005260206000200160009054906101000a900473ffffffffffffffffffffffffffffffffffffffff1673ffffffffffffffffffffffffffffffffffffffff1673ffffffffffffffffffffffffffffffffffffffff1681526020019081526020016000206002018054806105c057fe5b6001900381819060005260206000209060030201600080820160006105e59190612bb4565b60018201600090556002820160009055505090556104bb565b60008060006001848154811061061057fe5b9060005260206000200160009054906101000a900473ffffffffffffffffffffffffffffffffffffffff1673ffffffffffffffffffffffffffffffffffffffff1673ffffffffffffffffffffffffffffffffffffffff16815260200190815260200160002060000160156101000a81548160ff02191690831515021790555080806001019150506104ad565b50565b600047905090565b60606000803373ffffffffffffffffffffffffffffffffffffffff1673ffffffffffffffffffffffffffffffffffffffff168152602001908152602001600020600201805480602002602001604051908101604052809291908181526020016000905b828210156107a857838290600052602060002090600302016040518060600160405290816000820180548060200260200160405190810160405280929190818152602001828054801561077c57602002820191906000526020600020905b815481526020019060010190808311610768575b50505050508152602001600182015481526020016002820154815250508152602001906001019061070a565b50505050905090565b600260009054906101000a900473ffffffffffffffffffffffffffffffffffffffff1673ffffffffffffffffffffffffffffffffffffffff163373ffffffffffffffffffffffffffffffffffffffff1614610841576040517f08c379a000000000000000000000000000000000000000000000000000000000815260040161083890613777565b60405180910390fd5b3460035401600381905550610878600560009054906101000a900473ffffffffffffffffffffffffffffffffffffffff1634611390565b565b6000600c60029054906101000a900460ff166108cb576040517f08c379a00000000000000000000000000000000000000000000000000000000081526004016108c290613797565b60405180910390fd5b600260009054906101000a900473ffffffffffffffffffffffffffffffffffffffff1673ffffffffffffffffffffffffffffffffffffffff163373ffffffffffffffffffffffffffffffffffffffff161461095b576040517f08c379a000000000000000000000000000000000000000000000000000000000815260040161095290613737565b60405180910390fd5b6000801b600654146109a2576040517f08c379a000000000000000000000000000000000000000000000000000000000815260040161099990613717565b60405180910390fd5b816006819055506000600c60026101000a81548160ff0219169083151502179055506001600c60006101000a81548160ff0219169083151502179055507fd2228e25c75b435ba2d06ba60670e2ac7470fc7eb335c9954b054ec78ba754ea60405160405180910390a16006549050919050565b60003390506000808273ffffffffffffffffffffffffffffffffffffffff1673ffffffffffffffffffffffffffffffffffffffff168152602001908152602001600020600201805490508210610a6b5750610c38565b60008290505b60016000808473ffffffffffffffffffffffffffffffffffffffff1673ffffffffffffffffffffffffffffffffffffffff1681526020019081526020016000206002018054905003811015610bb2576000808373ffffffffffffffffffffffffffffffffffffffff1673ffffffffffffffffffffffffffffffffffffffff1681526020019081526020016000206002016001820181548110610b0f57fe5b90600052602060002090600302016000808473ffffffffffffffffffffffffffffffffffffffff1673ffffffffffffffffffffffffffffffffffffffff1681526020019081526020016000206002018281548110610b6957fe5b90600052602060002090600302016000820181600001908054610b8d929190612bd5565b5060018201548160010155600282015481600201559050508080600101915050610a71565b506000808273ffffffffffffffffffffffffffffffffffffffff1673ffffffffffffffffffffffffffffffffffffffff168152602001908152602001600020600201805480610bfd57fe5b600190038181906000526020600020906003020160008082016000610c229190612bb4565b6001820160009055600282016000905550509055505b50565b6000600354905090565b60008060008060008060003373ffffffffffffffffffffffffffffffffffffffff1673ffffffffffffffffffffffffffffffffffffffff16815260200190815260200160002060000160169054906101000a900460ff166000803373ffffffffffffffffffffffffffffffffffffffff1673ffffffffffffffffffffffffffffffffffffffff16815260200190815260200160002060010154600954600b54600854945094509450945094509091929394565b600c60009054906101000a900460ff16610d47576040517f08c379a0000000000000000000000000000000000000000000000000000000008152600401610d3e906137f7565b60405180910390fd5b60003390506003546024340210610d93576040517f08c379a0000000000000000000000000000000000000000000000000000000008152600401610d8a90613757565b60405180910390fd5b6001341015610dd7576040517f08c379a0000000000000000000000000000000000000000000000000000000008152600401610dce90613677565b60405180910390fd5b6000808273ffffffffffffffffffffffffffffffffffffffff1673ffffffffffffffffffffffffffffffffffffffff16815260200190815260200160002060000160149054906101000a900460ff16610f68576001339080600181540180825580915050600190039060005260206000200160009091909190916101000a81548173ffffffffffffffffffffffffffffffffffffffff021916908373ffffffffffffffffffffffffffffffffffffffff160217905550336000808373ffffffffffffffffffffffffffffffffffffffff1673ffffffffffffffffffffffffffffffffffffffff16815260200190815260200160002060000160006101000a81548173ffffffffffffffffffffffffffffffffffffffff021916908373ffffffffffffffffffffffffffffffffffffffff16021790555060016000808373ffffffffffffffffffffffffffffffffffffffff1673ffffffffffffffffffffffffffffffffffffffff16815260200190815260200160002060000160146101000a81548160ff0219169083151502179055505b610f7481848434611445565b610fa0600560009054906101000a900473ffffffffffffffffffffffffffffffffffffffff1634611390565b505050565b6000600654905090565b60065481565b606080600c60009054906101000a900460ff161561100a576040518060400160405280600c81526020017f62657474696e675068617365000000000000000000000000000000000000000081525090506110ac565b600c60019054906101000a900460ff161561105c576040518060400160405280600b81526020017f706179696e67506861736500000000000000000000000000000000000000000081525090506110ab565b600c60029054906101000a900460ff16156110aa576040518060400160405280600a81526020017f726573657450686173650000000000000000000000000000000000000000000081525090505b5b5b8091505090565b60008060003373ffffffffffffffffffffffffffffffffffffffff1673ffffffffffffffffffffffffffffffffffffffff16815260200190815260200160002060030154905090565b6000600c60019054906101000a900460ff1661114d576040517f08c379a0000000000000000000000000000000000000000000000000000000008152600401611144906136d7565b60405180910390fd5b600754905090565b600260009054906101000a900473ffffffffffffffffffffffffffffffffffffffff1673ffffffffffffffffffffffffffffffffffffffff163373ffffffffffffffffffffffffffffffffffffffff16146111e5576040517f08c379a00000000000000000000000000000000000000000000000000000000081526004016111dc906137b7565b60405180910390fd5b80600354036003819055506111fa3382611390565b50565b6000600260009054906101000a900473ffffffffffffffffffffffffffffffffffffffff1673ffffffffffffffffffffffffffffffffffffffff163373ffffffffffffffffffffffffffffffffffffffff161461128f576040517f08c379a000000000000000000000000000000000000000000000000000000000815260040161128690613817565b60405180910390fd5b60065483836040516020016112a592919061355e565b60405160208183030381529060405280519060200120146112fb576040517f08c379a00000000000000000000000000000000000000000000000000000000081526004016112f2906137d7565b60405180910390fd5b6000600c60006101000a81548160ff0219169083151502179055506001600c60016101000a81548160ff0219169083151502179055507f3519c7bb8e965d3daa5bd3bcdc28caeb9de22aa7cb5fb7defa3bb5f150b08d0960405160405180910390a18260078190555060065460088190555060075460098190555081600b81905550611385611960565b600754905092915050565b600060608373ffffffffffffffffffffffffffffffffffffffff16836040516113b890613549565b60006040518083038185875af1925050503d80600081146113f5576040519150601f19603f3d011682016040523d82523d6000602084013e6113fa565b606091505b50915091508161143f576040517f08c379a0000000000000000000000000000000000000000000000000000000008152600401611436906136b7565b60405180910390fd5b50505050565b60008084849050905060005b8181101561149a5785858281811061146557fe5b90506020028101906114779190613872565b600081811061148257fe5b90506020020135830192508080600101915050611451565b508282146114dd576040517f08c379a00000000000000000000000000000000000000000000000000000000081526004016114d490613657565b60405180910390fd5b60005b818110156119575760008686838181106114f657fe5b90506020028101906115089190613872565b600081811061151357fe5b9050602002013590506000600188888581811061152c57fe5b905060200281019061153e9190613872565b90500360248161154a57fe5b049050602788888581811061155b57fe5b905060200281019061156d9190613872565b600181811061157857fe5b9050602002013514806115ba5750602888888581811061159457fe5b90506020028101906115a69190613872565b60018181106115b157fe5b90506020020135145b806115f4575060298888858181106115ce57fe5b90506020028101906115e09190613872565b60018181106115eb57fe5b90506020020135145b8061162e5750602a88888581811061160857fe5b905060200281019061161a9190613872565b600181811061162557fe5b90506020020135145b1561163c576002905061179c565b602b88888581811061164a57fe5b905060200281019061165c9190613872565b600181811061166757fe5b9050602002013514806116a95750602c88888581811061168357fe5b90506020028101906116959190613872565b60018181106116a057fe5b90506020020135145b806116e35750602d8888858181106116bd57fe5b90506020028101906116cf9190613872565b60018181106116da57fe5b90506020020135145b8061171d5750602e8888858181106116f757fe5b90506020028101906117099190613872565b600181811061171457fe5b90506020020135145b806117575750602f88888581811061173157fe5b90506020028101906117439190613872565b600181811061174e57fe5b90506020020135145b806117915750603088888581811061176b57fe5b905060200281019061177d9190613872565b600181811061178857fe5b90506020020135145b1561179b57600390505b5b606060018989868181106117ac57fe5b90506020028101906117be9190613872565b90500367ffffffffffffffff811180156117d757600080fd5b506040519080825280602002602001820160405280156118065781602001602082028036833780820191505090505b5090506000600190505b89898681811061181c57fe5b905060200281019061182e9190613872565b905081101561188e5789898681811061184357fe5b90506020028101906118559190613872565b8281811061185f57fe5b9050602002013582600183038151811061187557fe5b6020026020010181815250508080600101915050611810565b506000808b73ffffffffffffffffffffffffffffffffffffffff1673ffffffffffffffffffffffffffffffffffffffff16815260200190815260200160002060020160405180606001604052808381526020018481526020018581525090806001815401808255809150506001900390600052602060002090600302016000909190919091506000820151816000019080519060200190611930929190612c27565b506020820151816001015560408201518160020155505050505080806001019150506114e0565b50505050505050565b600c60019054906101000a900460ff166119af576040517f08c379a00000000000000000000000000000000000000000000000000000000081526004016119a690613697565b60405180910390fd5b60005b6001805490508110156129f7576000600182815481106119ce57fe5b9060005260206000200160009054906101000a900473ffffffffffffffffffffffffffffffffffffffff16905060008080600090505b6000808573ffffffffffffffffffffffffffffffffffffffff1673ffffffffffffffffffffffffffffffffffffffff168152602001908152602001600020600201805490508110156128d95760008060008673ffffffffffffffffffffffffffffffffffffffff1673ffffffffffffffffffffffffffffffffffffffff16815260200190815260200160002060000160156101000a81548160ff02191690831515021790555060006007541480611abd57506026600754145b15611b97576007546000808673ffffffffffffffffffffffffffffffffffffffff1673ffffffffffffffffffffffffffffffffffffffff1681526020019081526020016000206002018281548110611b1157fe5b9060005260206000209060030201600001600081548110611b2e57fe5b9060005260206000200154146000808673ffffffffffffffffffffffffffffffffffffffff1673ffffffffffffffffffffffffffffffffffffffff16815260200190815260200160002060000160156101000a81548160ff021916908315150217905550612748565b60276000808673ffffffffffffffffffffffffffffffffffffffff1673ffffffffffffffffffffffffffffffffffffffff1681526020019081526020016000206002018281548110611be557fe5b9060005260206000209060030201600001600081548110611c0257fe5b90600052602060002001541415611c80576000600260075481611c2157fe5b06146000808673ffffffffffffffffffffffffffffffffffffffff1673ffffffffffffffffffffffffffffffffffffffff16815260200190815260200160002060000160156101000a81548160ff021916908315150217905550612747565b60286000808673ffffffffffffffffffffffffffffffffffffffff1673ffffffffffffffffffffffffffffffffffffffff1681526020019081526020016000206002018281548110611cce57fe5b9060005260206000209060030201600001600081548110611ceb57fe5b90600052602060002001541415611d69576001600260075481611d0a57fe5b06146000808673ffffffffffffffffffffffffffffffffffffffff1673ffffffffffffffffffffffffffffffffffffffff16815260200190815260200160002060000160156101000a81548160ff021916908315150217905550612746565b60296000808673ffffffffffffffffffffffffffffffffffffffff1673ffffffffffffffffffffffffffffffffffffffff1681526020019081526020016000206002018281548110611db757fe5b9060005260206000209060030201600001600081548110611dd457fe5b90600052602060002001541415611ee957600a600754111580611e095750601460075410158015611e085750601c60075411155b5b15611e7b576000600260075481611e1c57fe5b06146000808673ffffffffffffffffffffffffffffffffffffffff1673ffffffffffffffffffffffffffffffffffffffff16815260200190815260200160002060000160156101000a81548160ff021916908315150217905550611ee4565b6001600260075481611e8957fe5b06146000808673ffffffffffffffffffffffffffffffffffffffff1673ffffffffffffffffffffffffffffffffffffffff16815260200190815260200160002060000160156101000a81548160ff0219169083151502179055505b612745565b602a6000808673ffffffffffffffffffffffffffffffffffffffff1673ffffffffffffffffffffffffffffffffffffffff1681526020019081526020016000206002018281548110611f3757fe5b9060005260206000209060030201600001600081548110611f5457fe5b9060005260206000200154148015611f7857506000600260075481611f7557fe5b06145b1561208157600a600754111580611fa15750601460075410158015611fa05750601c60075411155b5b15612013576001600260075481611fb457fe5b06146000808673ffffffffffffffffffffffffffffffffffffffff1673ffffffffffffffffffffffffffffffffffffffff16815260200190815260200160002060000160156101000a81548160ff02191690831515021790555061207c565b600060026007548161202157fe5b06146000808673ffffffffffffffffffffffffffffffffffffffff1673ffffffffffffffffffffffffffffffffffffffff16815260200190815260200160002060000160156101000a81548160ff0219169083151502179055505b612744565b602b6000808673ffffffffffffffffffffffffffffffffffffffff1673ffffffffffffffffffffffffffffffffffffffff16815260200190815260200160002060020182815481106120cf57fe5b90600052602060002090600302016000016000815481106120ec57fe5b9060005260206000200154141561216157600c60075411156000808673ffffffffffffffffffffffffffffffffffffffff1673ffffffffffffffffffffffffffffffffffffffff16815260200190815260200160002060000160156101000a81548160ff021916908315150217905550612743565b602c6000808673ffffffffffffffffffffffffffffffffffffffff1673ffffffffffffffffffffffffffffffffffffffff16815260200190815260200160002060020182815481106121af57fe5b90600052602060002090600302016000016000815481106121cc57fe5b9060005260206000200154141561224f57600c6007541180156121f25750601860075411155b6000808673ffffffffffffffffffffffffffffffffffffffff1673ffffffffffffffffffffffffffffffffffffffff16815260200190815260200160002060000160156101000a81548160ff021916908315150217905550612742565b602d6000808673ffffffffffffffffffffffffffffffffffffffff1673ffffffffffffffffffffffffffffffffffffffff168152602001908152602001600020600201828154811061229d57fe5b90600052602060002090600302016000016000815481106122ba57fe5b9060005260206000200154141561232e576018600754116000808673ffffffffffffffffffffffffffffffffffffffff1673ffffffffffffffffffffffffffffffffffffffff16815260200190815260200160002060000160156101000a81548160ff021916908315150217905550612741565b602e6000808673ffffffffffffffffffffffffffffffffffffffff1673ffffffffffffffffffffffffffffffffffffffff168152602001908152602001600020600201828154811061237c57fe5b906000526020600020906003020160000160008154811061239957fe5b906000526020600020015414156124175760016003600754816123b857fe5b06146000808673ffffffffffffffffffffffffffffffffffffffff1673ffffffffffffffffffffffffffffffffffffffff16815260200190815260200160002060000160156101000a81548160ff021916908315150217905550612740565b602f6000808673ffffffffffffffffffffffffffffffffffffffff1673ffffffffffffffffffffffffffffffffffffffff168152602001908152602001600020600201828154811061246557fe5b906000526020600020906003020160000160008154811061248257fe5b906000526020600020015414156125005760026003600754816124a157fe5b06146000808673ffffffffffffffffffffffffffffffffffffffff1673ffffffffffffffffffffffffffffffffffffffff16815260200190815260200160002060000160156101000a81548160ff02191690831515021790555061273f565b60306000808673ffffffffffffffffffffffffffffffffffffffff1673ffffffffffffffffffffffffffffffffffffffff168152602001908152602001600020600201828154811061254e57fe5b906000526020600020906003020160000160008154811061256b57fe5b906000526020600020015414156125e957600060036007548161258a57fe5b06146000808673ffffffffffffffffffffffffffffffffffffffff1673ffffffffffffffffffffffffffffffffffffffff16815260200190815260200160002060000160156101000a81548160ff02191690831515021790555061273e565b60005b6000808673ffffffffffffffffffffffffffffffffffffffff1673ffffffffffffffffffffffffffffffffffffffff168152602001908152602001600020600201828154811061263857fe5b90600052602060002090600302016000018054905081101561273c576007546000808773ffffffffffffffffffffffffffffffffffffffff1673ffffffffffffffffffffffffffffffffffffffff16815260200190815260200160002060020183815481106126a357fe5b906000526020600020906003020160000182815481106126bf57fe5b9060005260206000200154141561272f5760016000808773ffffffffffffffffffffffffffffffffffffffff1673ffffffffffffffffffffffffffffffffffffffff16815260200190815260200160002060000160156101000a81548160ff02191690831515021790555061273c565b80806001019150506125ec565b505b5b5b5b5b5b5b5b5b5b5b600015156000808673ffffffffffffffffffffffffffffffffffffffff1673ffffffffffffffffffffffffffffffffffffffff16815260200190815260200160002060000160159054906101000a900460ff161515141561280a576000808573ffffffffffffffffffffffffffffffffffffffff1673ffffffffffffffffffffffffffffffffffffffff16815260200190815260200160002060020181815481106127ef57fe5b906000526020600020906003020160020154820191506128cc565b6000808573ffffffffffffffffffffffffffffffffffffffff1673ffffffffffffffffffffffffffffffffffffffff168152602001908152602001600020600201818154811061285657fe5b9060005260206000209060030201600201546000808673ffffffffffffffffffffffffffffffffffffffff1673ffffffffffffffffffffffffffffffffffffffff16815260200190815260200160002060020182815481106128b457fe5b90600052602060002090600302016001015402830192505b8080600101915050611a04565b506000808473ffffffffffffffffffffffffffffffffffffffff1673ffffffffffffffffffffffffffffffffffffffff16815260200190815260200160002060000160159054906101000a900460ff166000808573ffffffffffffffffffffffffffffffffffffffff1673ffffffffffffffffffffffffffffffffffffffff16815260200190815260200160002060000160166101000a81548160ff0219169083151502179055508082036000808573ffffffffffffffffffffffffffffffffffffffff1673ffffffffffffffffffffffffffffffffffffffff168152602001908152602001600020600101819055506129d2816129fa565b6129dc8284612a08565b6129e7828285612b24565b50505080806001019150506119b2565b50565b806003540160038190555050565b8160035403600381905550612a7e6000808373ffffffffffffffffffffffffffffffffffffffff1673ffffffffffffffffffffffffffffffffffffffff16815260200190815260200160002060000160009054906101000a900473ffffffffffffffffffffffffffffffffffffffff1683611390565b60008060008373ffffffffffffffffffffffffffffffffffffffff1673ffffffffffffffffffffffffffffffffffffffff16815260200190815260200160002060020180549050905060005b81811015612b1e576000808473ffffffffffffffffffffffffffffffffffffffff1673ffffffffffffffffffffffffffffffffffffffff168152602001908152602001600020508080600101915050612aca565b50505050565b8183036000808373ffffffffffffffffffffffffffffffffffffffff1673ffffffffffffffffffffffffffffffffffffffff16815260200190815260200160002060030154016000808373ffffffffffffffffffffffffffffffffffffffff1673ffffffffffffffffffffffffffffffffffffffff16815260200190815260200160002060030181905550505050565b5080546000825590600052602060002090810190612bd29190612c74565b50565b828054828255906000526020600020908101928215612c165760005260206000209182015b82811115612c15578254825591600101919060010190612bfa565b5b509050612c239190612c74565b5090565b828054828255906000526020600020908101928215612c63579160200282015b82811115612c62578251825591602001919060010190612c47565b5b509050612c709190612c74565b5090565b5b80821115612c8d576000816000905550600101612c75565b5090565b60008083601f840112612ca357600080fd5b8235905067ffffffffffffffff811115612cbc57600080fd5b602083019150836020820283011115612cd457600080fd5b9250929050565b600081359050612cea816139e4565b92915050565b600081359050612cff816139fb565b92915050565b60008060208385031215612d1857600080fd5b600083013567ffffffffffffffff811115612d3257600080fd5b612d3e85828601612c91565b92509250509250929050565b600060208284031215612d5c57600080fd5b6000612d6a84828501612cdb565b91505092915050565b600060208284031215612d8557600080fd5b6000612d9384828501612cf0565b91505092915050565b60008060408385031215612daf57600080fd5b6000612dbd85828601612cf0565b9250506020612dce85828601612cdb565b9150509250929050565b6000612de483836134c4565b905092915050565b6000612df88383613514565b60208301905092915050565b6000612e0f826138e9565b612e198185613924565b935083602082028501612e2b856138c9565b8060005b85811015612e675784840389528151612e488582612dd8565b9450612e538361390a565b925060208a01995050600181019050612e2f565b50829750879550505050505092915050565b6000612e84826138f4565b612e8e8185613935565b9350612e99836138d9565b8060005b83811015612eca578151612eb18882612dec565b9750612ebc83613917565b925050600181019050612e9d565b5085935050505092915050565b612ee081613962565b82525050565b612eef8161396e565b82525050565b612f06612f018261396e565b6139bf565b82525050565b612f1581613978565b82525050565b6000612f26826138ff565b612f308185613951565b9350612f4081856020860161398c565b612f49816139d3565b840191505092915050565b6000612f61602783613951565b91507f42657420616d6f756e74206e6f74206571756976616c656e7420746f20746f7460008301527f616c2062657473000000000000000000000000000000000000000000000000006020830152604082019050919050565b6000612fc7601c83613951565b91507f42657473206d75737420626520206174206c65617374203120776569000000006000830152602082019050919050565b6000613007602583613951565b91507f5061796f75742063616e6e6f74206f6363757220647572696e6720746869732060008301527f70686173650000000000000000000000000000000000000000000000000000006020830152604082019050919050565b600061306d601483613951565b91507f4661696c656420746f2073656e642045746865720000000000000000000000006000830152602082019050919050565b60006130ad602b83613951565b91507f43616e6e6f74207365652077696e6e696e67206e756d62657220647572696e6760008301527f20746869732070686173650000000000000000000000000000000000000000006020830152604082019050919050565b6000613113601e83613951565b91507f4f6e6c792074686520636173696e6f2063616e2072657365742067616d6500006000830152602082019050919050565b6000613153601483613951565b91507f4861736820616c726561647920637265617465640000000000000000000000006000830152602082019050919050565b6000613193602483613951565b91507f4f6e6c792074686520636173696e6f2063616e2067656e6572617465206f757460008301527f636f6d65000000000000000000000000000000000000000000000000000000006020830152604082019050919050565b60006131f9601783613951565b91507f436173696e6f2063616e6e6f7420636f766572206265740000000000000000006000830152602082019050919050565b6000613239602183613951565b91507f4f6e6c792074686520636173696e6f2063616e206465706f736974206d6f6e6560008301527f79000000000000000000000000000000000000000000000000000000000000006020830152604082019050919050565b600061329f602c83613951565b91507f63616e6e6f742073657420636f6d6d69746d656e74206861736820647572696e60008301527f67207468697320706861736500000000000000000000000000000000000000006020830152604082019050919050565b6000613305602283613951565b91507f4f6e6c792074686520636173696e6f2063616e207769746864726177206d6f6e60008301527f65790000000000000000000000000000000000000000000000000000000000006020830152604082019050919050565b600061336b600083613946565b9150600082019050919050565b6000613385601283613951565b91507f4861736820646f65736e2774206d6174636800000000000000000000000000006000830152602082019050919050565b60006133c5601383613951565b91507f42657474696e67206973206e6f74206f70656e000000000000000000000000006000830152602082019050919050565b6000613405602783613951565b91507f4f6e6c792074686520636173696e6f2063616e2072657665616c57696e6e696e60008301527f674e756d626572000000000000000000000000000000000000000000000000006020830152604082019050919050565b600061346b602483613951565b91507f63616e6e6f74207265736573742067616d6520647572696e672074686973207060008301527f68617365000000000000000000000000000000000000000000000000000000006020830152604082019050919050565b600060608301600083015184820360008601526134e18282612e79565b91505060208301516134f66020860182613514565b5060408301516135096040860182613514565b508091505092915050565b61351d81613982565b82525050565b61352c81613982565b82525050565b61354361353e82613982565b6139c9565b82525050565b60006135548261335e565b9150819050919050565b600061356a8285613532565b60208201915061357a8284612ef5565b6020820191508190509392505050565b600060208201905081810360008301526135a48184612e04565b905092915050565b600060a0820190506135c16000830188612ed7565b6135ce6020830187612f0c565b6135db6040830186613523565b6135e86060830185612ee6565b6135f56080830184612ee6565b9695505050505050565b60006020820190506136146000830184612ee6565b92915050565b600060208201905061362f6000830184612f0c565b92915050565b6000602082019050818103600083015261364f8184612f1b565b905092915050565b6000602082019050818103600083015261367081612f54565b9050919050565b6000602082019050818103600083015261369081612fba565b9050919050565b600060208201905081810360008301526136b081612ffa565b9050919050565b600060208201905081810360008301526136d081613060565b9050919050565b600060208201905081810360008301526136f0816130a0565b9050919050565b6000602082019050818103600083015261371081613106565b9050919050565b6000602082019050818103600083015261373081613146565b9050919050565b6000602082019050818103600083015261375081613186565b9050919050565b60006020820190508181036000830152613770816131ec565b9050919050565b600060208201905081810360008301526137908161322c565b9050919050565b600060208201905081810360008301526137b081613292565b9050919050565b600060208201905081810360008301526137d0816132f8565b9050919050565b600060208201905081810360008301526137f081613378565b9050919050565b60006020820190508181036000830152613810816133b8565b9050919050565b60006020820190508181036000830152613830816133f8565b9050919050565b600060208201905081810360008301526138508161345e565b9050919050565b600060208201905061386c6000830184613523565b92915050565b6000808335600160200384360303811261388b57600080fd5b80840192508235915067ffffffffffffffff8211156138a957600080fd5b6020830192506020820236038313156138c157600080fd5b509250929050565b6000819050602082019050919050565b6000819050602082019050919050565b600081519050919050565b600081519050919050565b600081519050919050565b6000602082019050919050565b6000602082019050919050565b600082825260208201905092915050565b600082825260208201905092915050565b600081905092915050565b600082825260208201905092915050565b60008115159050919050565b6000819050919050565b6000819050919050565b6000819050919050565b60005b838110156139aa57808201518184015260208101905061398f565b838111156139b9576000848401525b50505050565b6000819050919050565b6000819050919050565b6000601f19601f8301169050919050565b6139ed8161396e565b81146139f857600080fd5b50565b613a0481613982565b8114613a0f57600080fd5b5056fea2646970667358221220116f65d6ea0044dedcaa7020bbe78e95115c694d45054e138df1622ce0be289064736f6c634300060c0033",
  "immutableReferences": {},
  "source": "pragma solidity ^0.6.6;\npragma experimental ABIEncoderV2;\n\n\ncontract Roulette { \n    \n    struct Bet {\n        uint256[] numbers;\n        uint256 multiplier;\n        uint256 betAmount;\n    }\n    \n    struct Player {\n        address payable playerAddress;\n        bool playerExists; // Whether the player has already been added to map and array;\n        bool win; // Whether the player won or lost\n        bool lastWin; // Result of last game\n        int256 lastAmount; // Amount won or lost in the last game\n        // bool gameInProgress; // Whether the player is currently playing a game\n        Bet[] bets;\n        int256 totalWinnings; // Keeps track of player balance\n    }\n    \n    event  bettingPhaseOpen();\n    event bettingPhaseClosed();\n    \n    mapping(address => Player) playerMap; // Map containing all players playing the game (this is not iterable)\n    address[] playerAddressArray; // Array of all players addresses of players playing the game (this is iterable)\n    address payable casino;  // Address of the casino, will not change after contract is deployed\n    uint256 casinoDeposit = 0; // Value of the casino deposit\n    uint256 maxBet = .001 ether; \n    address payable contractAddress = address(this);  // Address of this contract\n    bytes32 public commitHash = 0;\n    uint256 winningNumber = 38;\n    bytes32 lastCommitHash;\n    uint256 lastWinningNumber;\n    bool wheelSpun = false;\n    bytes32 nonce;\n    \n    bool bettingPhase  = false;\n    bool payingPhase = true ;\n    bool resetPhase = false;\n\n    constructor () public payable{\n        // Casino initiates the contract\n        casino = msg.sender;\n    }\n    \n    // Function to receive Ether. msg.data must be empty\n    receive() external payable {}\n\n    // Fallback function is called when msg.data is not empty\n    fallback() external payable {}\n    \n    // Function to send a value of money to an address\n    function sendViaCall(address payable _to, uint256 _amount) internal {\n        (bool sent, bytes memory data) = _to.call{value: _amount}(\"\"); \n        require(sent, \"Failed to send Ether\");\n    }\n    \n    // Function for the casino to deposit money, must be called for the rest of the contract to work\n    function depositMoney() public payable {\n        require(msg.sender == casino, \"Only the casino can deposit money\");\n        casinoDeposit = casinoDeposit + msg.value;\n        sendViaCall(contractAddress, msg.value);\n    }\n    \n    function getCasinoDeposit() public view returns (uint256){\n        return casinoDeposit;\n    }\n    \n    function getCommitmentHash() public view returns (bytes32){\n        return commitHash;\n        \n    }\n    \n    function withdrawCasinoDeposit(uint256 amount) external {\n        require(msg.sender == casino, \"Only the casino can withdraw money\");\n        casinoDeposit = casinoDeposit - amount;\n        sendViaCall(msg.sender, amount);\n    }\n    \n    function setCommitmentHash(bytes32 _outcomeHash) external returns (bytes32) {\n        require (resetPhase, \"cannot set commitment hash during this phase\");\n        require (msg.sender == casino, \"Only the casino can generate outcome\");\n        require (commitHash == 0, \"Hash already created\");\n        commitHash = _outcomeHash;\n        resetPhase = false;\n        bettingPhase = true;\n        emit bettingPhaseOpen();\n        return commitHash;\n    }\n    \n    // Function for the casino to match the bet amount\n    function matchBet(uint256 _betAmount) internal {\n        casinoDeposit = casinoDeposit - _betAmount; // bet amount is deducted from casinoDeposit and but remains in the contract balance\n    }\n    \n    function placeBet(uint256[][] calldata _bets) external payable {\n        require(bettingPhase, \"Betting is not open\");\n        address _playerAddress = msg.sender;\n        // require(_playerAddress != casino, \"Casino cannot be a player\");\n        require(msg.value * 36 < casinoDeposit, \"Casino cannot cover bet\"); // Bet must be less than the money in the casino deposit to ensure casino can cover the bet\n        require(msg.value >= 1 wei, \"Bets must be  at least 1 wei\"); // Must be greater or equal to minimum bet of 1 wei\n        // require(msg.value <= maxBet, \"Max bet exceeded\"); // Must be less than or equal to max bet of .001 ether\n        \n        if( !playerMap[_playerAddress].playerExists) { // If player is new\n            playerAddressArray.push(msg.sender); // Add player address to array of player addresses\n            playerMap[_playerAddress].playerAddress = msg.sender; \n            playerMap[_playerAddress].playerExists = true;\n        }\n        \n        setBet(_playerAddress, _bets, msg.value);\n        sendViaCall(contractAddress, msg.value);\n    }\n    \n    // sample nonce: 0x3ac225168df54212a25c1c01fd35bebfea408fdac2e31ddd6f80a4bbf9a5f1cb\n    // sample number: 20\n    // sample commitHash: 0xf93eed68034dba759863259ca8eeb952ef5275db301ee8afe2da218326801d7e\n    \n    // This is the spin wheel function\n    function revealWinningNumber(uint256 _winningNumber, bytes32 _nonce) public payable returns (uint256){\n        require(msg.sender == casino, \"Only the casino can revealWinningNumber\");\n        require(keccak256(abi.encodePacked(_winningNumber, _nonce)) ==  commitHash, \"Hash doesn't match\"); // Ensures winning winningNumber was not changed\n        bettingPhase = false;\n        payingPhase = true;\n        emit bettingPhaseClosed();\n        winningNumber = _winningNumber;\n        lastCommitHash = commitHash;\n        lastWinningNumber = winningNumber;\n        nonce = _nonce;\n        payout();\n        return winningNumber;\n    }\n    \n    function WinningNumber() public view returns (uint256)  {\n        require(payingPhase, \"Cannot see winning number during this phase\");\n        return winningNumber;\n    }\n    \n    function payout() internal{\n        require(payingPhase, \"Payout cannot occur during this phase\");\n        for (uint n = 0; n < playerAddressArray.length; n++){\n            address _playerAddress = playerAddressArray[n];\n            uint256 winAmount = 0;\n            uint256 loseAmount;\n            for(uint256 i = 0; i < playerMap[_playerAddress].bets.length; i++){ // Loop through players bets\n                playerMap[_playerAddress].win = false;\n                if (winningNumber == 0  || winningNumber == 38){ // Winning number is 0 or 00\n                    playerMap[_playerAddress].win = (playerMap[_playerAddress].bets[i].numbers[0] == winningNumber);\n                }\n                else if(playerMap[_playerAddress].bets[i].numbers[0] == 39){ // Evens\n                    playerMap[_playerAddress].win = (winningNumber % 2 == 0);\n                }\n                else if (playerMap[_playerAddress].bets[i].numbers[0] == 40){ // Odds\n                    playerMap[_playerAddress].win = (winningNumber % 2 == 1);\n                }\n                else if (playerMap[_playerAddress].bets[i].numbers[0] == 41){  // Blacks\n                    if (winningNumber <= 10 || (winningNumber >= 20 && winningNumber <= 28)) {\n                        playerMap[_playerAddress].win = (winningNumber % 2 == 0);\n                    } \n                    else {\n                        playerMap[_playerAddress].win = (winningNumber % 2 == 1);\n                    }\n                }\n                else if (playerMap[_playerAddress].bets[i].numbers[0] == 42 && winningNumber % 2 == 0){ // Reds\n                    if (winningNumber <= 10 || (winningNumber >= 20 && winningNumber <= 28)) {\n                        playerMap[_playerAddress].win = (winningNumber % 2 == 1);\n                    } \n                    else {\n                         playerMap[_playerAddress].win = (winningNumber % 2 == 0);\n                    }\n                }\n                else if (playerMap[_playerAddress].bets[i].numbers[0] == 43){ // First dozen\n                    playerMap[_playerAddress].win = (winningNumber <= 12);\n                }\n                else if (playerMap[_playerAddress].bets[i].numbers[0] == 44){ // Second dozen\n                    playerMap[_playerAddress].win = (winningNumber > 12 && winningNumber <= 24);\n                }\n                else if (playerMap[_playerAddress].bets[i].numbers[0] == 45){ // Third dozen\n                    playerMap[_playerAddress].win = (winningNumber > 24);\n                }\n                else if (playerMap[_playerAddress].bets[i].numbers[0] == 46){ // First Column\n                    playerMap[_playerAddress].win = (winningNumber % 3 == 1);\n                }\n                else if (playerMap[_playerAddress].bets[i].numbers[0] == 47){ // Second Column\n                    playerMap[_playerAddress].win = (winningNumber % 3 == 2);\n                }\n                else if (playerMap[_playerAddress].bets[i].numbers[0] == 48){ // Third Column\n                    playerMap[_playerAddress].win = (winningNumber % 3 == 0);\n                }\n                else {\n                    for(uint256 j = 0; j < playerMap[_playerAddress].bets[i].numbers.length; j++){ // Loop through every winningNumber in the bet\n                        if(playerMap[_playerAddress].bets[i].numbers[j] == winningNumber){ // Check if any are individual winning number\n                            playerMap[_playerAddress].win = true;\n                            break;\n                        }\n                    }\n                }\n                if (playerMap[_playerAddress].win == false){\n                    loseAmount = loseAmount + playerMap[_playerAddress].bets[i].betAmount;\n                }\n                else{\n                    winAmount = winAmount + playerMap[_playerAddress].bets[i].multiplier * playerMap[_playerAddress].bets[i].betAmount;\n                }\n            }\n            playerMap[_playerAddress].lastWin = playerMap[_playerAddress].win;\n            playerMap[_playerAddress].lastAmount = (int256(winAmount) - int256(loseAmount));\n            payCasino(loseAmount);\n            payPlayer(winAmount, _playerAddress);\n            updateWinnings(winAmount, loseAmount, _playerAddress);\n        }\n        \n    }\n    \n    function setBet(address _playerAddress, uint256[][] calldata _bets, uint256 _betTotal) internal{\n        // Sample Bets [[100,1,2,3,4],[100,20],[100,1,2,3,4,5,6,7,8,9,10,11,12]]\n        uint256 betTotal = 0;\n        uint256 n = _bets.length;\n        for(uint i = 0; i < n; i++){\n            betTotal += _bets[i][0];\n        }\n        require(betTotal == _betTotal, \"Bet amount not equivalent to total bets\");\n        for(uint i = 0; i < n; i++){\n            uint256 betAmount = _bets[i][0];\n            uint256 multiplier = 36/(_bets[i].length - 1);\n            if(_bets[i][1] == 39 || _bets[i][1] == 40 || _bets[i][1] == 41 || _bets[i][1] == 42){ // Evens\n                multiplier = 2;\n            }\n            else if (_bets[i][1] == 43 || _bets[i][1] == 44 || _bets[i][1] == 45 || _bets[i][1] == 46 || _bets[i][1] == 47 || _bets[i][1] == 48){ // First dozen\n                multiplier = 3;\n            }\n            uint256[] memory numbers = new uint256[](_bets[i].length - 1);\n            for(uint j = 1; j < _bets[i].length; j++){\n                numbers[j-1]= _bets[i][j];\n            }\n            playerMap[_playerAddress].bets.push(Bet(numbers,multiplier,betAmount));\n        }\n    }\n    \n    function payCasino(uint256 amount) internal{\n        casinoDeposit = casinoDeposit + amount;\n    }\n    \n    function payPlayer(uint256 amount, address _playerAddress) internal{\n        casinoDeposit = casinoDeposit - amount;\n        sendViaCall(playerMap[_playerAddress].playerAddress, amount);\n        uint256 numberOfBets = playerMap[_playerAddress].bets.length;\n        for(uint256 i = 0; i < numberOfBets; i++){\n            playerMap[_playerAddress].bets.pop;\n        }\n    }\n    \n    // Funtion to return total balance of the contract which is casinoDeposit + all bets currently on the table\n    function getBalance() public view returns (uint) {\n        return address(this).balance;\n    }\n    \n    // See current players bets\n    function seeBets() public view returns (Bet[] memory){\n        return playerMap[msg.sender].bets;\n    }\n    \n    function seePlayerWinnings() public view returns (int256){\n        return playerMap[msg.sender].totalWinnings;\n    }\n    \n    function updateWinnings(uint256 winAmount, uint256 loseAmount, address _playerAddress) internal{\n        playerMap[_playerAddress].totalWinnings = playerMap[_playerAddress].totalWinnings + int256(winAmount - loseAmount);\n    }\n    \n    function gameReset() external{\n        require(msg.sender == casino, \"Only the casino can reset game\");\n        require(payingPhase, \"cannot resest game during this phase\");\n        payingPhase = false;\n        resetPhase = true;\n        commitHash = 0;\n        winningNumber = 38;\n        for (uint i = 0; i < playerAddressArray.length; i++){\n            while(playerMap[playerAddressArray[i]].bets.length > 0){\n                playerMap[playerAddressArray[i]].bets.pop();\n            }\n            playerMap[playerAddressArray[i]].win = false;\n        }\n    }\n    \n    function removeBet(uint index) public {\n        address _playerAddress = msg.sender;\n        if (index >= playerMap[_playerAddress].bets.length) return ;\n        for (uint i = index; i< playerMap[_playerAddress].bets.length - 1; i++){\n            playerMap[_playerAddress].bets[i] = playerMap[_playerAddress].bets[i+1];\n        }\n        playerMap[_playerAddress].bets.pop();\n    }\n    \n    function getGameState() public view returns (string memory) {\n        string  memory str;\n        if (bettingPhase){\n            str  = \"bettingPhase\";\n        }  \n        else if (payingPhase){\n            str = \"payingPhase\";\n        }\n        else if (resetPhase) {\n            str = \"resetPhase\";\n        }\n        return (str);\n    }\n    \n    function getLastGameResults() public view returns (bool, int256, uint256,  bytes32, bytes32) {\n        return (playerMap[msg.sender].lastWin, playerMap[msg.sender].lastAmount, lastWinningNumber, nonce,  lastCommitHash);\n    }\n    \n    \n}",
  "sourcePath": "/Users/MMayaguari/Documents/GitHub/EthereumRoullette/contracts/Roulette.sol",
  "compiler": {
    "name": "solc",
    "version": "0.6.12+commit.27d51765.Emscripten.clang"
  },
  "schemaVersion": "3.3.4",
  "updatedAt": "2021-05-13T05:29:54.630Z",
  "networkType": "ethereum",
  "devdoc": {
    "kind": "dev",
    "methods": {},
    "version": 1
  },
  "userdoc": {
    "kind": "user",
    "methods": {},
    "version": 1
  }
}