{
  "contractName": "Roulette",
  "abi": [
    {
      "inputs": [],
      "stateMutability": "payable",
      "type": "constructor",
      "payable": true
    },
    {
      "stateMutability": "payable",
      "type": "fallback",
      "payable": true
    },
    {
      "inputs": [],
      "name": "commitHash",
      "outputs": [
        {
          "internalType": "bytes32",
          "name": "",
          "type": "bytes32"
        }
      ],
      "stateMutability": "view",
      "type": "function",
      "constant": true
    },
    {
      "stateMutability": "payable",
      "type": "receive",
      "payable": true
    },
    {
      "inputs": [],
      "name": "depositMoney",
      "outputs": [],
      "stateMutability": "payable",
      "type": "function",
      "payable": true
    },
    {
      "inputs": [],
      "name": "getCasinoDeposit",
      "outputs": [
        {
          "internalType": "uint256",
          "name": "",
          "type": "uint256"
        }
      ],
      "stateMutability": "view",
      "type": "function",
      "constant": true
    },
    {
      "inputs": [
        {
          "internalType": "bytes32",
          "name": "_outcomeHash",
          "type": "bytes32"
        }
      ],
      "name": "getOutcomeHash",
      "outputs": [
        {
          "internalType": "bytes32",
          "name": "",
          "type": "bytes32"
        }
      ],
      "stateMutability": "nonpayable",
      "type": "function"
    },
    {
      "inputs": [
        {
          "internalType": "uint256[][]",
          "name": "_bets",
          "type": "uint256[][]"
        }
      ],
      "name": "placeBet",
      "outputs": [],
      "stateMutability": "payable",
      "type": "function",
      "payable": true
    },
    {
      "inputs": [
        {
          "internalType": "uint256",
          "name": "_winningNumber",
          "type": "uint256"
        },
        {
          "internalType": "bytes32",
          "name": "_nonce",
          "type": "bytes32"
        }
      ],
      "name": "revealWinningNumber",
      "outputs": [
        {
          "internalType": "uint256",
          "name": "",
          "type": "uint256"
        }
      ],
      "stateMutability": "payable",
      "type": "function",
      "payable": true
    },
    {
      "inputs": [],
      "name": "WinningNumber",
      "outputs": [
        {
          "internalType": "uint256",
          "name": "",
          "type": "uint256"
        }
      ],
      "stateMutability": "view",
      "type": "function",
      "constant": true
    },
    {
      "inputs": [],
      "name": "getBalance",
      "outputs": [
        {
          "internalType": "uint256",
          "name": "",
          "type": "uint256"
        }
      ],
      "stateMutability": "view",
      "type": "function",
      "constant": true
    },
    {
      "inputs": [],
      "name": "seeBets",
      "outputs": [
        {
          "components": [
            {
              "internalType": "uint256[]",
              "name": "numbers",
              "type": "uint256[]"
            },
            {
              "internalType": "uint256",
              "name": "multiplier",
              "type": "uint256"
            },
            {
              "internalType": "uint256",
              "name": "betAmount",
              "type": "uint256"
            }
          ],
          "internalType": "struct Roulette.Bet[]",
          "name": "",
          "type": "tuple[]"
        }
      ],
      "stateMutability": "view",
      "type": "function",
      "constant": true
    },
    {
      "inputs": [],
      "name": "seePlayerWinnings",
      "outputs": [
        {
          "internalType": "int256",
          "name": "",
          "type": "int256"
        }
      ],
      "stateMutability": "view",
      "type": "function",
      "constant": true
    },
    {
      "inputs": [],
      "name": "gameReset",
      "outputs": [],
      "stateMutability": "nonpayable",
      "type": "function"
    },
    {
      "inputs": [
        {
          "internalType": "uint256",
          "name": "index",
          "type": "uint256"
        }
      ],
      "name": "removeBet",
      "outputs": [],
      "stateMutability": "nonpayable",
      "type": "function"
    },
    {
      "inputs": [],
      "name": "getGameState",
      "outputs": [
        {
          "internalType": "string",
          "name": "",
          "type": "string"
        },
        {
          "internalType": "uint256",
          "name": "",
          "type": "uint256"
        }
      ],
      "stateMutability": "view",
      "type": "function",
      "constant": true
    }
  ],
  "bytecode": "0x6080604052600060035566038d7ea4c6800060045530600560006101000a81548173ffffffffffffffffffffffffffffffffffffffff021916908373ffffffffffffffffffffffffffffffffffffffff1602179055506000801b60065560266007556000600960006101000a81548160ff0219169083151502179055506000600960016101000a81548160ff0219169083151502179055506000600960026101000a81548160ff0219169083151502179055506001600960036101000a81548160ff02191690831515021790555033600260006101000a81548173ffffffffffffffffffffffffffffffffffffffff021916908373ffffffffffffffffffffffffffffffffffffffff16021790555061342c8061011d6000396000f3fe6080604052600436106100c65760003560e01c80636f2e56981161007f578063b7d0628b11610059578063b7d0628b1461021e578063bce5008c1461024a578063d14f6c0614610275578063ec867c35146102a0576100cd565b80636f2e5698146101ac57806373b31cc2146101d7578063857c1c9a146101f3576100cd565b806308873656146100cf57806312065fe0146100e6578063161ebe551461011157806316c05aa21461013c57806351d2dc3b146101465780635c2029a914610183576100cd565b366100cd57005b005b3480156100db57600080fd5b506100e46102d0565b005b3480156100f257600080fd5b506100fb6105de565b6040516101089190613221565b60405180910390f35b34801561011d57600080fd5b506101266105e6565b6040516101339190613019565b60405180910390f35b6101446106f0565b005b34801561015257600080fd5b5061016d600480360381019061016891906129a6565b61078d565b60405161017a919061303b565b60405180910390f35b34801561018f57600080fd5b506101aa60048036038101906101a591906129cf565b6108d0565b005b3480156101b857600080fd5b506101c1610af6565b6040516101ce9190613221565b60405180910390f35b6101f160048036038101906101ec9190612965565b610b00565b005b3480156101ff57600080fd5b50610208610e1f565b604051610215919061303b565b60405180910390f35b34801561022a57600080fd5b50610233610e25565b604051610241929190613071565b60405180910390f35b34801561025657600080fd5b5061025f610f18565b60405161026c9190613056565b60405180910390f35b34801561028157600080fd5b5061028a610f61565b6040516102979190613221565b60405180910390f35b6102ba60048036038101906102b591906129f8565b610f84565b6040516102c79190613221565b60405180910390f35b600260009054906101000a900473ffffffffffffffffffffffffffffffffffffffff1673ffffffffffffffffffffffffffffffffffffffff163373ffffffffffffffffffffffffffffffffffffffff1614610360576040517f08c379a000000000000000000000000000000000000000000000000000000000815260040161035790613101565b60405180910390fd5b600960029054906101000a900460ff1661037957600080fd5b6000801b600654141561038b57600080fd5b6000600960026101000a81548160ff0219169083151502179055506001600960036101000a81548160ff021916908315150217905550600f4201600a819055506000801b600681905550600754600881905550602660078190555060008090505b6001805490508110156105db575b60008060006001848154811061040c57fe5b9060005260206000200160009054906101000a900473ffffffffffffffffffffffffffffffffffffffff1673ffffffffffffffffffffffffffffffffffffffff1673ffffffffffffffffffffffffffffffffffffffff16815260200190815260200160002060010180549050111561053d576000806001838154811061048e57fe5b9060005260206000200160009054906101000a900473ffffffffffffffffffffffffffffffffffffffff1673ffffffffffffffffffffffffffffffffffffffff1673ffffffffffffffffffffffffffffffffffffffff1681526020019081526020016000206001018054806104ff57fe5b600190038181906000526020600020906003020160008082016000610524919061275f565b60018201600090556002820160009055505090556103fa565b60008060006001848154811061054f57fe5b9060005260206000200160009054906101000a900473ffffffffffffffffffffffffffffffffffffffff1673ffffffffffffffffffffffffffffffffffffffff1673ffffffffffffffffffffffffffffffffffffffff16815260200190815260200160002060000160156101000a81548160ff02191690831515021790555080806001019150506103ec565b50565b600047905090565b60606000803373ffffffffffffffffffffffffffffffffffffffff1673ffffffffffffffffffffffffffffffffffffffff168152602001908152602001600020600101805480602002602001604051908101604052809291908181526020016000905b828210156106e75783829060005260206000209060030201604051806060016040529081600082018054806020026020016040519081016040528092919081815260200182805480156106bb57602002820191906000526020600020905b8154815260200190600101908083116106a7575b505050505081526020016001820154815260200160028201548152505081526020019060010190610649565b50505050905090565b600260009054906101000a900473ffffffffffffffffffffffffffffffffffffffff1673ffffffffffffffffffffffffffffffffffffffff163373ffffffffffffffffffffffffffffffffffffffff1614610780576040517f08c379a0000000000000000000000000000000000000000000000000000000008152600401610777906131a1565b60405180910390fd5b3460035401600381905550565b6000600960039054906101000a900460ff166107a857600080fd5b600260009054906101000a900473ffffffffffffffffffffffffffffffffffffffff1673ffffffffffffffffffffffffffffffffffffffff163373ffffffffffffffffffffffffffffffffffffffff1614610838576040517f08c379a000000000000000000000000000000000000000000000000000000000815260040161082f90613141565b60405180910390fd5b6000801b6006541461087f576040517f08c379a000000000000000000000000000000000000000000000000000000000815260040161087690613121565b60405180910390fd5b816006819055506000600960036101000a81548160ff0219169083151502179055506001600960016101000a81548160ff02191690831515021790555060784201600a819055506006549050919050565b60003390506000808273ffffffffffffffffffffffffffffffffffffffff1673ffffffffffffffffffffffffffffffffffffffff1681526020019081526020016000206001018054905082106109265750610af3565b60008290505b60016000808473ffffffffffffffffffffffffffffffffffffffff1673ffffffffffffffffffffffffffffffffffffffff1681526020019081526020016000206001018054905003811015610a6d576000808373ffffffffffffffffffffffffffffffffffffffff1673ffffffffffffffffffffffffffffffffffffffff16815260200190815260200160002060010160018201815481106109ca57fe5b90600052602060002090600302016000808473ffffffffffffffffffffffffffffffffffffffff1673ffffffffffffffffffffffffffffffffffffffff1681526020019081526020016000206001018281548110610a2457fe5b90600052602060002090600302016000820181600001908054610a48929190612780565b506001820154816001015560028201548160020155905050808060010191505061092c565b506000808273ffffffffffffffffffffffffffffffffffffffff1673ffffffffffffffffffffffffffffffffffffffff168152602001908152602001600020600101805480610ab857fe5b600190038181906000526020600020906003020160008082016000610add919061275f565b6001820160009055600282016000905550509055505b50565b6000600354905090565b600960019054906101000a900460ff16610b1957600080fd5b6000339050600260009054906101000a900473ffffffffffffffffffffffffffffffffffffffff1673ffffffffffffffffffffffffffffffffffffffff168173ffffffffffffffffffffffffffffffffffffffff161415610baf576040517f08c379a0000000000000000000000000000000000000000000000000000000008152600401610ba690613181565b60405180910390fd5b6003546024340210610bf6576040517f08c379a0000000000000000000000000000000000000000000000000000000008152600401610bed90613161565b60405180910390fd5b6001341015610c3a576040517f08c379a0000000000000000000000000000000000000000000000000000000008152600401610c31906130c1565b60405180910390fd5b600454341115610c7f576040517f08c379a0000000000000000000000000000000000000000000000000000000008152600401610c76906131c1565b60405180910390fd5b6000808273ffffffffffffffffffffffffffffffffffffffff1673ffffffffffffffffffffffffffffffffffffffff16815260200190815260200160002060000160149054906101000a900460ff16610e10576001339080600181540180825580915050600190039060005260206000200160009091909190916101000a81548173ffffffffffffffffffffffffffffffffffffffff021916908373ffffffffffffffffffffffffffffffffffffffff160217905550336000808373ffffffffffffffffffffffffffffffffffffffff1673ffffffffffffffffffffffffffffffffffffffff16815260200190815260200160002060000160006101000a81548173ffffffffffffffffffffffffffffffffffffffff021916908373ffffffffffffffffffffffffffffffffffffffff16021790555060016000808373ffffffffffffffffffffffffffffffffffffffff1673ffffffffffffffffffffffffffffffffffffffff16815260200190815260200160002060000160146101000a81548160ff0219169083151502179055505b610e1b8183346110d5565b5050565b60065481565b606060006060600960019054906101000a900460ff1615610e7d576040518060400160405280600c81526020017f62657474696e67506861736500000000000000000000000000000000000000008152509050610f09565b600960029054906101000a900460ff1615610ecf576040518060400160405280600b81526020017f706179696e6750686173650000000000000000000000000000000000000000008152509050610f08565b6040518060400160405280600a81526020017f726573657450686173650000000000000000000000000000000000000000000081525090505b5b8042600a540392509250509091565b60008060003373ffffffffffffffffffffffffffffffffffffffff1673ffffffffffffffffffffffffffffffffffffffff16815260200190815260200160002060020154905090565b6000600960029054906101000a900460ff16610f7c57600080fd5b600754905090565b6000600260009054906101000a900473ffffffffffffffffffffffffffffffffffffffff1673ffffffffffffffffffffffffffffffffffffffff163373ffffffffffffffffffffffffffffffffffffffff1614611016576040517f08c379a000000000000000000000000000000000000000000000000000000000815260040161100d90613201565b60405180910390fd5b600654838360405160200161102c929190612fed565b6040516020818303038152906040528051906020012014611082576040517f08c379a0000000000000000000000000000000000000000000000000000000008152600401611079906131e1565b60405180910390fd5b6000600960016101000a81548160ff0219169083151502179055506001600960026101000a81548160ff021916908315150217905550601e4201600a819055506110ca61156e565b600754905092915050565b600080905060008351905060008090505b81811015611127578481815181106110fa57fe5b602002602001015160008151811061110e57fe5b60200260200101518301925080806001019150506110e6565b5082821461116a576040517f08c379a0000000000000000000000000000000000000000000000000000000008152600401611161906130a1565b60405180910390fd5b60008090505b8181101561156657600085828151811061118657fe5b602002602001015160008151811061119a57fe5b60200260200101519050600060018784815181106111b457fe5b602002602001015151036024816111c757fe5b04905060278784815181106111d857fe5b60200260200101516001815181106111ec57fe5b602002602001015114806112275750602887848151811061120957fe5b602002602001015160018151811061121d57fe5b6020026020010151145b806112595750602987848151811061123b57fe5b602002602001015160018151811061124f57fe5b6020026020010151145b8061128b5750602a87848151811061126d57fe5b602002602001015160018151811061128157fe5b6020026020010151145b1561129957600290506113c9565b602b8784815181106112a757fe5b60200260200101516001815181106112bb57fe5b602002602001015114806112f65750602c8784815181106112d857fe5b60200260200101516001815181106112ec57fe5b6020026020010151145b806113285750602d87848151811061130a57fe5b602002602001015160018151811061131e57fe5b6020026020010151145b8061135a5750602e87848151811061133c57fe5b602002602001015160018151811061135057fe5b6020026020010151145b8061138c5750602f87848151811061136e57fe5b602002602001015160018151811061138257fe5b6020026020010151145b806113be575060308784815181106113a057fe5b60200260200101516001815181106113b457fe5b6020026020010151145b156113c857600390505b5b606060018885815181106113d957fe5b6020026020010151510367ffffffffffffffff811180156113f957600080fd5b506040519080825280602002602001820160405280156114285781602001602082028036833780820191505090505b5090506000600190505b88858151811061143e57fe5b60200260200101515181101561149d5788858151811061145a57fe5b6020026020010151818151811061146d57fe5b602002602001015182600183038151811061148457fe5b6020026020010181815250508080600101915050611432565b506000808a73ffffffffffffffffffffffffffffffffffffffff1673ffffffffffffffffffffffffffffffffffffffff1681526020019081526020016000206001016040518060600160405280838152602001848152602001858152509080600181540180825580915050600190039060005260206000209060030201600090919091909150600082015181600001908051906020019061153f9291906127d2565b50602082015181600101556040820151816002015550505050508080600101915050611170565b505050505050565b600960029054906101000a900460ff1661158757600080fd5b60008090505b6001805490508110156124ea576000600182815481106115a957fe5b9060005260206000200160009054906101000a900473ffffffffffffffffffffffffffffffffffffffff1690506000809050600080600090505b6000808573ffffffffffffffffffffffffffffffffffffffff1673ffffffffffffffffffffffffffffffffffffffff168152602001908152602001600020600101805490508110156124bb5760008060008673ffffffffffffffffffffffffffffffffffffffff1673ffffffffffffffffffffffffffffffffffffffff16815260200190815260200160002060000160156101000a81548160ff0219169083151502179055506000600754148061169c57506026600754145b15611776576007546000808673ffffffffffffffffffffffffffffffffffffffff1673ffffffffffffffffffffffffffffffffffffffff16815260200190815260200160002060010182815481106116f057fe5b906000526020600020906003020160000160008154811061170d57fe5b9060005260206000200154146000808673ffffffffffffffffffffffffffffffffffffffff1673ffffffffffffffffffffffffffffffffffffffff16815260200190815260200160002060000160156101000a81548160ff02191690831515021790555061232a565b60276000808673ffffffffffffffffffffffffffffffffffffffff1673ffffffffffffffffffffffffffffffffffffffff16815260200190815260200160002060010182815481106117c457fe5b90600052602060002090600302016000016000815481106117e157fe5b9060005260206000200154141561185f57600060026007548161180057fe5b06146000808673ffffffffffffffffffffffffffffffffffffffff1673ffffffffffffffffffffffffffffffffffffffff16815260200190815260200160002060000160156101000a81548160ff021916908315150217905550612329565b60286000808673ffffffffffffffffffffffffffffffffffffffff1673ffffffffffffffffffffffffffffffffffffffff16815260200190815260200160002060010182815481106118ad57fe5b90600052602060002090600302016000016000815481106118ca57fe5b906000526020600020015414156119485760016002600754816118e957fe5b06146000808673ffffffffffffffffffffffffffffffffffffffff1673ffffffffffffffffffffffffffffffffffffffff16815260200190815260200160002060000160156101000a81548160ff021916908315150217905550612328565b60296000808673ffffffffffffffffffffffffffffffffffffffff1673ffffffffffffffffffffffffffffffffffffffff168152602001908152602001600020600101828154811061199657fe5b90600052602060002090600302016000016000815481106119b357fe5b90600052602060002001541415611ac857600a6007541115806119e857506014600754101580156119e75750601c60075411155b5b15611a5a5760006002600754816119fb57fe5b06146000808673ffffffffffffffffffffffffffffffffffffffff1673ffffffffffffffffffffffffffffffffffffffff16815260200190815260200160002060000160156101000a81548160ff021916908315150217905550611ac3565b6001600260075481611a6857fe5b06146000808673ffffffffffffffffffffffffffffffffffffffff1673ffffffffffffffffffffffffffffffffffffffff16815260200190815260200160002060000160156101000a81548160ff0219169083151502179055505b612327565b602a6000808673ffffffffffffffffffffffffffffffffffffffff1673ffffffffffffffffffffffffffffffffffffffff1681526020019081526020016000206001018281548110611b1657fe5b9060005260206000209060030201600001600081548110611b3357fe5b9060005260206000200154148015611b5757506000600260075481611b5457fe5b06145b15611c6057600a600754111580611b805750601460075410158015611b7f5750601c60075411155b5b15611bf2576001600260075481611b9357fe5b06146000808673ffffffffffffffffffffffffffffffffffffffff1673ffffffffffffffffffffffffffffffffffffffff16815260200190815260200160002060000160156101000a81548160ff021916908315150217905550611c5b565b6000600260075481611c0057fe5b06146000808673ffffffffffffffffffffffffffffffffffffffff1673ffffffffffffffffffffffffffffffffffffffff16815260200190815260200160002060000160156101000a81548160ff0219169083151502179055505b612326565b602b6000808673ffffffffffffffffffffffffffffffffffffffff1673ffffffffffffffffffffffffffffffffffffffff1681526020019081526020016000206001018281548110611cae57fe5b9060005260206000209060030201600001600081548110611ccb57fe5b90600052602060002001541415611d4057600c60075411156000808673ffffffffffffffffffffffffffffffffffffffff1673ffffffffffffffffffffffffffffffffffffffff16815260200190815260200160002060000160156101000a81548160ff021916908315150217905550612325565b602c6000808673ffffffffffffffffffffffffffffffffffffffff1673ffffffffffffffffffffffffffffffffffffffff1681526020019081526020016000206001018281548110611d8e57fe5b9060005260206000209060030201600001600081548110611dab57fe5b90600052602060002001541415611e2e57600c600754118015611dd15750601860075411155b6000808673ffffffffffffffffffffffffffffffffffffffff1673ffffffffffffffffffffffffffffffffffffffff16815260200190815260200160002060000160156101000a81548160ff021916908315150217905550612324565b602d6000808673ffffffffffffffffffffffffffffffffffffffff1673ffffffffffffffffffffffffffffffffffffffff1681526020019081526020016000206001018281548110611e7c57fe5b9060005260206000209060030201600001600081548110611e9957fe5b90600052602060002001541415611f0d576018600754116000808673ffffffffffffffffffffffffffffffffffffffff1673ffffffffffffffffffffffffffffffffffffffff16815260200190815260200160002060000160156101000a81548160ff021916908315150217905550612323565b602e6000808673ffffffffffffffffffffffffffffffffffffffff1673ffffffffffffffffffffffffffffffffffffffff1681526020019081526020016000206001018281548110611f5b57fe5b9060005260206000209060030201600001600081548110611f7857fe5b90600052602060002001541415611ff6576001600360075481611f9757fe5b06146000808673ffffffffffffffffffffffffffffffffffffffff1673ffffffffffffffffffffffffffffffffffffffff16815260200190815260200160002060000160156101000a81548160ff021916908315150217905550612322565b602f6000808673ffffffffffffffffffffffffffffffffffffffff1673ffffffffffffffffffffffffffffffffffffffff168152602001908152602001600020600101828154811061204457fe5b906000526020600020906003020160000160008154811061206157fe5b906000526020600020015414156120df57600260036007548161208057fe5b06146000808673ffffffffffffffffffffffffffffffffffffffff1673ffffffffffffffffffffffffffffffffffffffff16815260200190815260200160002060000160156101000a81548160ff021916908315150217905550612321565b60306000808673ffffffffffffffffffffffffffffffffffffffff1673ffffffffffffffffffffffffffffffffffffffff168152602001908152602001600020600101828154811061212d57fe5b906000526020600020906003020160000160008154811061214a57fe5b906000526020600020015414156121c857600060036007548161216957fe5b06146000808673ffffffffffffffffffffffffffffffffffffffff1673ffffffffffffffffffffffffffffffffffffffff16815260200190815260200160002060000160156101000a81548160ff021916908315150217905550612320565b60008090505b6000808673ffffffffffffffffffffffffffffffffffffffff1673ffffffffffffffffffffffffffffffffffffffff168152602001908152602001600020600101828154811061221a57fe5b90600052602060002090600302016000018054905081101561231e576007546000808773ffffffffffffffffffffffffffffffffffffffff1673ffffffffffffffffffffffffffffffffffffffff168152602001908152602001600020600101838154811061228557fe5b906000526020600020906003020160000182815481106122a157fe5b906000526020600020015414156123115760016000808773ffffffffffffffffffffffffffffffffffffffff1673ffffffffffffffffffffffffffffffffffffffff16815260200190815260200160002060000160156101000a81548160ff02191690831515021790555061231e565b80806001019150506121ce565b505b5b5b5b5b5b5b5b5b5b5b600015156000808673ffffffffffffffffffffffffffffffffffffffff1673ffffffffffffffffffffffffffffffffffffffff16815260200190815260200160002060000160159054906101000a900460ff16151514156123ec576000808573ffffffffffffffffffffffffffffffffffffffff1673ffffffffffffffffffffffffffffffffffffffff16815260200190815260200160002060010181815481106123d157fe5b906000526020600020906003020160020154820191506124ae565b6000808573ffffffffffffffffffffffffffffffffffffffff1673ffffffffffffffffffffffffffffffffffffffff168152602001908152602001600020600101818154811061243857fe5b9060005260206000209060030201600201546000808673ffffffffffffffffffffffffffffffffffffffff1673ffffffffffffffffffffffffffffffffffffffff168152602001908152602001600020600101828154811061249657fe5b90600052602060002090600302016001015402830192505b80806001019150506115e3565b506124c5816124ed565b6124cf82846124fb565b6124da82828561261a565b505050808060010191505061158d565b50565b806003540160038190555050565b81600354036003819055506125716000808373ffffffffffffffffffffffffffffffffffffffff1673ffffffffffffffffffffffffffffffffffffffff16815260200190815260200160002060000160009054906101000a900473ffffffffffffffffffffffffffffffffffffffff16836126aa565b60008060008373ffffffffffffffffffffffffffffffffffffffff1673ffffffffffffffffffffffffffffffffffffffff16815260200190815260200160002060010180549050905060008090505b81811015612614576000808473ffffffffffffffffffffffffffffffffffffffff1673ffffffffffffffffffffffffffffffffffffffff1681526020019081526020016000205080806001019150506125c0565b50505050565b8183036000808373ffffffffffffffffffffffffffffffffffffffff1673ffffffffffffffffffffffffffffffffffffffff16815260200190815260200160002060020154016000808373ffffffffffffffffffffffffffffffffffffffff1673ffffffffffffffffffffffffffffffffffffffff16815260200190815260200160002060020181905550505050565b600060608373ffffffffffffffffffffffffffffffffffffffff16836040516126d290612fd8565b60006040518083038185875af1925050503d806000811461270f576040519150601f19603f3d011682016040523d82523d6000602084013e612714565b606091505b509150915081612759576040517f08c379a0000000000000000000000000000000000000000000000000000000008152600401612750906130e1565b60405180910390fd5b50505050565b508054600082559060005260206000209081019061277d919061281f565b50565b8280548282559060005260206000209081019282156127c15760005260206000209182015b828111156127c05782548255916001019190600101906127a5565b5b5090506127ce919061281f565b5090565b82805482825590600052602060002090810192821561280e579160200282015b8281111561280d5782518255916020019190600101906127f2565b5b50905061281b919061281f565b5090565b61284191905b8082111561283d576000816000905550600101612825565b5090565b90565b600082601f83011261285557600080fd5b813561286861286382613269565b61323c565b9150818183526020840193506020810190508360005b838110156128ae578135860161289488826128b8565b84526020840193506020830192505060018101905061287e565b5050505092915050565b600082601f8301126128c957600080fd5b81356128dc6128d782613291565b61323c565b9150818183526020840193506020810190508385602084028201111561290157600080fd5b60005b8381101561293157816129178882612950565b845260208401935060208301925050600181019050612904565b5050505092915050565b60008135905061294a816133c8565b92915050565b60008135905061295f816133df565b92915050565b60006020828403121561297757600080fd5b600082013567ffffffffffffffff81111561299157600080fd5b61299d84828501612844565b91505092915050565b6000602082840312156129b857600080fd5b60006129c68482850161293b565b91505092915050565b6000602082840312156129e157600080fd5b60006129ef84828501612950565b91505092915050565b60008060408385031215612a0b57600080fd5b6000612a1985828601612950565b9250506020612a2a8582860161293b565b9150509250929050565b6000612a408383612f53565b905092915050565b6000612a548383612fa3565b60208301905092915050565b6000612a6b826132d9565b612a758185613314565b935083602082028501612a87856132b9565b8060005b85811015612ac35784840389528151612aa48582612a34565b9450612aaf836132fa565b925060208a01995050600181019050612a8b565b50829750879550505050505092915050565b6000612ae0826132e4565b612aea8185613325565b9350612af5836132c9565b8060005b83811015612b26578151612b0d8882612a48565b9750612b1883613307565b925050600181019050612af9565b5085935050505092915050565b612b3c81613352565b82525050565b612b53612b4e82613352565b6133a3565b82525050565b612b628161335c565b82525050565b6000612b73826132ef565b612b7d8185613341565b9350612b8d818560208601613370565b612b96816133b7565b840191505092915050565b6000612bae602783613341565b91507f42657420616d6f756e74206e6f74206571756976616c656e7420746f20746f7460008301527f616c2062657473000000000000000000000000000000000000000000000000006020830152604082019050919050565b6000612c14601c83613341565b91507f42657473206d75737420626520206174206c65617374203120776569000000006000830152602082019050919050565b6000612c54601483613341565b91507f4661696c656420746f2073656e642045746865720000000000000000000000006000830152602082019050919050565b6000612c94601e83613341565b91507f4f6e6c792074686520636173696e6f2063616e2072657365742067616d6500006000830152602082019050919050565b6000612cd4601483613341565b91507f4861736820616c726561647920637265617465640000000000000000000000006000830152602082019050919050565b6000612d14602483613341565b91507f4f6e6c792074686520636173696e6f2063616e2067656e6572617465206f757460008301527f636f6d65000000000000000000000000000000000000000000000000000000006020830152604082019050919050565b6000612d7a601783613341565b91507f436173696e6f2063616e6e6f7420636f766572206265740000000000000000006000830152602082019050919050565b6000612dba601983613341565b91507f436173696e6f2063616e6e6f74206265206120706c61796572000000000000006000830152602082019050919050565b6000612dfa602183613341565b91507f4f6e6c792074686520636173696e6f2063616e206465706f736974206d6f6e6560008301527f79000000000000000000000000000000000000000000000000000000000000006020830152604082019050919050565b6000612e60601083613341565b91507f4d617820626574206578636565646564000000000000000000000000000000006000830152602082019050919050565b6000612ea0600083613336565b9150600082019050919050565b6000612eba601283613341565b91507f4861736820646f65736e2774206d6174636800000000000000000000000000006000830152602082019050919050565b6000612efa602783613341565b91507f4f6e6c792074686520636173696e6f2063616e2072657665616c57696e6e696e60008301527f674e756d626572000000000000000000000000000000000000000000000000006020830152604082019050919050565b60006060830160008301518482036000860152612f708282612ad5565b9150506020830151612f856020860182612fa3565b506040830151612f986040860182612fa3565b508091505092915050565b612fac81613366565b82525050565b612fbb81613366565b82525050565b612fd2612fcd82613366565b6133ad565b82525050565b6000612fe382612e93565b9150819050919050565b6000612ff98285612fc1565b6020820191506130098284612b42565b6020820191508190509392505050565b600060208201905081810360008301526130338184612a60565b905092915050565b60006020820190506130506000830184612b33565b92915050565b600060208201905061306b6000830184612b59565b92915050565b6000604082019050818103600083015261308b8185612b68565b905061309a6020830184612fb2565b9392505050565b600060208201905081810360008301526130ba81612ba1565b9050919050565b600060208201905081810360008301526130da81612c07565b9050919050565b600060208201905081810360008301526130fa81612c47565b9050919050565b6000602082019050818103600083015261311a81612c87565b9050919050565b6000602082019050818103600083015261313a81612cc7565b9050919050565b6000602082019050818103600083015261315a81612d07565b9050919050565b6000602082019050818103600083015261317a81612d6d565b9050919050565b6000602082019050818103600083015261319a81612dad565b9050919050565b600060208201905081810360008301526131ba81612ded565b9050919050565b600060208201905081810360008301526131da81612e53565b9050919050565b600060208201905081810360008301526131fa81612ead565b9050919050565b6000602082019050818103600083015261321a81612eed565b9050919050565b60006020820190506132366000830184612fb2565b92915050565b6000604051905081810181811067ffffffffffffffff8211171561325f57600080fd5b8060405250919050565b600067ffffffffffffffff82111561328057600080fd5b602082029050602081019050919050565b600067ffffffffffffffff8211156132a857600080fd5b602082029050602081019050919050565b6000819050602082019050919050565b6000819050602082019050919050565b600081519050919050565b600081519050919050565b600081519050919050565b6000602082019050919050565b6000602082019050919050565b600082825260208201905092915050565b600082825260208201905092915050565b600081905092915050565b600082825260208201905092915050565b6000819050919050565b6000819050919050565b6000819050919050565b60005b8381101561338e578082015181840152602081019050613373565b8381111561339d576000848401525b50505050565b6000819050919050565b6000819050919050565b6000601f19601f8301169050919050565b6133d181613352565b81146133dc57600080fd5b50565b6133e881613366565b81146133f357600080fd5b5056fea26469706673582212203038d928f43143db3893935bf8145412be5190dc89147536fee2fe3a8495f35464736f6c63430006060033",
  "immutableReferences": {},
  "source": "pragma solidity ^0.6.6;\npragma experimental ABIEncoderV2;\n\n\ncontract Roulette { \n    \n    struct Bet {\n        uint256[] numbers;\n        uint256 multiplier;\n        uint256 betAmount;\n    }\n    \n    struct Player {\n        address payable playerAddress;\n        bool playerExists; // Whether the player has already been added to map and array;\n        bool win; // Whether the player won or lost\n        // bool gameInProgress; // Whether the player is currently playing a game\n        // uint256 result;\n        Bet[] bets;\n        int256 totalWinnings; // Keeps track of player balance\n    }\n    \n    mapping(address => Player) playerMap; // Map containing all players playing the game (this is not iterable)\n    address[] playerAddressArray; // Array of all players addresses of players playing the game (this is iterable)\n    address payable casino;  // Address of the casino, will not change after contract is deployed\n    uint256 casinoDeposit = 0; // Value of the casino deposit\n    uint256 maxBet = .001 ether; \n    address payable contractAddress = address(this);  // Address of this contract\n    bytes32 public commitHash = 0;\n    uint256 winningNumber = 38;\n    uint256 lastWinningNumber;\n    bool wheelSpun = false;\n    \n    bool bettingPhase  = false;\n    bool payingPhase = false ;\n    bool resetPhase = true;\n    uint256 phaseEndTime;\n    \n    constructor () public payable{\n        // Casino initiates the contract\n        casino = msg.sender;\n    }\n    \n    // Function to receive Ether. msg.data must be empty\n    receive() external payable {}\n\n    // Fallback function is called when msg.data is not empty\n    fallback() external payable {}\n    \n    // Function to send a value of money to an address\n    function sendViaCall(address payable _to, uint256 _amount) internal {\n        (bool sent, bytes memory data) = _to.call{value: _amount}(\"\"); \n        require(sent, \"Failed to send Ether\");\n    }\n    \n    // Function for the casino to deposit money, must be called for the rest of the contract to work\n    function depositMoney() public payable {\n        require(msg.sender == casino, \"Only the casino can deposit money\");\n        casinoDeposit = casinoDeposit + msg.value;\n    }\n    \n    function getCasinoDeposit() public view returns (uint256){\n        return casinoDeposit;\n    }\n    \n    function getOutcomeHash(bytes32 _outcomeHash) public returns (bytes32) {\n        require (resetPhase);\n        require(msg.sender == casino, \"Only the casino can generate outcome\");\n        require (commitHash == 0, \"Hash already created\");\n        commitHash = _outcomeHash;\n        resetPhase = false;\n        bettingPhase = true;\n        phaseEndTime = now + 2 minutes; \n        return commitHash;\n    }\n    \n    // Function for the casino to match the bet amount\n    function matchBet(uint256 _betAmount) internal {\n        casinoDeposit = casinoDeposit - _betAmount; // bet amount is deducted from casinoDeposit and but remains in the contract balance\n    }\n    \n    function placeBet(uint256[][] memory _bets) public payable {\n        require(bettingPhase);\n        address _playerAddress = msg.sender;\n        require(_playerAddress != casino, \"Casino cannot be a player\");\n        require(msg.value * 36 < casinoDeposit, \"Casino cannot cover bet\"); // Bet must be less than the money in the casino deposit to ensure casino can cover the bet\n        require(msg.value >= 1 wei, \"Bets must be  at least 1 wei\"); // Must be greater or equal to minimum bet of 1 wei\n        require(msg.value <= maxBet, \"Max bet exceeded\"); // Must be less than or equal to max bet of .001 ether\n        \n        if( !playerMap[_playerAddress].playerExists) { // If player is new\n            playerAddressArray.push(msg.sender); // Add player address to array of player addresses\n            playerMap[_playerAddress].playerAddress = msg.sender; \n            playerMap[_playerAddress].playerExists = true;\n        }\n        \n        setBet(_playerAddress, _bets, msg.value);\n    }\n    \n    // This is the spin wheel function\n    function revealWinningNumber(uint256 _winningNumber, bytes32 _nonce) public payable returns (uint256){\n        require(msg.sender == casino, \"Only the casino can revealWinningNumber\");\n        require(keccak256(abi.encodePacked(_winningNumber, _nonce)) ==  commitHash, \"Hash doesn't match\"); // Ensures winning winningNumber was not changed\n        bettingPhase = false;\n        payingPhase = true;\n        phaseEndTime = now + 30 seconds; \n        payout();\n        return winningNumber;\n    }\n    \n    function WinningNumber() public view returns (uint256)  {\n        require(payingPhase);\n        return winningNumber;\n    }\n    \n    function payout() internal{\n        require(payingPhase);\n        for (uint n = 0; n < playerAddressArray.length; n++){\n            address _playerAddress = playerAddressArray[n];\n            uint256 winAmount = 0;\n            uint256 loseAmount;\n            for(uint256 i = 0; i < playerMap[_playerAddress].bets.length; i++){ // Loop through players bets\n                playerMap[_playerAddress].win = false;\n                if (winningNumber == 0  || winningNumber == 38){ // Winning number is 0 or 00\n                    playerMap[_playerAddress].win = (playerMap[_playerAddress].bets[i].numbers[0] == winningNumber);\n                }\n                else if(playerMap[_playerAddress].bets[i].numbers[0] == 39){ // Evens\n                    playerMap[_playerAddress].win = (winningNumber % 2 == 0);\n                }\n                else if (playerMap[_playerAddress].bets[i].numbers[0] == 40){ // Odds\n                    playerMap[_playerAddress].win = (winningNumber % 2 == 1);\n                }\n                else if (playerMap[_playerAddress].bets[i].numbers[0] == 41){  // Blacks\n                    if (winningNumber <= 10 || (winningNumber >= 20 && winningNumber <= 28)) {\n                        playerMap[_playerAddress].win = (winningNumber % 2 == 0);\n                    } \n                    else {\n                        playerMap[_playerAddress].win = (winningNumber % 2 == 1);\n                    }\n                }\n                else if (playerMap[_playerAddress].bets[i].numbers[0] == 42 && winningNumber % 2 == 0){ // Reds\n                    if (winningNumber <= 10 || (winningNumber >= 20 && winningNumber <= 28)) {\n                        playerMap[_playerAddress].win = (winningNumber % 2 == 1);\n                    } \n                    else {\n                         playerMap[_playerAddress].win = (winningNumber % 2 == 0);\n                    }\n                }\n                else if (playerMap[_playerAddress].bets[i].numbers[0] == 43){ // First dozen\n                    playerMap[_playerAddress].win = (winningNumber <= 12);\n                }\n                else if (playerMap[_playerAddress].bets[i].numbers[0] == 44){ // Second dozen\n                    playerMap[_playerAddress].win = (winningNumber > 12 && winningNumber <= 24);\n                }\n                else if (playerMap[_playerAddress].bets[i].numbers[0] == 45){ // Third dozen\n                    playerMap[_playerAddress].win = (winningNumber > 24);\n                }\n                else if (playerMap[_playerAddress].bets[i].numbers[0] == 46){ // First Column\n                    playerMap[_playerAddress].win = (winningNumber % 3 == 1);\n                }\n                else if (playerMap[_playerAddress].bets[i].numbers[0] == 47){ // Second Column\n                    playerMap[_playerAddress].win = (winningNumber % 3 == 2);\n                }\n                else if (playerMap[_playerAddress].bets[i].numbers[0] == 48){ // Third Column\n                    playerMap[_playerAddress].win = (winningNumber % 3 == 0);\n                }\n                else {\n                    for(uint256 j = 0; j < playerMap[_playerAddress].bets[i].numbers.length; j++){ // Loop through every winningNumber in the bet\n                        if(playerMap[_playerAddress].bets[i].numbers[j] == winningNumber){ // Check if any are individual winning number\n                            playerMap[_playerAddress].win = true;\n                            break;\n                        }\n                    }\n                }\n                if (playerMap[_playerAddress].win == false){\n                    loseAmount = loseAmount + playerMap[_playerAddress].bets[i].betAmount;\n                }\n                else{\n                    winAmount = winAmount + playerMap[_playerAddress].bets[i].multiplier * playerMap[_playerAddress].bets[i].betAmount;\n                }\n            }\n            payCasino(loseAmount);\n            payPlayer(winAmount, _playerAddress);\n            updateWinnings(winAmount, loseAmount, _playerAddress);\n        }\n        \n    }\n    \n    function setBet(address _playerAddress, uint256[][] memory _bets, uint256 _betTotal) internal{\n        // Sample Bets [[100,1,2,3,4],[100,20],[100,1,2,3,4,5,6,7,8,9,10,11,12]]\n        uint256 betTotal = 0;\n        uint256 n = _bets.length;\n        for(uint i = 0; i < n; i++){\n            betTotal += _bets[i][0];\n        }\n        require(betTotal == _betTotal, \"Bet amount not equivalent to total bets\");\n        for(uint i = 0; i < n; i++){\n            uint256 betAmount = _bets[i][0];\n            uint256 multiplier = 36/(_bets[i].length - 1);\n            if(_bets[i][1] == 39 || _bets[i][1] == 40 || _bets[i][1] == 41 || _bets[i][1] == 42){ // Evens\n                multiplier = 2;\n            }\n            else if (_bets[i][1] == 43 || _bets[i][1] == 44 || _bets[i][1] == 45 || _bets[i][1] == 46 || _bets[i][1] == 47 || _bets[i][1] == 48){ // First dozen\n                multiplier = 3;\n            }\n            uint256[] memory numbers = new uint256[](_bets[i].length - 1);\n            for(uint j = 1; j < _bets[i].length; j++){\n                numbers[j-1]= _bets[i][j];\n            }\n            playerMap[_playerAddress].bets.push(Bet(numbers,multiplier,betAmount));\n        }\n    }\n    \n    function payCasino(uint256 amount) internal{\n        casinoDeposit = casinoDeposit + amount;\n    }\n    \n    function payPlayer(uint256 amount, address _playerAddress) internal{\n        casinoDeposit = casinoDeposit - amount;\n        sendViaCall(playerMap[_playerAddress].playerAddress, amount);\n        uint256 numberOfBets = playerMap[_playerAddress].bets.length;\n        for(uint256 i = 0; i < numberOfBets; i++){\n            playerMap[_playerAddress].bets.pop;\n        }\n    }\n    \n    // Funtion to return total balance of the contract which is casinoDeposit + all bets currently on the table\n    function getBalance() public view returns (uint) {\n        return address(this).balance;\n    }\n    \n    // See current players bets\n    function seeBets() public view returns (Bet[] memory){\n        return playerMap[msg.sender].bets;\n    }\n    \n    function seePlayerWinnings() public view returns (int256){\n        return playerMap[msg.sender].totalWinnings;\n    }\n    \n    function updateWinnings(uint256 winAmount, uint256 loseAmount, address _playerAddress) internal{\n        playerMap[_playerAddress].totalWinnings = playerMap[_playerAddress].totalWinnings + int256(winAmount - loseAmount);\n    }\n    \n    function gameReset() external{\n        require(msg.sender == casino, \"Only the casino can reset game\");\n        require(payingPhase);\n        require(commitHash != 0);\n        payingPhase = false;\n        resetPhase = true;\n        phaseEndTime = now + 15 seconds;\n        commitHash = 0;\n        lastWinningNumber = winningNumber;\n        winningNumber = 38;\n        for (uint i = 0; i < playerAddressArray.length; i++){\n            while(playerMap[playerAddressArray[i]].bets.length > 0){\n                playerMap[playerAddressArray[i]].bets.pop();\n            }\n            playerMap[playerAddressArray[i]].win = false;\n        }\n    }\n    \n    function removeBet(uint index) public {\n        address _playerAddress = msg.sender;\n        if (index >= playerMap[_playerAddress].bets.length) return ;\n        for (uint i = index; i< playerMap[_playerAddress].bets.length - 1; i++){\n            playerMap[_playerAddress].bets[i] = playerMap[_playerAddress].bets[i+1];\n        }\n        playerMap[_playerAddress].bets.pop();\n    }\n    \n    function getGameState() public view returns (string memory, uint256) {\n        string  memory str;\n        if (bettingPhase){\n            str  = \"bettingPhase\";\n        }  \n        else if (payingPhase){\n            str = \"payingPhase\";\n        }\n        else {\n            str = \"resetPhase\";\n        }\n        return (str, phaseEndTime - now );\n    }\n    \n}",
  "sourcePath": "/Users/MMayaguari/Documents/GitHub/EthereumRoullette/contracts/Roulette.sol",
  "compiler": {
    "name": "solc",
    "version": "0.6.6+commit.6c089d02.Emscripten.clang"
  },
  "schemaVersion": "3.3.4",
  "updatedAt": "2021-04-26T22:48:50.759Z",
  "networkType": "ethereum",
  "devdoc": {
    "methods": {}
  },
  "userdoc": {
    "methods": {}
  }
}