{
  "contractName": "Roulette",
  "abi": [
    {
      "inputs": [],
      "stateMutability": "payable",
      "type": "constructor",
      "payable": true
    },
    {
      "anonymous": false,
      "inputs": [],
      "name": "bettingPhaseClosed",
      "type": "event"
    },
    {
      "anonymous": false,
      "inputs": [],
      "name": "bettingPhaseOpen",
      "type": "event"
    },
    {
      "stateMutability": "payable",
      "type": "fallback",
      "payable": true
    },
    {
      "inputs": [],
      "name": "commitHash",
      "outputs": [
        {
          "internalType": "bytes32",
          "name": "",
          "type": "bytes32"
        }
      ],
      "stateMutability": "view",
      "type": "function",
      "constant": true
    },
    {
      "stateMutability": "payable",
      "type": "receive",
      "payable": true
    },
    {
      "inputs": [],
      "name": "depositMoney",
      "outputs": [],
      "stateMutability": "payable",
      "type": "function",
      "payable": true
    },
    {
      "inputs": [],
      "name": "getCasinoDeposit",
      "outputs": [
        {
          "internalType": "uint256",
          "name": "",
          "type": "uint256"
        }
      ],
      "stateMutability": "view",
      "type": "function",
      "constant": true
    },
    {
      "inputs": [],
      "name": "getCommitmentHash",
      "outputs": [
        {
          "internalType": "bytes32",
          "name": "",
          "type": "bytes32"
        }
      ],
      "stateMutability": "view",
      "type": "function",
      "constant": true
    },
    {
      "inputs": [
        {
          "internalType": "bytes32",
          "name": "_outcomeHash",
          "type": "bytes32"
        }
      ],
      "name": "setCommitmentHash",
      "outputs": [
        {
          "internalType": "bytes32",
          "name": "",
          "type": "bytes32"
        }
      ],
      "stateMutability": "nonpayable",
      "type": "function"
    },
    {
      "inputs": [
        {
          "internalType": "uint256[][]",
          "name": "_bets",
          "type": "uint256[][]"
        }
      ],
      "name": "placeBet",
      "outputs": [],
      "stateMutability": "payable",
      "type": "function",
      "payable": true
    },
    {
      "inputs": [
        {
          "internalType": "uint256",
          "name": "_winningNumber",
          "type": "uint256"
        },
        {
          "internalType": "bytes32",
          "name": "_nonce",
          "type": "bytes32"
        }
      ],
      "name": "revealWinningNumber",
      "outputs": [
        {
          "internalType": "uint256",
          "name": "",
          "type": "uint256"
        }
      ],
      "stateMutability": "payable",
      "type": "function",
      "payable": true
    },
    {
      "inputs": [],
      "name": "WinningNumber",
      "outputs": [
        {
          "internalType": "uint256",
          "name": "",
          "type": "uint256"
        }
      ],
      "stateMutability": "view",
      "type": "function",
      "constant": true
    },
    {
      "inputs": [],
      "name": "getBalance",
      "outputs": [
        {
          "internalType": "uint256",
          "name": "",
          "type": "uint256"
        }
      ],
      "stateMutability": "view",
      "type": "function",
      "constant": true
    },
    {
      "inputs": [],
      "name": "seeBets",
      "outputs": [
        {
          "components": [
            {
              "internalType": "uint256[]",
              "name": "numbers",
              "type": "uint256[]"
            },
            {
              "internalType": "uint256",
              "name": "multiplier",
              "type": "uint256"
            },
            {
              "internalType": "uint256",
              "name": "betAmount",
              "type": "uint256"
            }
          ],
          "internalType": "struct Roulette.Bet[]",
          "name": "",
          "type": "tuple[]"
        }
      ],
      "stateMutability": "view",
      "type": "function",
      "constant": true
    },
    {
      "inputs": [],
      "name": "seePlayerWinnings",
      "outputs": [
        {
          "internalType": "int256",
          "name": "",
          "type": "int256"
        }
      ],
      "stateMutability": "view",
      "type": "function",
      "constant": true
    },
    {
      "inputs": [],
      "name": "gameReset",
      "outputs": [],
      "stateMutability": "nonpayable",
      "type": "function"
    },
    {
      "inputs": [
        {
          "internalType": "uint256",
          "name": "index",
          "type": "uint256"
        }
      ],
      "name": "removeBet",
      "outputs": [],
      "stateMutability": "nonpayable",
      "type": "function"
    },
    {
      "inputs": [],
      "name": "getGameState",
      "outputs": [
        {
          "internalType": "string",
          "name": "",
          "type": "string"
        }
      ],
      "stateMutability": "view",
      "type": "function",
      "constant": true
    }
  ],
  "bytecode": "0x6080604052600060035566038d7ea4c6800060045530600560006101000a81548173ffffffffffffffffffffffffffffffffffffffff021916908373ffffffffffffffffffffffffffffffffffffffff1602179055506000801b60065560266007556000600960006101000a81548160ff0219169083151502179055506000600960016101000a81548160ff0219169083151502179055506001600960026101000a81548160ff0219169083151502179055506000600960036101000a81548160ff02191690831515021790555033600260006101000a81548173ffffffffffffffffffffffffffffffffffffffff021916908373ffffffffffffffffffffffffffffffffffffffff16021790555061368c8061011d6000396000f3fe6080604052600436106100e15760003560e01c806373b31cc21161007f578063b7d0628b11610059578063b7d0628b14610264578063bce5008c1461028f578063d14f6c06146102ba578063ec867c35146102e5576100e8565b806373b31cc2146101f25780637556e7bf1461020e578063857c1c9a14610239576100e8565b806316c05aa2116100bb57806316c05aa2146101575780634c2cbde7146101615780635c2029a91461019e5780636f2e5698146101c7576100e8565b806308873656146100ea57806312065fe014610101578063161ebe551461012c576100e8565b366100e857005b005b3480156100f657600080fd5b506100ff610315565b005b34801561010d57600080fd5b5061011661063a565b60405161012391906134a7565b60405180910390f35b34801561013857600080fd5b50610141610642565b60405161014e919061324d565b60405180910390f35b61015f61074c565b005b34801561016d57600080fd5b5061018860048036038101906101839190612a82565b610815565b604051610195919061326f565b60405180910390f35b3480156101aa57600080fd5b506101c560048036038101906101c09190612aab565b6109b0565b005b3480156101d357600080fd5b506101dc610bd6565b6040516101e991906134a7565b60405180910390f35b61020c60048036038101906102079190612a3d565b610be0565b005b34801561021a57600080fd5b50610223610e8d565b604051610230919061326f565b60405180910390f35b34801561024557600080fd5b5061024e610e97565b60405161025b919061326f565b60405180910390f35b34801561027057600080fd5b50610279610e9d565b60405161028691906132a5565b60405180910390f35b34801561029b57600080fd5b506102a4610f9b565b6040516102b1919061328a565b60405180910390f35b3480156102c657600080fd5b506102cf610fe4565b6040516102dc91906134a7565b60405180910390f35b6102ff60048036038101906102fa9190612ad4565b61103d565b60405161030c91906134a7565b60405180910390f35b600260009054906101000a900473ffffffffffffffffffffffffffffffffffffffff1673ffffffffffffffffffffffffffffffffffffffff163373ffffffffffffffffffffffffffffffffffffffff16146103a5576040517f08c379a000000000000000000000000000000000000000000000000000000000815260040161039c90613367565b60405180910390fd5b600960029054906101000a900460ff166103f4576040517f08c379a00000000000000000000000000000000000000000000000000000000081526004016103eb90613487565b60405180910390fd5b6000600960026101000a81548160ff0219169083151502179055506001600960036101000a81548160ff0219169083151502179055506000801b600681905550600754600881905550602660078190555060005b600180549050811015610637575b60008060006001848154811061046857fe5b9060005260206000200160009054906101000a900473ffffffffffffffffffffffffffffffffffffffff1673ffffffffffffffffffffffffffffffffffffffff1673ffffffffffffffffffffffffffffffffffffffff16815260200190815260200160002060010180549050111561059957600080600183815481106104ea57fe5b9060005260206000200160009054906101000a900473ffffffffffffffffffffffffffffffffffffffff1673ffffffffffffffffffffffffffffffffffffffff1673ffffffffffffffffffffffffffffffffffffffff16815260200190815260200160002060010180548061055b57fe5b60019003818190600052602060002090600302016000808201600061058091906128ec565b6001820160009055600282016000905550509055610456565b6000806000600184815481106105ab57fe5b9060005260206000200160009054906101000a900473ffffffffffffffffffffffffffffffffffffffff1673ffffffffffffffffffffffffffffffffffffffff1673ffffffffffffffffffffffffffffffffffffffff16815260200190815260200160002060000160156101000a81548160ff0219169083151502179055508080600101915050610448565b50565b600047905090565b60606000803373ffffffffffffffffffffffffffffffffffffffff1673ffffffffffffffffffffffffffffffffffffffff168152602001908152602001600020600101805480602002602001604051908101604052809291908181526020016000905b8282101561074357838290600052602060002090600302016040518060600160405290816000820180548060200260200160405190810160405280929190818152602001828054801561071757602002820191906000526020600020905b815481526020019060010190808311610703575b5050505050815260200160018201548152602001600282015481525050815260200190600101906106a5565b50505050905090565b600260009054906101000a900473ffffffffffffffffffffffffffffffffffffffff1673ffffffffffffffffffffffffffffffffffffffff163373ffffffffffffffffffffffffffffffffffffffff16146107dc576040517f08c379a00000000000000000000000000000000000000000000000000000000081526004016107d3906133e7565b60405180910390fd5b3460035401600381905550610813600560009054906101000a900473ffffffffffffffffffffffffffffffffffffffff16346111b7565b565b6000600960039054906101000a900460ff16610866576040517f08c379a000000000000000000000000000000000000000000000000000000000815260040161085d90613407565b60405180910390fd5b600260009054906101000a900473ffffffffffffffffffffffffffffffffffffffff1673ffffffffffffffffffffffffffffffffffffffff163373ffffffffffffffffffffffffffffffffffffffff16146108f6576040517f08c379a00000000000000000000000000000000000000000000000000000000081526004016108ed906133a7565b60405180910390fd5b6000801b6006541461093d576040517f08c379a000000000000000000000000000000000000000000000000000000000815260040161093490613387565b60405180910390fd5b816006819055506000600960036101000a81548160ff0219169083151502179055506001600960016101000a81548160ff0219169083151502179055507fd2228e25c75b435ba2d06ba60670e2ac7470fc7eb335c9954b054ec78ba754ea60405160405180910390a16006549050919050565b60003390506000808273ffffffffffffffffffffffffffffffffffffffff1673ffffffffffffffffffffffffffffffffffffffff168152602001908152602001600020600101805490508210610a065750610bd3565b60008290505b60016000808473ffffffffffffffffffffffffffffffffffffffff1673ffffffffffffffffffffffffffffffffffffffff1681526020019081526020016000206001018054905003811015610b4d576000808373ffffffffffffffffffffffffffffffffffffffff1673ffffffffffffffffffffffffffffffffffffffff1681526020019081526020016000206001016001820181548110610aaa57fe5b90600052602060002090600302016000808473ffffffffffffffffffffffffffffffffffffffff1673ffffffffffffffffffffffffffffffffffffffff1681526020019081526020016000206001018281548110610b0457fe5b90600052602060002090600302016000820181600001908054610b2892919061290d565b5060018201548160010155600282015481600201559050508080600101915050610a0c565b506000808273ffffffffffffffffffffffffffffffffffffffff1673ffffffffffffffffffffffffffffffffffffffff168152602001908152602001600020600101805480610b9857fe5b600190038181906000526020600020906003020160008082016000610bbd91906128ec565b6001820160009055600282016000905550509055505b50565b6000600354905090565b600960019054906101000a900460ff16610c2f576040517f08c379a0000000000000000000000000000000000000000000000000000000008152600401610c2690613447565b60405180910390fd5b60003390506003546024340210610c7b576040517f08c379a0000000000000000000000000000000000000000000000000000000008152600401610c72906133c7565b60405180910390fd5b6001341015610cbf576040517f08c379a0000000000000000000000000000000000000000000000000000000008152600401610cb6906132e7565b60405180910390fd5b6000808273ffffffffffffffffffffffffffffffffffffffff1673ffffffffffffffffffffffffffffffffffffffff16815260200190815260200160002060000160149054906101000a900460ff16610e50576001339080600181540180825580915050600190039060005260206000200160009091909190916101000a81548173ffffffffffffffffffffffffffffffffffffffff021916908373ffffffffffffffffffffffffffffffffffffffff160217905550336000808373ffffffffffffffffffffffffffffffffffffffff1673ffffffffffffffffffffffffffffffffffffffff16815260200190815260200160002060000160006101000a81548173ffffffffffffffffffffffffffffffffffffffff021916908373ffffffffffffffffffffffffffffffffffffffff16021790555060016000808373ffffffffffffffffffffffffffffffffffffffff1673ffffffffffffffffffffffffffffffffffffffff16815260200190815260200160002060000160146101000a81548160ff0219169083151502179055505b610e5c8184843461126c565b610e88600560009054906101000a900473ffffffffffffffffffffffffffffffffffffffff16346111b7565b505050565b6000600654905090565b60065481565b606080600960019054906101000a900460ff1615610ef2576040518060400160405280600c81526020017f62657474696e67506861736500000000000000000000000000000000000000008152509050610f94565b600960029054906101000a900460ff1615610f44576040518060400160405280600b81526020017f706179696e6750686173650000000000000000000000000000000000000000008152509050610f93565b600960039054906101000a900460ff1615610f92576040518060400160405280600a81526020017f726573657450686173650000000000000000000000000000000000000000000081525090505b5b5b8091505090565b60008060003373ffffffffffffffffffffffffffffffffffffffff1673ffffffffffffffffffffffffffffffffffffffff16815260200190815260200160002060020154905090565b6000600960029054906101000a900460ff16611035576040517f08c379a000000000000000000000000000000000000000000000000000000000815260040161102c90613347565b60405180910390fd5b600754905090565b6000600260009054906101000a900473ffffffffffffffffffffffffffffffffffffffff1673ffffffffffffffffffffffffffffffffffffffff163373ffffffffffffffffffffffffffffffffffffffff16146110cf576040517f08c379a00000000000000000000000000000000000000000000000000000000081526004016110c690613467565b60405180910390fd5b60065483836040516020016110e5929190613221565b604051602081830303815290604052805190602001201461113b576040517f08c379a000000000000000000000000000000000000000000000000000000000815260040161113290613427565b60405180910390fd5b6000600960016101000a81548160ff0219169083151502179055506001600960026101000a81548160ff0219169083151502179055507f3519c7bb8e965d3daa5bd3bcdc28caeb9de22aa7cb5fb7defa3bb5f150b08d0960405160405180910390a1826007819055506111ac611787565b600754905092915050565b600060608373ffffffffffffffffffffffffffffffffffffffff16836040516111df9061320c565b60006040518083038185875af1925050503d806000811461121c576040519150601f19603f3d011682016040523d82523d6000602084013e611221565b606091505b509150915081611266576040517f08c379a000000000000000000000000000000000000000000000000000000000815260040161125d90613327565b60405180910390fd5b50505050565b60008084849050905060005b818110156112c15785858281811061128c57fe5b905060200281019061129e91906134c2565b60008181106112a957fe5b90506020020135830192508080600101915050611278565b50828214611304576040517f08c379a00000000000000000000000000000000000000000000000000000000081526004016112fb906132c7565b60405180910390fd5b60005b8181101561177e57600086868381811061131d57fe5b905060200281019061132f91906134c2565b600081811061133a57fe5b9050602002013590506000600188888581811061135357fe5b905060200281019061136591906134c2565b90500360248161137157fe5b049050602788888581811061138257fe5b905060200281019061139491906134c2565b600181811061139f57fe5b9050602002013514806113e1575060288888858181106113bb57fe5b90506020028101906113cd91906134c2565b60018181106113d857fe5b90506020020135145b8061141b575060298888858181106113f557fe5b905060200281019061140791906134c2565b600181811061141257fe5b90506020020135145b806114555750602a88888581811061142f57fe5b905060200281019061144191906134c2565b600181811061144c57fe5b90506020020135145b1561146357600290506115c3565b602b88888581811061147157fe5b905060200281019061148391906134c2565b600181811061148e57fe5b9050602002013514806114d05750602c8888858181106114aa57fe5b90506020028101906114bc91906134c2565b60018181106114c757fe5b90506020020135145b8061150a5750602d8888858181106114e457fe5b90506020028101906114f691906134c2565b600181811061150157fe5b90506020020135145b806115445750602e88888581811061151e57fe5b905060200281019061153091906134c2565b600181811061153b57fe5b90506020020135145b8061157e5750602f88888581811061155857fe5b905060200281019061156a91906134c2565b600181811061157557fe5b90506020020135145b806115b85750603088888581811061159257fe5b90506020028101906115a491906134c2565b60018181106115af57fe5b90506020020135145b156115c257600390505b5b606060018989868181106115d357fe5b90506020028101906115e591906134c2565b90500367ffffffffffffffff811180156115fe57600080fd5b5060405190808252806020026020018201604052801561162d5781602001602082028036833780820191505090505b5090506000600190505b89898681811061164357fe5b905060200281019061165591906134c2565b90508110156116b55789898681811061166a57fe5b905060200281019061167c91906134c2565b8281811061168657fe5b9050602002013582600183038151811061169c57fe5b6020026020010181815250508080600101915050611637565b506000808b73ffffffffffffffffffffffffffffffffffffffff1673ffffffffffffffffffffffffffffffffffffffff1681526020019081526020016000206001016040518060600160405280838152602001848152602001858152509080600181540180825580915050600190039060005260206000209060030201600090919091909150600082015181600001908051906020019061175792919061295f565b50602082015181600101556040820151816002015550505050508080600101915050611307565b50505050505050565b600960029054906101000a900460ff166117d6576040517f08c379a00000000000000000000000000000000000000000000000000000000081526004016117cd90613307565b60405180910390fd5b60005b60018054905081101561272f576000600182815481106117f557fe5b9060005260206000200160009054906101000a900473ffffffffffffffffffffffffffffffffffffffff16905060008080600090505b6000808573ffffffffffffffffffffffffffffffffffffffff1673ffffffffffffffffffffffffffffffffffffffff168152602001908152602001600020600101805490508110156127005760008060008673ffffffffffffffffffffffffffffffffffffffff1673ffffffffffffffffffffffffffffffffffffffff16815260200190815260200160002060000160156101000a81548160ff021916908315150217905550600060075414806118e457506026600754145b156119be576007546000808673ffffffffffffffffffffffffffffffffffffffff1673ffffffffffffffffffffffffffffffffffffffff168152602001908152602001600020600101828154811061193857fe5b906000526020600020906003020160000160008154811061195557fe5b9060005260206000200154146000808673ffffffffffffffffffffffffffffffffffffffff1673ffffffffffffffffffffffffffffffffffffffff16815260200190815260200160002060000160156101000a81548160ff02191690831515021790555061256f565b60276000808673ffffffffffffffffffffffffffffffffffffffff1673ffffffffffffffffffffffffffffffffffffffff1681526020019081526020016000206001018281548110611a0c57fe5b9060005260206000209060030201600001600081548110611a2957fe5b90600052602060002001541415611aa7576000600260075481611a4857fe5b06146000808673ffffffffffffffffffffffffffffffffffffffff1673ffffffffffffffffffffffffffffffffffffffff16815260200190815260200160002060000160156101000a81548160ff02191690831515021790555061256e565b60286000808673ffffffffffffffffffffffffffffffffffffffff1673ffffffffffffffffffffffffffffffffffffffff1681526020019081526020016000206001018281548110611af557fe5b9060005260206000209060030201600001600081548110611b1257fe5b90600052602060002001541415611b90576001600260075481611b3157fe5b06146000808673ffffffffffffffffffffffffffffffffffffffff1673ffffffffffffffffffffffffffffffffffffffff16815260200190815260200160002060000160156101000a81548160ff02191690831515021790555061256d565b60296000808673ffffffffffffffffffffffffffffffffffffffff1673ffffffffffffffffffffffffffffffffffffffff1681526020019081526020016000206001018281548110611bde57fe5b9060005260206000209060030201600001600081548110611bfb57fe5b90600052602060002001541415611d1057600a600754111580611c305750601460075410158015611c2f5750601c60075411155b5b15611ca2576000600260075481611c4357fe5b06146000808673ffffffffffffffffffffffffffffffffffffffff1673ffffffffffffffffffffffffffffffffffffffff16815260200190815260200160002060000160156101000a81548160ff021916908315150217905550611d0b565b6001600260075481611cb057fe5b06146000808673ffffffffffffffffffffffffffffffffffffffff1673ffffffffffffffffffffffffffffffffffffffff16815260200190815260200160002060000160156101000a81548160ff0219169083151502179055505b61256c565b602a6000808673ffffffffffffffffffffffffffffffffffffffff1673ffffffffffffffffffffffffffffffffffffffff1681526020019081526020016000206001018281548110611d5e57fe5b9060005260206000209060030201600001600081548110611d7b57fe5b9060005260206000200154148015611d9f57506000600260075481611d9c57fe5b06145b15611ea857600a600754111580611dc85750601460075410158015611dc75750601c60075411155b5b15611e3a576001600260075481611ddb57fe5b06146000808673ffffffffffffffffffffffffffffffffffffffff1673ffffffffffffffffffffffffffffffffffffffff16815260200190815260200160002060000160156101000a81548160ff021916908315150217905550611ea3565b6000600260075481611e4857fe5b06146000808673ffffffffffffffffffffffffffffffffffffffff1673ffffffffffffffffffffffffffffffffffffffff16815260200190815260200160002060000160156101000a81548160ff0219169083151502179055505b61256b565b602b6000808673ffffffffffffffffffffffffffffffffffffffff1673ffffffffffffffffffffffffffffffffffffffff1681526020019081526020016000206001018281548110611ef657fe5b9060005260206000209060030201600001600081548110611f1357fe5b90600052602060002001541415611f8857600c60075411156000808673ffffffffffffffffffffffffffffffffffffffff1673ffffffffffffffffffffffffffffffffffffffff16815260200190815260200160002060000160156101000a81548160ff02191690831515021790555061256a565b602c6000808673ffffffffffffffffffffffffffffffffffffffff1673ffffffffffffffffffffffffffffffffffffffff1681526020019081526020016000206001018281548110611fd657fe5b9060005260206000209060030201600001600081548110611ff357fe5b9060005260206000200154141561207657600c6007541180156120195750601860075411155b6000808673ffffffffffffffffffffffffffffffffffffffff1673ffffffffffffffffffffffffffffffffffffffff16815260200190815260200160002060000160156101000a81548160ff021916908315150217905550612569565b602d6000808673ffffffffffffffffffffffffffffffffffffffff1673ffffffffffffffffffffffffffffffffffffffff16815260200190815260200160002060010182815481106120c457fe5b90600052602060002090600302016000016000815481106120e157fe5b90600052602060002001541415612155576018600754116000808673ffffffffffffffffffffffffffffffffffffffff1673ffffffffffffffffffffffffffffffffffffffff16815260200190815260200160002060000160156101000a81548160ff021916908315150217905550612568565b602e6000808673ffffffffffffffffffffffffffffffffffffffff1673ffffffffffffffffffffffffffffffffffffffff16815260200190815260200160002060010182815481106121a357fe5b90600052602060002090600302016000016000815481106121c057fe5b9060005260206000200154141561223e5760016003600754816121df57fe5b06146000808673ffffffffffffffffffffffffffffffffffffffff1673ffffffffffffffffffffffffffffffffffffffff16815260200190815260200160002060000160156101000a81548160ff021916908315150217905550612567565b602f6000808673ffffffffffffffffffffffffffffffffffffffff1673ffffffffffffffffffffffffffffffffffffffff168152602001908152602001600020600101828154811061228c57fe5b90600052602060002090600302016000016000815481106122a957fe5b906000526020600020015414156123275760026003600754816122c857fe5b06146000808673ffffffffffffffffffffffffffffffffffffffff1673ffffffffffffffffffffffffffffffffffffffff16815260200190815260200160002060000160156101000a81548160ff021916908315150217905550612566565b60306000808673ffffffffffffffffffffffffffffffffffffffff1673ffffffffffffffffffffffffffffffffffffffff168152602001908152602001600020600101828154811061237557fe5b906000526020600020906003020160000160008154811061239257fe5b906000526020600020015414156124105760006003600754816123b157fe5b06146000808673ffffffffffffffffffffffffffffffffffffffff1673ffffffffffffffffffffffffffffffffffffffff16815260200190815260200160002060000160156101000a81548160ff021916908315150217905550612565565b60005b6000808673ffffffffffffffffffffffffffffffffffffffff1673ffffffffffffffffffffffffffffffffffffffff168152602001908152602001600020600101828154811061245f57fe5b906000526020600020906003020160000180549050811015612563576007546000808773ffffffffffffffffffffffffffffffffffffffff1673ffffffffffffffffffffffffffffffffffffffff16815260200190815260200160002060010183815481106124ca57fe5b906000526020600020906003020160000182815481106124e657fe5b906000526020600020015414156125565760016000808773ffffffffffffffffffffffffffffffffffffffff1673ffffffffffffffffffffffffffffffffffffffff16815260200190815260200160002060000160156101000a81548160ff021916908315150217905550612563565b8080600101915050612413565b505b5b5b5b5b5b5b5b5b5b5b600015156000808673ffffffffffffffffffffffffffffffffffffffff1673ffffffffffffffffffffffffffffffffffffffff16815260200190815260200160002060000160159054906101000a900460ff1615151415612631576000808573ffffffffffffffffffffffffffffffffffffffff1673ffffffffffffffffffffffffffffffffffffffff168152602001908152602001600020600101818154811061261657fe5b906000526020600020906003020160020154820191506126f3565b6000808573ffffffffffffffffffffffffffffffffffffffff1673ffffffffffffffffffffffffffffffffffffffff168152602001908152602001600020600101818154811061267d57fe5b9060005260206000209060030201600201546000808673ffffffffffffffffffffffffffffffffffffffff1673ffffffffffffffffffffffffffffffffffffffff16815260200190815260200160002060010182815481106126db57fe5b90600052602060002090600302016001015402830192505b808060010191505061182b565b5061270a81612732565b6127148284612740565b61271f82828561285c565b50505080806001019150506117d9565b50565b806003540160038190555050565b81600354036003819055506127b66000808373ffffffffffffffffffffffffffffffffffffffff1673ffffffffffffffffffffffffffffffffffffffff16815260200190815260200160002060000160009054906101000a900473ffffffffffffffffffffffffffffffffffffffff16836111b7565b60008060008373ffffffffffffffffffffffffffffffffffffffff1673ffffffffffffffffffffffffffffffffffffffff16815260200190815260200160002060010180549050905060005b81811015612856576000808473ffffffffffffffffffffffffffffffffffffffff1673ffffffffffffffffffffffffffffffffffffffff168152602001908152602001600020508080600101915050612802565b50505050565b8183036000808373ffffffffffffffffffffffffffffffffffffffff1673ffffffffffffffffffffffffffffffffffffffff16815260200190815260200160002060020154016000808373ffffffffffffffffffffffffffffffffffffffff1673ffffffffffffffffffffffffffffffffffffffff16815260200190815260200160002060020181905550505050565b508054600082559060005260206000209081019061290a91906129ac565b50565b82805482825590600052602060002090810192821561294e5760005260206000209182015b8281111561294d578254825591600101919060010190612932565b5b50905061295b91906129ac565b5090565b82805482825590600052602060002090810192821561299b579160200282015b8281111561299a57825182559160200191906001019061297f565b5b5090506129a891906129ac565b5090565b5b808211156129c55760008160009055506001016129ad565b5090565b60008083601f8401126129db57600080fd5b8235905067ffffffffffffffff8111156129f457600080fd5b602083019150836020820283011115612a0c57600080fd5b9250929050565b600081359050612a2281613628565b92915050565b600081359050612a378161363f565b92915050565b60008060208385031215612a5057600080fd5b600083013567ffffffffffffffff811115612a6a57600080fd5b612a76858286016129c9565b92509250509250929050565b600060208284031215612a9457600080fd5b6000612aa284828501612a13565b91505092915050565b600060208284031215612abd57600080fd5b6000612acb84828501612a28565b91505092915050565b60008060408385031215612ae757600080fd5b6000612af585828601612a28565b9250506020612b0685828601612a13565b9150509250929050565b6000612b1c8383613187565b905092915050565b6000612b3083836131d7565b60208301905092915050565b6000612b4782613539565b612b518185613574565b935083602082028501612b6385613519565b8060005b85811015612b9f5784840389528151612b808582612b10565b9450612b8b8361355a565b925060208a01995050600181019050612b67565b50829750879550505050505092915050565b6000612bbc82613544565b612bc68185613585565b9350612bd183613529565b8060005b83811015612c02578151612be98882612b24565b9750612bf483613567565b925050600181019050612bd5565b5085935050505092915050565b612c18816135b2565b82525050565b612c2f612c2a826135b2565b613603565b82525050565b612c3e816135bc565b82525050565b6000612c4f8261354f565b612c5981856135a1565b9350612c698185602086016135d0565b612c7281613617565b840191505092915050565b6000612c8a6027836135a1565b91507f42657420616d6f756e74206e6f74206571756976616c656e7420746f20746f7460008301527f616c2062657473000000000000000000000000000000000000000000000000006020830152604082019050919050565b6000612cf0601c836135a1565b91507f42657473206d75737420626520206174206c65617374203120776569000000006000830152602082019050919050565b6000612d306025836135a1565b91507f5061796f75742063616e6e6f74206f6363757220647572696e6720746869732060008301527f70686173650000000000000000000000000000000000000000000000000000006020830152604082019050919050565b6000612d966014836135a1565b91507f4661696c656420746f2073656e642045746865720000000000000000000000006000830152602082019050919050565b6000612dd6602b836135a1565b91507f43616e6e6f74207365652077696e6e696e67206e756d62657220647572696e6760008301527f20746869732070686173650000000000000000000000000000000000000000006020830152604082019050919050565b6000612e3c601e836135a1565b91507f4f6e6c792074686520636173696e6f2063616e2072657365742067616d6500006000830152602082019050919050565b6000612e7c6014836135a1565b91507f4861736820616c726561647920637265617465640000000000000000000000006000830152602082019050919050565b6000612ebc6024836135a1565b91507f4f6e6c792074686520636173696e6f2063616e2067656e6572617465206f757460008301527f636f6d65000000000000000000000000000000000000000000000000000000006020830152604082019050919050565b6000612f226017836135a1565b91507f436173696e6f2063616e6e6f7420636f766572206265740000000000000000006000830152602082019050919050565b6000612f626021836135a1565b91507f4f6e6c792074686520636173696e6f2063616e206465706f736974206d6f6e6560008301527f79000000000000000000000000000000000000000000000000000000000000006020830152604082019050919050565b6000612fc8602c836135a1565b91507f63616e6e6f742073657420636f6d6d69746d656e74206861736820647572696e60008301527f67207468697320706861736500000000000000000000000000000000000000006020830152604082019050919050565b600061302e600083613596565b9150600082019050919050565b60006130486012836135a1565b91507f4861736820646f65736e2774206d6174636800000000000000000000000000006000830152602082019050919050565b60006130886013836135a1565b91507f42657474696e67206973206e6f74206f70656e000000000000000000000000006000830152602082019050919050565b60006130c86027836135a1565b91507f4f6e6c792074686520636173696e6f2063616e2072657665616c57696e6e696e60008301527f674e756d626572000000000000000000000000000000000000000000000000006020830152604082019050919050565b600061312e6024836135a1565b91507f63616e6e6f74207265736573742067616d6520647572696e672074686973207060008301527f68617365000000000000000000000000000000000000000000000000000000006020830152604082019050919050565b600060608301600083015184820360008601526131a48282612bb1565b91505060208301516131b960208601826131d7565b5060408301516131cc60408601826131d7565b508091505092915050565b6131e0816135c6565b82525050565b6131ef816135c6565b82525050565b613206613201826135c6565b61360d565b82525050565b600061321782613021565b9150819050919050565b600061322d82856131f5565b60208201915061323d8284612c1e565b6020820191508190509392505050565b600060208201905081810360008301526132678184612b3c565b905092915050565b60006020820190506132846000830184612c0f565b92915050565b600060208201905061329f6000830184612c35565b92915050565b600060208201905081810360008301526132bf8184612c44565b905092915050565b600060208201905081810360008301526132e081612c7d565b9050919050565b6000602082019050818103600083015261330081612ce3565b9050919050565b6000602082019050818103600083015261332081612d23565b9050919050565b6000602082019050818103600083015261334081612d89565b9050919050565b6000602082019050818103600083015261336081612dc9565b9050919050565b6000602082019050818103600083015261338081612e2f565b9050919050565b600060208201905081810360008301526133a081612e6f565b9050919050565b600060208201905081810360008301526133c081612eaf565b9050919050565b600060208201905081810360008301526133e081612f15565b9050919050565b6000602082019050818103600083015261340081612f55565b9050919050565b6000602082019050818103600083015261342081612fbb565b9050919050565b600060208201905081810360008301526134408161303b565b9050919050565b600060208201905081810360008301526134608161307b565b9050919050565b60006020820190508181036000830152613480816130bb565b9050919050565b600060208201905081810360008301526134a081613121565b9050919050565b60006020820190506134bc60008301846131e6565b92915050565b600080833560016020038436030381126134db57600080fd5b80840192508235915067ffffffffffffffff8211156134f957600080fd5b60208301925060208202360383131561351157600080fd5b509250929050565b6000819050602082019050919050565b6000819050602082019050919050565b600081519050919050565b600081519050919050565b600081519050919050565b6000602082019050919050565b6000602082019050919050565b600082825260208201905092915050565b600082825260208201905092915050565b600081905092915050565b600082825260208201905092915050565b6000819050919050565b6000819050919050565b6000819050919050565b60005b838110156135ee5780820151818401526020810190506135d3565b838111156135fd576000848401525b50505050565b6000819050919050565b6000819050919050565b6000601f19601f8301169050919050565b613631816135b2565b811461363c57600080fd5b50565b613648816135c6565b811461365357600080fd5b5056fea26469706673582212207525bf9dded1815234114cc511d5fd28372299e350d8efdf1508c87b93b15f0a64736f6c634300060c0033",
  "immutableReferences": {},
  "source": "pragma solidity ^0.6.6;\npragma experimental ABIEncoderV2;\n\n\ncontract Roulette { \n    \n    struct Bet {\n        uint256[] numbers;\n        uint256 multiplier;\n        uint256 betAmount;\n    }\n    \n    struct Player {\n        address payable playerAddress;\n        bool playerExists; // Whether the player has already been added to map and array;\n        bool win; // Whether the player won or lost\n        // bool gameInProgress; // Whether the player is currently playing a game\n        // uint256 result;\n        Bet[] bets;\n        int256 totalWinnings; // Keeps track of player balance\n    }\n    \n    event  bettingPhaseOpen();\n    event bettingPhaseClosed();\n    \n    mapping(address => Player) playerMap; // Map containing all players playing the game (this is not iterable)\n    address[] playerAddressArray; // Array of all players addresses of players playing the game (this is iterable)\n    address payable casino;  // Address of the casino, will not change after contract is deployed\n    uint256 casinoDeposit = 0; // Value of the casino deposit\n    uint256 maxBet = .001 ether; \n    address payable contractAddress = address(this);  // Address of this contract\n    bytes32 public commitHash = 0;\n    uint256 winningNumber = 38;\n    uint256 lastWinningNumber;\n    bool wheelSpun = false;\n    \n    bool bettingPhase  = false;\n    bool payingPhase = true ;\n    bool resetPhase = false;\n\n    constructor () public payable{\n        // Casino initiates the contract\n        casino = msg.sender;\n    }\n    \n    // Function to receive Ether. msg.data must be empty\n    receive() external payable {}\n\n    // Fallback function is called when msg.data is not empty\n    fallback() external payable {}\n    \n    // Function to send a value of money to an address\n    function sendViaCall(address payable _to, uint256 _amount) internal {\n        (bool sent, bytes memory data) = _to.call{value: _amount}(\"\"); \n        require(sent, \"Failed to send Ether\");\n    }\n    \n    // Function for the casino to deposit money, must be called for the rest of the contract to work\n    function depositMoney() public payable {\n        require(msg.sender == casino, \"Only the casino can deposit money\");\n        casinoDeposit = casinoDeposit + msg.value;\n        sendViaCall(contractAddress, msg.value);\n    }\n    \n    function getCasinoDeposit() public view returns (uint256){\n        return casinoDeposit;\n    }\n    \n    function getCommitmentHash() public view returns (bytes32){\n        return commitHash;\n    }\n    \n    function setCommitmentHash(bytes32 _outcomeHash) external returns (bytes32) {\n        require (resetPhase, \"cannot set commitment hash during this phase\");\n        require (msg.sender == casino, \"Only the casino can generate outcome\");\n        require (commitHash == 0, \"Hash already created\");\n        commitHash = _outcomeHash;\n        resetPhase = false;\n        bettingPhase = true;\n        emit bettingPhaseOpen();\n        return commitHash;\n    }\n    \n    // Function for the casino to match the bet amount\n    function matchBet(uint256 _betAmount) internal {\n        casinoDeposit = casinoDeposit - _betAmount; // bet amount is deducted from casinoDeposit and but remains in the contract balance\n    }\n    \n    function placeBet(uint256[][] calldata _bets) external payable {\n        require(bettingPhase, \"Betting is not open\");\n        address _playerAddress = msg.sender;\n        // require(_playerAddress != casino, \"Casino cannot be a player\");\n        require(msg.value * 36 < casinoDeposit, \"Casino cannot cover bet\"); // Bet must be less than the money in the casino deposit to ensure casino can cover the bet\n        require(msg.value >= 1 wei, \"Bets must be  at least 1 wei\"); // Must be greater or equal to minimum bet of 1 wei\n        // require(msg.value <= maxBet, \"Max bet exceeded\"); // Must be less than or equal to max bet of .001 ether\n        \n        if( !playerMap[_playerAddress].playerExists) { // If player is new\n            playerAddressArray.push(msg.sender); // Add player address to array of player addresses\n            playerMap[_playerAddress].playerAddress = msg.sender; \n            playerMap[_playerAddress].playerExists = true;\n        }\n        \n        setBet(_playerAddress, _bets, msg.value);\n        sendViaCall(contractAddress, msg.value);\n    }\n    \n    // sample nonce: 0x3ac225168df54212a25c1c01fd35bebfea408fdac2e31ddd6f80a4bbf9a5f1cb\n    // sample number: 20\n    // sample commitHash: 0xf93eed68034dba759863259ca8eeb952ef5275db301ee8afe2da218326801d7e\n    \n    // This is the spin wheel function\n    function revealWinningNumber(uint256 _winningNumber, bytes32 _nonce) public payable returns (uint256){\n        require(msg.sender == casino, \"Only the casino can revealWinningNumber\");\n        require(keccak256(abi.encodePacked(_winningNumber, _nonce)) ==  commitHash, \"Hash doesn't match\"); // Ensures winning winningNumber was not changed\n        bettingPhase = false;\n        payingPhase = true;\n        emit bettingPhaseClosed();\n        winningNumber = _winningNumber;\n        payout();\n        return winningNumber;\n    }\n    \n    function WinningNumber() public view returns (uint256)  {\n        require(payingPhase, \"Cannot see winning number during this phase\");\n        return winningNumber;\n    }\n    \n    function payout() internal{\n        require(payingPhase, \"Payout cannot occur during this phase\");\n        for (uint n = 0; n < playerAddressArray.length; n++){\n            address _playerAddress = playerAddressArray[n];\n            uint256 winAmount = 0;\n            uint256 loseAmount;\n            for(uint256 i = 0; i < playerMap[_playerAddress].bets.length; i++){ // Loop through players bets\n                playerMap[_playerAddress].win = false;\n                if (winningNumber == 0  || winningNumber == 38){ // Winning number is 0 or 00\n                    playerMap[_playerAddress].win = (playerMap[_playerAddress].bets[i].numbers[0] == winningNumber);\n                }\n                else if(playerMap[_playerAddress].bets[i].numbers[0] == 39){ // Evens\n                    playerMap[_playerAddress].win = (winningNumber % 2 == 0);\n                }\n                else if (playerMap[_playerAddress].bets[i].numbers[0] == 40){ // Odds\n                    playerMap[_playerAddress].win = (winningNumber % 2 == 1);\n                }\n                else if (playerMap[_playerAddress].bets[i].numbers[0] == 41){  // Blacks\n                    if (winningNumber <= 10 || (winningNumber >= 20 && winningNumber <= 28)) {\n                        playerMap[_playerAddress].win = (winningNumber % 2 == 0);\n                    } \n                    else {\n                        playerMap[_playerAddress].win = (winningNumber % 2 == 1);\n                    }\n                }\n                else if (playerMap[_playerAddress].bets[i].numbers[0] == 42 && winningNumber % 2 == 0){ // Reds\n                    if (winningNumber <= 10 || (winningNumber >= 20 && winningNumber <= 28)) {\n                        playerMap[_playerAddress].win = (winningNumber % 2 == 1);\n                    } \n                    else {\n                         playerMap[_playerAddress].win = (winningNumber % 2 == 0);\n                    }\n                }\n                else if (playerMap[_playerAddress].bets[i].numbers[0] == 43){ // First dozen\n                    playerMap[_playerAddress].win = (winningNumber <= 12);\n                }\n                else if (playerMap[_playerAddress].bets[i].numbers[0] == 44){ // Second dozen\n                    playerMap[_playerAddress].win = (winningNumber > 12 && winningNumber <= 24);\n                }\n                else if (playerMap[_playerAddress].bets[i].numbers[0] == 45){ // Third dozen\n                    playerMap[_playerAddress].win = (winningNumber > 24);\n                }\n                else if (playerMap[_playerAddress].bets[i].numbers[0] == 46){ // First Column\n                    playerMap[_playerAddress].win = (winningNumber % 3 == 1);\n                }\n                else if (playerMap[_playerAddress].bets[i].numbers[0] == 47){ // Second Column\n                    playerMap[_playerAddress].win = (winningNumber % 3 == 2);\n                }\n                else if (playerMap[_playerAddress].bets[i].numbers[0] == 48){ // Third Column\n                    playerMap[_playerAddress].win = (winningNumber % 3 == 0);\n                }\n                else {\n                    for(uint256 j = 0; j < playerMap[_playerAddress].bets[i].numbers.length; j++){ // Loop through every winningNumber in the bet\n                        if(playerMap[_playerAddress].bets[i].numbers[j] == winningNumber){ // Check if any are individual winning number\n                            playerMap[_playerAddress].win = true;\n                            break;\n                        }\n                    }\n                }\n                if (playerMap[_playerAddress].win == false){\n                    loseAmount = loseAmount + playerMap[_playerAddress].bets[i].betAmount;\n                }\n                else{\n                    winAmount = winAmount + playerMap[_playerAddress].bets[i].multiplier * playerMap[_playerAddress].bets[i].betAmount;\n                }\n            }\n            payCasino(loseAmount);\n            payPlayer(winAmount, _playerAddress);\n            updateWinnings(winAmount, loseAmount, _playerAddress);\n        }\n        \n    }\n    \n    function setBet(address _playerAddress, uint256[][] calldata _bets, uint256 _betTotal) internal{\n        // Sample Bets [[100,1,2,3,4],[100,20],[100,1,2,3,4,5,6,7,8,9,10,11,12]]\n        uint256 betTotal = 0;\n        uint256 n = _bets.length;\n        for(uint i = 0; i < n; i++){\n            betTotal += _bets[i][0];\n        }\n        require(betTotal == _betTotal, \"Bet amount not equivalent to total bets\");\n        for(uint i = 0; i < n; i++){\n            uint256 betAmount = _bets[i][0];\n            uint256 multiplier = 36/(_bets[i].length - 1);\n            if(_bets[i][1] == 39 || _bets[i][1] == 40 || _bets[i][1] == 41 || _bets[i][1] == 42){ // Evens\n                multiplier = 2;\n            }\n            else if (_bets[i][1] == 43 || _bets[i][1] == 44 || _bets[i][1] == 45 || _bets[i][1] == 46 || _bets[i][1] == 47 || _bets[i][1] == 48){ // First dozen\n                multiplier = 3;\n            }\n            uint256[] memory numbers = new uint256[](_bets[i].length - 1);\n            for(uint j = 1; j < _bets[i].length; j++){\n                numbers[j-1]= _bets[i][j];\n            }\n            playerMap[_playerAddress].bets.push(Bet(numbers,multiplier,betAmount));\n        }\n    }\n    \n    function payCasino(uint256 amount) internal{\n        casinoDeposit = casinoDeposit + amount;\n    }\n    \n    function payPlayer(uint256 amount, address _playerAddress) internal{\n        casinoDeposit = casinoDeposit - amount;\n        sendViaCall(playerMap[_playerAddress].playerAddress, amount);\n        uint256 numberOfBets = playerMap[_playerAddress].bets.length;\n        for(uint256 i = 0; i < numberOfBets; i++){\n            playerMap[_playerAddress].bets.pop;\n        }\n    }\n    \n    // Funtion to return total balance of the contract which is casinoDeposit + all bets currently on the table\n    function getBalance() public view returns (uint) {\n        return address(this).balance;\n    }\n    \n    // See current players bets\n    function seeBets() public view returns (Bet[] memory){\n        return playerMap[msg.sender].bets;\n    }\n    \n    function seePlayerWinnings() public view returns (int256){\n        return playerMap[msg.sender].totalWinnings;\n    }\n    \n    function updateWinnings(uint256 winAmount, uint256 loseAmount, address _playerAddress) internal{\n        playerMap[_playerAddress].totalWinnings = playerMap[_playerAddress].totalWinnings + int256(winAmount - loseAmount);\n    }\n    \n    function gameReset() external{\n        require(msg.sender == casino, \"Only the casino can reset game\");\n        require(payingPhase, \"cannot resest game during this phase\");\n        payingPhase = false;\n        resetPhase = true;\n        commitHash = 0;\n        lastWinningNumber = winningNumber;\n        winningNumber = 38;\n        for (uint i = 0; i < playerAddressArray.length; i++){\n            while(playerMap[playerAddressArray[i]].bets.length > 0){\n                playerMap[playerAddressArray[i]].bets.pop();\n            }\n            playerMap[playerAddressArray[i]].win = false;\n        }\n    }\n    \n    function removeBet(uint index) public {\n        address _playerAddress = msg.sender;\n        if (index >= playerMap[_playerAddress].bets.length) return ;\n        for (uint i = index; i< playerMap[_playerAddress].bets.length - 1; i++){\n            playerMap[_playerAddress].bets[i] = playerMap[_playerAddress].bets[i+1];\n        }\n        playerMap[_playerAddress].bets.pop();\n    }\n    \n    function getGameState() public view returns (string memory) {\n        string  memory str;\n        if (bettingPhase){\n            str  = \"bettingPhase\";\n        }  \n        else if (payingPhase){\n            str = \"payingPhase\";\n        }\n        else if (resetPhase) {\n            str = \"resetPhase\";\n        }\n        return (str);\n    }\n    \n    \n}\n",
  "sourcePath": "/Users/MMayaguari/Documents/GitHub/EthereumRoullette/contracts/Roulette.sol",
  "compiler": {
    "name": "solc",
    "version": "0.6.12+commit.27d51765.Emscripten.clang"
  },
  "schemaVersion": "3.3.4",
  "updatedAt": "2021-05-13T02:58:21.990Z",
  "networkType": "ethereum",
  "devdoc": {
    "kind": "dev",
    "methods": {},
    "version": 1
  },
  "userdoc": {
    "kind": "user",
    "methods": {},
    "version": 1
  }
}