{
  "contractName": "Roulette",
  "abi": [
    {
      "inputs": [],
      "stateMutability": "payable",
      "type": "constructor",
      "payable": true
    },
    {
      "anonymous": false,
      "inputs": [],
      "name": "bettingPhaseClosed",
      "type": "event"
    },
    {
      "anonymous": false,
      "inputs": [],
      "name": "bettingPhaseOpen",
      "type": "event"
    },
    {
      "stateMutability": "payable",
      "type": "fallback",
      "payable": true
    },
    {
      "inputs": [],
      "name": "commitHash",
      "outputs": [
        {
          "internalType": "bytes32",
          "name": "",
          "type": "bytes32"
        }
      ],
      "stateMutability": "view",
      "type": "function",
      "constant": true
    },
    {
      "stateMutability": "payable",
      "type": "receive",
      "payable": true
    },
    {
      "inputs": [],
      "name": "depositMoney",
      "outputs": [],
      "stateMutability": "payable",
      "type": "function",
      "payable": true
    },
    {
      "inputs": [],
      "name": "getCasinoDeposit",
      "outputs": [
        {
          "internalType": "uint256",
          "name": "",
          "type": "uint256"
        }
      ],
      "stateMutability": "view",
      "type": "function",
      "constant": true
    },
    {
      "inputs": [],
      "name": "getCommitmentHash",
      "outputs": [
        {
          "internalType": "uint256",
          "name": "",
          "type": "uint256"
        }
      ],
      "stateMutability": "view",
      "type": "function",
      "constant": true
    },
    {
      "inputs": [
        {
          "internalType": "bytes32",
          "name": "_outcomeHash",
          "type": "bytes32"
        }
      ],
      "name": "setCommitmentHash",
      "outputs": [
        {
          "internalType": "bytes32",
          "name": "",
          "type": "bytes32"
        }
      ],
      "stateMutability": "nonpayable",
      "type": "function"
    },
    {
      "inputs": [
        {
          "internalType": "uint256[][]",
          "name": "_bets",
          "type": "uint256[][]"
        }
      ],
      "name": "placeBet",
      "outputs": [],
      "stateMutability": "payable",
      "type": "function",
      "payable": true
    },
    {
      "inputs": [
        {
          "internalType": "uint256",
          "name": "_winningNumber",
          "type": "uint256"
        },
        {
          "internalType": "bytes32",
          "name": "_nonce",
          "type": "bytes32"
        }
      ],
      "name": "revealWinningNumber",
      "outputs": [
        {
          "internalType": "uint256",
          "name": "",
          "type": "uint256"
        }
      ],
      "stateMutability": "payable",
      "type": "function",
      "payable": true
    },
    {
      "inputs": [],
      "name": "WinningNumber",
      "outputs": [
        {
          "internalType": "uint256",
          "name": "",
          "type": "uint256"
        }
      ],
      "stateMutability": "view",
      "type": "function",
      "constant": true
    },
    {
      "inputs": [],
      "name": "getBalance",
      "outputs": [
        {
          "internalType": "uint256",
          "name": "",
          "type": "uint256"
        }
      ],
      "stateMutability": "view",
      "type": "function",
      "constant": true
    },
    {
      "inputs": [],
      "name": "seeBets",
      "outputs": [
        {
          "components": [
            {
              "internalType": "uint256[]",
              "name": "numbers",
              "type": "uint256[]"
            },
            {
              "internalType": "uint256",
              "name": "multiplier",
              "type": "uint256"
            },
            {
              "internalType": "uint256",
              "name": "betAmount",
              "type": "uint256"
            }
          ],
          "internalType": "struct Roulette.Bet[]",
          "name": "",
          "type": "tuple[]"
        }
      ],
      "stateMutability": "view",
      "type": "function",
      "constant": true
    },
    {
      "inputs": [],
      "name": "seePlayerWinnings",
      "outputs": [
        {
          "internalType": "int256",
          "name": "",
          "type": "int256"
        }
      ],
      "stateMutability": "view",
      "type": "function",
      "constant": true
    },
    {
      "inputs": [],
      "name": "gameReset",
      "outputs": [],
      "stateMutability": "nonpayable",
      "type": "function"
    },
    {
      "inputs": [
        {
          "internalType": "uint256",
          "name": "index",
          "type": "uint256"
        }
      ],
      "name": "removeBet",
      "outputs": [],
      "stateMutability": "nonpayable",
      "type": "function"
    },
    {
      "inputs": [],
      "name": "getGameState",
      "outputs": [
        {
          "internalType": "string",
          "name": "",
          "type": "string"
        }
      ],
      "stateMutability": "view",
      "type": "function",
      "constant": true
    }
  ],
  "bytecode": "0x6080604052600060035566038d7ea4c6800060045530600560006101000a81548173ffffffffffffffffffffffffffffffffffffffff021916908373ffffffffffffffffffffffffffffffffffffffff1602179055506000801b60065560266007556000600960006101000a81548160ff0219169083151502179055506000600960016101000a81548160ff0219169083151502179055506001600960026101000a81548160ff0219169083151502179055506000600960036101000a81548160ff02191690831515021790555033600260006101000a81548173ffffffffffffffffffffffffffffffffffffffff021916908373ffffffffffffffffffffffffffffffffffffffff1602179055506134a78061011d6000396000f3fe6080604052600436106100e15760003560e01c806373b31cc21161007f578063b7d0628b11610059578063b7d0628b14610264578063bce5008c1461028f578063d14f6c06146102ba578063ec867c35146102e5576100e8565b806373b31cc2146101f25780637556e7bf1461020e578063857c1c9a14610239576100e8565b806316c05aa2116100bb57806316c05aa2146101575780634c2cbde7146101615780635c2029a91461019e5780636f2e5698146101c7576100e8565b806308873656146100ea57806312065fe014610101578063161ebe551461012c576100e8565b366100e857005b005b3480156100f657600080fd5b506100ff610315565b005b34801561010d57600080fd5b50610116610607565b604051610123919061329c565b60405180910390f35b34801561013857600080fd5b5061014161060f565b60405161014e91906130a2565b60405180910390f35b61015f610719565b005b34801561016d57600080fd5b5061018860048036038101906101839190612a2f565b6107b6565b60405161019591906130c4565b60405180910390f35b3480156101aa57600080fd5b506101c560048036038101906101c09190612a58565b61091b565b005b3480156101d357600080fd5b506101dc610b41565b6040516101e9919061329c565b60405180910390f35b61020c600480360381019061020791906129ee565b610b4b565b005b34801561021a57600080fd5b50610223610e6a565b604051610230919061329c565b60405180910390f35b34801561024557600080fd5b5061024e610e74565b60405161025b91906130c4565b60405180910390f35b34801561027057600080fd5b50610279610e7a565b60405161028691906130fa565b60405180910390f35b34801561029b57600080fd5b506102a4610f78565b6040516102b191906130df565b60405180910390f35b3480156102c657600080fd5b506102cf610fc1565b6040516102dc919061329c565b60405180910390f35b6102ff60048036038101906102fa9190612a81565b610fe4565b60405161030c919061329c565b60405180910390f35b600260009054906101000a900473ffffffffffffffffffffffffffffffffffffffff1673ffffffffffffffffffffffffffffffffffffffff163373ffffffffffffffffffffffffffffffffffffffff16146103a5576040517f08c379a000000000000000000000000000000000000000000000000000000000815260040161039c9061317c565b60405180910390fd5b600960029054906101000a900460ff166103be57600080fd5b6000600960026101000a81548160ff0219169083151502179055506001600960036101000a81548160ff0219169083151502179055506000801b600681905550600754600881905550602660078190555060008090505b600180549050811015610604575b60008060006001848154811061043557fe5b9060005260206000200160009054906101000a900473ffffffffffffffffffffffffffffffffffffffff1673ffffffffffffffffffffffffffffffffffffffff1673ffffffffffffffffffffffffffffffffffffffff16815260200190815260200160002060010180549050111561056657600080600183815481106104b757fe5b9060005260206000200160009054906101000a900473ffffffffffffffffffffffffffffffffffffffff1673ffffffffffffffffffffffffffffffffffffffff1673ffffffffffffffffffffffffffffffffffffffff16815260200190815260200160002060010180548061052857fe5b60019003818190600052602060002090600302016000808201600061054d91906127e8565b6001820160009055600282016000905550509055610423565b60008060006001848154811061057857fe5b9060005260206000200160009054906101000a900473ffffffffffffffffffffffffffffffffffffffff1673ffffffffffffffffffffffffffffffffffffffff1673ffffffffffffffffffffffffffffffffffffffff16815260200190815260200160002060000160156101000a81548160ff0219169083151502179055508080600101915050610415565b50565b600047905090565b60606000803373ffffffffffffffffffffffffffffffffffffffff1673ffffffffffffffffffffffffffffffffffffffff168152602001908152602001600020600101805480602002602001604051908101604052809291908181526020016000905b828210156107105783829060005260206000209060030201604051806060016040529081600082018054806020026020016040519081016040528092919081815260200182805480156106e457602002820191906000526020600020905b8154815260200190600101908083116106d0575b505050505081526020016001820154815260200160028201548152505081526020019060010190610672565b50505050905090565b600260009054906101000a900473ffffffffffffffffffffffffffffffffffffffff1673ffffffffffffffffffffffffffffffffffffffff163373ffffffffffffffffffffffffffffffffffffffff16146107a9576040517f08c379a00000000000000000000000000000000000000000000000000000000081526004016107a09061321c565b60405180910390fd5b3460035401600381905550565b6000600960039054906101000a900460ff166107d157600080fd5b600260009054906101000a900473ffffffffffffffffffffffffffffffffffffffff1673ffffffffffffffffffffffffffffffffffffffff163373ffffffffffffffffffffffffffffffffffffffff1614610861576040517f08c379a0000000000000000000000000000000000000000000000000000000008152600401610858906131bc565b60405180910390fd5b6000801b600654146108a8576040517f08c379a000000000000000000000000000000000000000000000000000000000815260040161089f9061319c565b60405180910390fd5b816006819055506000600960036101000a81548160ff0219169083151502179055506001600960016101000a81548160ff0219169083151502179055507fd2228e25c75b435ba2d06ba60670e2ac7470fc7eb335c9954b054ec78ba754ea60405160405180910390a16006549050919050565b60003390506000808273ffffffffffffffffffffffffffffffffffffffff1673ffffffffffffffffffffffffffffffffffffffff1681526020019081526020016000206001018054905082106109715750610b3e565b60008290505b60016000808473ffffffffffffffffffffffffffffffffffffffff1673ffffffffffffffffffffffffffffffffffffffff1681526020019081526020016000206001018054905003811015610ab8576000808373ffffffffffffffffffffffffffffffffffffffff1673ffffffffffffffffffffffffffffffffffffffff1681526020019081526020016000206001016001820181548110610a1557fe5b90600052602060002090600302016000808473ffffffffffffffffffffffffffffffffffffffff1673ffffffffffffffffffffffffffffffffffffffff1681526020019081526020016000206001018281548110610a6f57fe5b90600052602060002090600302016000820181600001908054610a93929190612809565b5060018201548160010155600282015481600201559050508080600101915050610977565b506000808273ffffffffffffffffffffffffffffffffffffffff1673ffffffffffffffffffffffffffffffffffffffff168152602001908152602001600020600101805480610b0357fe5b600190038181906000526020600020906003020160008082016000610b2891906127e8565b6001820160009055600282016000905550509055505b50565b6000600354905090565b600960019054906101000a900460ff16610b6457600080fd5b6000339050600260009054906101000a900473ffffffffffffffffffffffffffffffffffffffff1673ffffffffffffffffffffffffffffffffffffffff168173ffffffffffffffffffffffffffffffffffffffff161415610bfa576040517f08c379a0000000000000000000000000000000000000000000000000000000008152600401610bf1906131fc565b60405180910390fd5b6003546024340210610c41576040517f08c379a0000000000000000000000000000000000000000000000000000000008152600401610c38906131dc565b60405180910390fd5b6001341015610c85576040517f08c379a0000000000000000000000000000000000000000000000000000000008152600401610c7c9061313c565b60405180910390fd5b600454341115610cca576040517f08c379a0000000000000000000000000000000000000000000000000000000008152600401610cc19061323c565b60405180910390fd5b6000808273ffffffffffffffffffffffffffffffffffffffff1673ffffffffffffffffffffffffffffffffffffffff16815260200190815260200160002060000160149054906101000a900460ff16610e5b576001339080600181540180825580915050600190039060005260206000200160009091909190916101000a81548173ffffffffffffffffffffffffffffffffffffffff021916908373ffffffffffffffffffffffffffffffffffffffff160217905550336000808373ffffffffffffffffffffffffffffffffffffffff1673ffffffffffffffffffffffffffffffffffffffff16815260200190815260200160002060000160006101000a81548173ffffffffffffffffffffffffffffffffffffffff021916908373ffffffffffffffffffffffffffffffffffffffff16021790555060016000808373ffffffffffffffffffffffffffffffffffffffff1673ffffffffffffffffffffffffffffffffffffffff16815260200190815260200160002060000160146101000a81548160ff0219169083151502179055505b610e6681833461115e565b5050565b6000600354905090565b60065481565b606080600960019054906101000a900460ff1615610ecf576040518060400160405280600c81526020017f62657474696e67506861736500000000000000000000000000000000000000008152509050610f71565b600960029054906101000a900460ff1615610f21576040518060400160405280600b81526020017f706179696e6750686173650000000000000000000000000000000000000000008152509050610f70565b600960039054906101000a900460ff1615610f6f576040518060400160405280600a81526020017f726573657450686173650000000000000000000000000000000000000000000081525090505b5b5b8091505090565b60008060003373ffffffffffffffffffffffffffffffffffffffff1673ffffffffffffffffffffffffffffffffffffffff16815260200190815260200160002060020154905090565b6000600960029054906101000a900460ff16610fdc57600080fd5b600754905090565b6000600260009054906101000a900473ffffffffffffffffffffffffffffffffffffffff1673ffffffffffffffffffffffffffffffffffffffff163373ffffffffffffffffffffffffffffffffffffffff1614611076576040517f08c379a000000000000000000000000000000000000000000000000000000000815260040161106d9061327c565b60405180910390fd5b600654838360405160200161108c929190613076565b60405160208183030381529060405280519060200120146110e2576040517f08c379a00000000000000000000000000000000000000000000000000000000081526004016110d99061325c565b60405180910390fd5b6000600960016101000a81548160ff0219169083151502179055506001600960026101000a81548160ff0219169083151502179055507f3519c7bb8e965d3daa5bd3bcdc28caeb9de22aa7cb5fb7defa3bb5f150b08d0960405160405180910390a1826007819055506111536115f7565b600754905092915050565b600080905060008351905060008090505b818110156111b05784818151811061118357fe5b602002602001015160008151811061119757fe5b602002602001015183019250808060010191505061116f565b508282146111f3576040517f08c379a00000000000000000000000000000000000000000000000000000000081526004016111ea9061311c565b60405180910390fd5b60008090505b818110156115ef57600085828151811061120f57fe5b602002602001015160008151811061122357fe5b602002602001015190506000600187848151811061123d57fe5b6020026020010151510360248161125057fe5b049050602787848151811061126157fe5b602002602001015160018151811061127557fe5b602002602001015114806112b05750602887848151811061129257fe5b60200260200101516001815181106112a657fe5b6020026020010151145b806112e2575060298784815181106112c457fe5b60200260200101516001815181106112d857fe5b6020026020010151145b806113145750602a8784815181106112f657fe5b602002602001015160018151811061130a57fe5b6020026020010151145b156113225760029050611452565b602b87848151811061133057fe5b602002602001015160018151811061134457fe5b6020026020010151148061137f5750602c87848151811061136157fe5b602002602001015160018151811061137557fe5b6020026020010151145b806113b15750602d87848151811061139357fe5b60200260200101516001815181106113a757fe5b6020026020010151145b806113e35750602e8784815181106113c557fe5b60200260200101516001815181106113d957fe5b6020026020010151145b806114155750602f8784815181106113f757fe5b602002602001015160018151811061140b57fe5b6020026020010151145b806114475750603087848151811061142957fe5b602002602001015160018151811061143d57fe5b6020026020010151145b1561145157600390505b5b6060600188858151811061146257fe5b6020026020010151510367ffffffffffffffff8111801561148257600080fd5b506040519080825280602002602001820160405280156114b15781602001602082028036833780820191505090505b5090506000600190505b8885815181106114c757fe5b602002602001015151811015611526578885815181106114e357fe5b602002602001015181815181106114f657fe5b602002602001015182600183038151811061150d57fe5b60200260200101818152505080806001019150506114bb565b506000808a73ffffffffffffffffffffffffffffffffffffffff1673ffffffffffffffffffffffffffffffffffffffff168152602001908152602001600020600101604051806060016040528083815260200184815260200185815250908060018154018082558091505060019003906000526020600020906003020160009091909190915060008201518160000190805190602001906115c892919061285b565b506020820151816001015560408201518160020155505050505080806001019150506111f9565b505050505050565b600960029054906101000a900460ff1661161057600080fd5b60008090505b6001805490508110156125735760006001828154811061163257fe5b9060005260206000200160009054906101000a900473ffffffffffffffffffffffffffffffffffffffff1690506000809050600080600090505b6000808573ffffffffffffffffffffffffffffffffffffffff1673ffffffffffffffffffffffffffffffffffffffff168152602001908152602001600020600101805490508110156125445760008060008673ffffffffffffffffffffffffffffffffffffffff1673ffffffffffffffffffffffffffffffffffffffff16815260200190815260200160002060000160156101000a81548160ff0219169083151502179055506000600754148061172557506026600754145b156117ff576007546000808673ffffffffffffffffffffffffffffffffffffffff1673ffffffffffffffffffffffffffffffffffffffff168152602001908152602001600020600101828154811061177957fe5b906000526020600020906003020160000160008154811061179657fe5b9060005260206000200154146000808673ffffffffffffffffffffffffffffffffffffffff1673ffffffffffffffffffffffffffffffffffffffff16815260200190815260200160002060000160156101000a81548160ff0219169083151502179055506123b3565b60276000808673ffffffffffffffffffffffffffffffffffffffff1673ffffffffffffffffffffffffffffffffffffffff168152602001908152602001600020600101828154811061184d57fe5b906000526020600020906003020160000160008154811061186a57fe5b906000526020600020015414156118e857600060026007548161188957fe5b06146000808673ffffffffffffffffffffffffffffffffffffffff1673ffffffffffffffffffffffffffffffffffffffff16815260200190815260200160002060000160156101000a81548160ff0219169083151502179055506123b2565b60286000808673ffffffffffffffffffffffffffffffffffffffff1673ffffffffffffffffffffffffffffffffffffffff168152602001908152602001600020600101828154811061193657fe5b906000526020600020906003020160000160008154811061195357fe5b906000526020600020015414156119d157600160026007548161197257fe5b06146000808673ffffffffffffffffffffffffffffffffffffffff1673ffffffffffffffffffffffffffffffffffffffff16815260200190815260200160002060000160156101000a81548160ff0219169083151502179055506123b1565b60296000808673ffffffffffffffffffffffffffffffffffffffff1673ffffffffffffffffffffffffffffffffffffffff1681526020019081526020016000206001018281548110611a1f57fe5b9060005260206000209060030201600001600081548110611a3c57fe5b90600052602060002001541415611b5157600a600754111580611a715750601460075410158015611a705750601c60075411155b5b15611ae3576000600260075481611a8457fe5b06146000808673ffffffffffffffffffffffffffffffffffffffff1673ffffffffffffffffffffffffffffffffffffffff16815260200190815260200160002060000160156101000a81548160ff021916908315150217905550611b4c565b6001600260075481611af157fe5b06146000808673ffffffffffffffffffffffffffffffffffffffff1673ffffffffffffffffffffffffffffffffffffffff16815260200190815260200160002060000160156101000a81548160ff0219169083151502179055505b6123b0565b602a6000808673ffffffffffffffffffffffffffffffffffffffff1673ffffffffffffffffffffffffffffffffffffffff1681526020019081526020016000206001018281548110611b9f57fe5b9060005260206000209060030201600001600081548110611bbc57fe5b9060005260206000200154148015611be057506000600260075481611bdd57fe5b06145b15611ce957600a600754111580611c095750601460075410158015611c085750601c60075411155b5b15611c7b576001600260075481611c1c57fe5b06146000808673ffffffffffffffffffffffffffffffffffffffff1673ffffffffffffffffffffffffffffffffffffffff16815260200190815260200160002060000160156101000a81548160ff021916908315150217905550611ce4565b6000600260075481611c8957fe5b06146000808673ffffffffffffffffffffffffffffffffffffffff1673ffffffffffffffffffffffffffffffffffffffff16815260200190815260200160002060000160156101000a81548160ff0219169083151502179055505b6123af565b602b6000808673ffffffffffffffffffffffffffffffffffffffff1673ffffffffffffffffffffffffffffffffffffffff1681526020019081526020016000206001018281548110611d3757fe5b9060005260206000209060030201600001600081548110611d5457fe5b90600052602060002001541415611dc957600c60075411156000808673ffffffffffffffffffffffffffffffffffffffff1673ffffffffffffffffffffffffffffffffffffffff16815260200190815260200160002060000160156101000a81548160ff0219169083151502179055506123ae565b602c6000808673ffffffffffffffffffffffffffffffffffffffff1673ffffffffffffffffffffffffffffffffffffffff1681526020019081526020016000206001018281548110611e1757fe5b9060005260206000209060030201600001600081548110611e3457fe5b90600052602060002001541415611eb757600c600754118015611e5a5750601860075411155b6000808673ffffffffffffffffffffffffffffffffffffffff1673ffffffffffffffffffffffffffffffffffffffff16815260200190815260200160002060000160156101000a81548160ff0219169083151502179055506123ad565b602d6000808673ffffffffffffffffffffffffffffffffffffffff1673ffffffffffffffffffffffffffffffffffffffff1681526020019081526020016000206001018281548110611f0557fe5b9060005260206000209060030201600001600081548110611f2257fe5b90600052602060002001541415611f96576018600754116000808673ffffffffffffffffffffffffffffffffffffffff1673ffffffffffffffffffffffffffffffffffffffff16815260200190815260200160002060000160156101000a81548160ff0219169083151502179055506123ac565b602e6000808673ffffffffffffffffffffffffffffffffffffffff1673ffffffffffffffffffffffffffffffffffffffff1681526020019081526020016000206001018281548110611fe457fe5b906000526020600020906003020160000160008154811061200157fe5b9060005260206000200154141561207f57600160036007548161202057fe5b06146000808673ffffffffffffffffffffffffffffffffffffffff1673ffffffffffffffffffffffffffffffffffffffff16815260200190815260200160002060000160156101000a81548160ff0219169083151502179055506123ab565b602f6000808673ffffffffffffffffffffffffffffffffffffffff1673ffffffffffffffffffffffffffffffffffffffff16815260200190815260200160002060010182815481106120cd57fe5b90600052602060002090600302016000016000815481106120ea57fe5b9060005260206000200154141561216857600260036007548161210957fe5b06146000808673ffffffffffffffffffffffffffffffffffffffff1673ffffffffffffffffffffffffffffffffffffffff16815260200190815260200160002060000160156101000a81548160ff0219169083151502179055506123aa565b60306000808673ffffffffffffffffffffffffffffffffffffffff1673ffffffffffffffffffffffffffffffffffffffff16815260200190815260200160002060010182815481106121b657fe5b90600052602060002090600302016000016000815481106121d357fe5b906000526020600020015414156122515760006003600754816121f257fe5b06146000808673ffffffffffffffffffffffffffffffffffffffff1673ffffffffffffffffffffffffffffffffffffffff16815260200190815260200160002060000160156101000a81548160ff0219169083151502179055506123a9565b60008090505b6000808673ffffffffffffffffffffffffffffffffffffffff1673ffffffffffffffffffffffffffffffffffffffff16815260200190815260200160002060010182815481106122a357fe5b9060005260206000209060030201600001805490508110156123a7576007546000808773ffffffffffffffffffffffffffffffffffffffff1673ffffffffffffffffffffffffffffffffffffffff168152602001908152602001600020600101838154811061230e57fe5b9060005260206000209060030201600001828154811061232a57fe5b9060005260206000200154141561239a5760016000808773ffffffffffffffffffffffffffffffffffffffff1673ffffffffffffffffffffffffffffffffffffffff16815260200190815260200160002060000160156101000a81548160ff0219169083151502179055506123a7565b8080600101915050612257565b505b5b5b5b5b5b5b5b5b5b5b600015156000808673ffffffffffffffffffffffffffffffffffffffff1673ffffffffffffffffffffffffffffffffffffffff16815260200190815260200160002060000160159054906101000a900460ff1615151415612475576000808573ffffffffffffffffffffffffffffffffffffffff1673ffffffffffffffffffffffffffffffffffffffff168152602001908152602001600020600101818154811061245a57fe5b90600052602060002090600302016002015482019150612537565b6000808573ffffffffffffffffffffffffffffffffffffffff1673ffffffffffffffffffffffffffffffffffffffff16815260200190815260200160002060010181815481106124c157fe5b9060005260206000209060030201600201546000808673ffffffffffffffffffffffffffffffffffffffff1673ffffffffffffffffffffffffffffffffffffffff168152602001908152602001600020600101828154811061251f57fe5b90600052602060002090600302016001015402830192505b808060010191505061166c565b5061254e81612576565b6125588284612584565b6125638282856126a3565b5050508080600101915050611616565b50565b806003540160038190555050565b81600354036003819055506125fa6000808373ffffffffffffffffffffffffffffffffffffffff1673ffffffffffffffffffffffffffffffffffffffff16815260200190815260200160002060000160009054906101000a900473ffffffffffffffffffffffffffffffffffffffff1683612733565b60008060008373ffffffffffffffffffffffffffffffffffffffff1673ffffffffffffffffffffffffffffffffffffffff16815260200190815260200160002060010180549050905060008090505b8181101561269d576000808473ffffffffffffffffffffffffffffffffffffffff1673ffffffffffffffffffffffffffffffffffffffff168152602001908152602001600020508080600101915050612649565b50505050565b8183036000808373ffffffffffffffffffffffffffffffffffffffff1673ffffffffffffffffffffffffffffffffffffffff16815260200190815260200160002060020154016000808373ffffffffffffffffffffffffffffffffffffffff1673ffffffffffffffffffffffffffffffffffffffff16815260200190815260200160002060020181905550505050565b600060608373ffffffffffffffffffffffffffffffffffffffff168360405161275b90613061565b60006040518083038185875af1925050503d8060008114612798576040519150601f19603f3d011682016040523d82523d6000602084013e61279d565b606091505b5091509150816127e2576040517f08c379a00000000000000000000000000000000000000000000000000000000081526004016127d99061315c565b60405180910390fd5b50505050565b508054600082559060005260206000209081019061280691906128a8565b50565b82805482825590600052602060002090810192821561284a5760005260206000209182015b8281111561284957825482559160010191906001019061282e565b5b50905061285791906128a8565b5090565b828054828255906000526020600020908101928215612897579160200282015b8281111561289657825182559160200191906001019061287b565b5b5090506128a491906128a8565b5090565b6128ca91905b808211156128c65760008160009055506001016128ae565b5090565b90565b600082601f8301126128de57600080fd5b81356128f16128ec826132e4565b6132b7565b9150818183526020840193506020810190508360005b83811015612937578135860161291d8882612941565b845260208401935060208301925050600181019050612907565b5050505092915050565b600082601f83011261295257600080fd5b81356129656129608261330c565b6132b7565b9150818183526020840193506020810190508385602084028201111561298a57600080fd5b60005b838110156129ba57816129a088826129d9565b84526020840193506020830192505060018101905061298d565b5050505092915050565b6000813590506129d381613443565b92915050565b6000813590506129e88161345a565b92915050565b600060208284031215612a0057600080fd5b600082013567ffffffffffffffff811115612a1a57600080fd5b612a26848285016128cd565b91505092915050565b600060208284031215612a4157600080fd5b6000612a4f848285016129c4565b91505092915050565b600060208284031215612a6a57600080fd5b6000612a78848285016129d9565b91505092915050565b60008060408385031215612a9457600080fd5b6000612aa2858286016129d9565b9250506020612ab3858286016129c4565b9150509250929050565b6000612ac98383612fdc565b905092915050565b6000612add838361302c565b60208301905092915050565b6000612af482613354565b612afe818561338f565b935083602082028501612b1085613334565b8060005b85811015612b4c5784840389528151612b2d8582612abd565b9450612b3883613375565b925060208a01995050600181019050612b14565b50829750879550505050505092915050565b6000612b698261335f565b612b7381856133a0565b9350612b7e83613344565b8060005b83811015612baf578151612b968882612ad1565b9750612ba183613382565b925050600181019050612b82565b5085935050505092915050565b612bc5816133cd565b82525050565b612bdc612bd7826133cd565b61341e565b82525050565b612beb816133d7565b82525050565b6000612bfc8261336a565b612c0681856133bc565b9350612c168185602086016133eb565b612c1f81613432565b840191505092915050565b6000612c376027836133bc565b91507f42657420616d6f756e74206e6f74206571756976616c656e7420746f20746f7460008301527f616c2062657473000000000000000000000000000000000000000000000000006020830152604082019050919050565b6000612c9d601c836133bc565b91507f42657473206d75737420626520206174206c65617374203120776569000000006000830152602082019050919050565b6000612cdd6014836133bc565b91507f4661696c656420746f2073656e642045746865720000000000000000000000006000830152602082019050919050565b6000612d1d601e836133bc565b91507f4f6e6c792074686520636173696e6f2063616e2072657365742067616d6500006000830152602082019050919050565b6000612d5d6014836133bc565b91507f4861736820616c726561647920637265617465640000000000000000000000006000830152602082019050919050565b6000612d9d6024836133bc565b91507f4f6e6c792074686520636173696e6f2063616e2067656e6572617465206f757460008301527f636f6d65000000000000000000000000000000000000000000000000000000006020830152604082019050919050565b6000612e036017836133bc565b91507f436173696e6f2063616e6e6f7420636f766572206265740000000000000000006000830152602082019050919050565b6000612e436019836133bc565b91507f436173696e6f2063616e6e6f74206265206120706c61796572000000000000006000830152602082019050919050565b6000612e836021836133bc565b91507f4f6e6c792074686520636173696e6f2063616e206465706f736974206d6f6e6560008301527f79000000000000000000000000000000000000000000000000000000000000006020830152604082019050919050565b6000612ee96010836133bc565b91507f4d617820626574206578636565646564000000000000000000000000000000006000830152602082019050919050565b6000612f296000836133b1565b9150600082019050919050565b6000612f436012836133bc565b91507f4861736820646f65736e2774206d6174636800000000000000000000000000006000830152602082019050919050565b6000612f836027836133bc565b91507f4f6e6c792074686520636173696e6f2063616e2072657665616c57696e6e696e60008301527f674e756d626572000000000000000000000000000000000000000000000000006020830152604082019050919050565b60006060830160008301518482036000860152612ff98282612b5e565b915050602083015161300e602086018261302c565b506040830151613021604086018261302c565b508091505092915050565b613035816133e1565b82525050565b613044816133e1565b82525050565b61305b613056826133e1565b613428565b82525050565b600061306c82612f1c565b9150819050919050565b6000613082828561304a565b6020820191506130928284612bcb565b6020820191508190509392505050565b600060208201905081810360008301526130bc8184612ae9565b905092915050565b60006020820190506130d96000830184612bbc565b92915050565b60006020820190506130f46000830184612be2565b92915050565b600060208201905081810360008301526131148184612bf1565b905092915050565b6000602082019050818103600083015261313581612c2a565b9050919050565b6000602082019050818103600083015261315581612c90565b9050919050565b6000602082019050818103600083015261317581612cd0565b9050919050565b6000602082019050818103600083015261319581612d10565b9050919050565b600060208201905081810360008301526131b581612d50565b9050919050565b600060208201905081810360008301526131d581612d90565b9050919050565b600060208201905081810360008301526131f581612df6565b9050919050565b6000602082019050818103600083015261321581612e36565b9050919050565b6000602082019050818103600083015261323581612e76565b9050919050565b6000602082019050818103600083015261325581612edc565b9050919050565b6000602082019050818103600083015261327581612f36565b9050919050565b6000602082019050818103600083015261329581612f76565b9050919050565b60006020820190506132b1600083018461303b565b92915050565b6000604051905081810181811067ffffffffffffffff821117156132da57600080fd5b8060405250919050565b600067ffffffffffffffff8211156132fb57600080fd5b602082029050602081019050919050565b600067ffffffffffffffff82111561332357600080fd5b602082029050602081019050919050565b6000819050602082019050919050565b6000819050602082019050919050565b600081519050919050565b600081519050919050565b600081519050919050565b6000602082019050919050565b6000602082019050919050565b600082825260208201905092915050565b600082825260208201905092915050565b600081905092915050565b600082825260208201905092915050565b6000819050919050565b6000819050919050565b6000819050919050565b60005b838110156134095780820151818401526020810190506133ee565b83811115613418576000848401525b50505050565b6000819050919050565b6000819050919050565b6000601f19601f8301169050919050565b61344c816133cd565b811461345757600080fd5b50565b613463816133e1565b811461346e57600080fd5b5056fea2646970667358221220d5a49294ec21b29e7103705966433664225a375b7e0171c528f0e24d8569fe1b64736f6c63430006060033",
  "immutableReferences": {},
  "source": "pragma solidity ^0.6.6;\npragma experimental ABIEncoderV2;\n\n\ncontract Roulette { \n    \n    struct Bet {\n        uint256[] numbers;\n        uint256 multiplier;\n        uint256 betAmount;\n    }\n    \n    struct Player {\n        address payable playerAddress;\n        bool playerExists; // Whether the player has already been added to map and array;\n        bool win; // Whether the player won or lost\n        // bool gameInProgress; // Whether the player is currently playing a game\n        // uint256 result;\n        Bet[] bets;\n        int256 totalWinnings; // Keeps track of player balance\n    }\n    \n    event  bettingPhaseOpen();\n    event bettingPhaseClosed();\n    \n    mapping(address => Player) playerMap; // Map containing all players playing the game (this is not iterable)\n    address[] playerAddressArray; // Array of all players addresses of players playing the game (this is iterable)\n    address payable casino;  // Address of the casino, will not change after contract is deployed\n    uint256 casinoDeposit = 0; // Value of the casino deposit\n    uint256 maxBet = .001 ether; \n    address payable contractAddress = address(this);  // Address of this contract\n    bytes32 public commitHash = 0;\n    uint256 winningNumber = 38;\n    uint256 lastWinningNumber;\n    bool wheelSpun = false;\n    \n    bool bettingPhase  = false;\n    bool payingPhase = true ;\n    bool resetPhase = false;\n\n    constructor () public payable{\n        // Casino initiates the contract\n        casino = msg.sender;\n    }\n    \n    // Function to receive Ether. msg.data must be empty\n    receive() external payable {}\n\n    // Fallback function is called when msg.data is not empty\n    fallback() external payable {}\n    \n    // Function to send a value of money to an address\n    function sendViaCall(address payable _to, uint256 _amount) internal {\n        (bool sent, bytes memory data) = _to.call{value: _amount}(\"\"); \n        require(sent, \"Failed to send Ether\");\n    }\n    \n    // Function for the casino to deposit money, must be called for the rest of the contract to work\n    function depositMoney() public payable {\n        require(msg.sender == casino, \"Only the casino can deposit money\");\n        casinoDeposit = casinoDeposit + msg.value;\n    }\n    \n    function getCasinoDeposit() public view returns (uint256){\n        return casinoDeposit;\n    }\n    \n    function getCommitmentHash() public view returns (uint256){\n        return casinoDeposit;\n    }\n    \n    function setCommitmentHash(bytes32 _outcomeHash) public returns (bytes32) {\n        require (resetPhase);\n        require(msg.sender == casino, \"Only the casino can generate outcome\");\n        require (commitHash == 0, \"Hash already created\");\n        commitHash = _outcomeHash;\n        resetPhase = false;\n        bettingPhase = true;\n        emit bettingPhaseOpen();\n        return commitHash;\n    }\n    \n    // Function for the casino to match the bet amount\n    function matchBet(uint256 _betAmount) internal {\n        casinoDeposit = casinoDeposit - _betAmount; // bet amount is deducted from casinoDeposit and but remains in the contract balance\n    }\n    \n    function placeBet(uint256[][] memory _bets) public payable {\n        require(bettingPhase);\n        address _playerAddress = msg.sender;\n        require(_playerAddress != casino, \"Casino cannot be a player\");\n        require(msg.value * 36 < casinoDeposit, \"Casino cannot cover bet\"); // Bet must be less than the money in the casino deposit to ensure casino can cover the bet\n        require(msg.value >= 1 wei, \"Bets must be  at least 1 wei\"); // Must be greater or equal to minimum bet of 1 wei\n        require(msg.value <= maxBet, \"Max bet exceeded\"); // Must be less than or equal to max bet of .001 ether\n        \n        if( !playerMap[_playerAddress].playerExists) { // If player is new\n            playerAddressArray.push(msg.sender); // Add player address to array of player addresses\n            playerMap[_playerAddress].playerAddress = msg.sender; \n            playerMap[_playerAddress].playerExists = true;\n        }\n        \n        setBet(_playerAddress, _bets, msg.value);\n    }\n    \n    // This is the spin wheel function\n    function revealWinningNumber(uint256 _winningNumber, bytes32 _nonce) public payable returns (uint256){\n        require(msg.sender == casino, \"Only the casino can revealWinningNumber\");\n        require(keccak256(abi.encodePacked(_winningNumber, _nonce)) ==  commitHash, \"Hash doesn't match\"); // Ensures winning winningNumber was not changed\n        bettingPhase = false;\n        payingPhase = true;\n        emit bettingPhaseClosed();\n        winningNumber = _winningNumber;\n        payout();\n        return winningNumber;\n    }\n    \n    function WinningNumber() public view returns (uint256)  {\n        require(payingPhase);\n        return winningNumber;\n    }\n    \n    function payout() internal{\n        require(payingPhase);\n        for (uint n = 0; n < playerAddressArray.length; n++){\n            address _playerAddress = playerAddressArray[n];\n            uint256 winAmount = 0;\n            uint256 loseAmount;\n            for(uint256 i = 0; i < playerMap[_playerAddress].bets.length; i++){ // Loop through players bets\n                playerMap[_playerAddress].win = false;\n                if (winningNumber == 0  || winningNumber == 38){ // Winning number is 0 or 00\n                    playerMap[_playerAddress].win = (playerMap[_playerAddress].bets[i].numbers[0] == winningNumber);\n                }\n                else if(playerMap[_playerAddress].bets[i].numbers[0] == 39){ // Evens\n                    playerMap[_playerAddress].win = (winningNumber % 2 == 0);\n                }\n                else if (playerMap[_playerAddress].bets[i].numbers[0] == 40){ // Odds\n                    playerMap[_playerAddress].win = (winningNumber % 2 == 1);\n                }\n                else if (playerMap[_playerAddress].bets[i].numbers[0] == 41){  // Blacks\n                    if (winningNumber <= 10 || (winningNumber >= 20 && winningNumber <= 28)) {\n                        playerMap[_playerAddress].win = (winningNumber % 2 == 0);\n                    } \n                    else {\n                        playerMap[_playerAddress].win = (winningNumber % 2 == 1);\n                    }\n                }\n                else if (playerMap[_playerAddress].bets[i].numbers[0] == 42 && winningNumber % 2 == 0){ // Reds\n                    if (winningNumber <= 10 || (winningNumber >= 20 && winningNumber <= 28)) {\n                        playerMap[_playerAddress].win = (winningNumber % 2 == 1);\n                    } \n                    else {\n                         playerMap[_playerAddress].win = (winningNumber % 2 == 0);\n                    }\n                }\n                else if (playerMap[_playerAddress].bets[i].numbers[0] == 43){ // First dozen\n                    playerMap[_playerAddress].win = (winningNumber <= 12);\n                }\n                else if (playerMap[_playerAddress].bets[i].numbers[0] == 44){ // Second dozen\n                    playerMap[_playerAddress].win = (winningNumber > 12 && winningNumber <= 24);\n                }\n                else if (playerMap[_playerAddress].bets[i].numbers[0] == 45){ // Third dozen\n                    playerMap[_playerAddress].win = (winningNumber > 24);\n                }\n                else if (playerMap[_playerAddress].bets[i].numbers[0] == 46){ // First Column\n                    playerMap[_playerAddress].win = (winningNumber % 3 == 1);\n                }\n                else if (playerMap[_playerAddress].bets[i].numbers[0] == 47){ // Second Column\n                    playerMap[_playerAddress].win = (winningNumber % 3 == 2);\n                }\n                else if (playerMap[_playerAddress].bets[i].numbers[0] == 48){ // Third Column\n                    playerMap[_playerAddress].win = (winningNumber % 3 == 0);\n                }\n                else {\n                    for(uint256 j = 0; j < playerMap[_playerAddress].bets[i].numbers.length; j++){ // Loop through every winningNumber in the bet\n                        if(playerMap[_playerAddress].bets[i].numbers[j] == winningNumber){ // Check if any are individual winning number\n                            playerMap[_playerAddress].win = true;\n                            break;\n                        }\n                    }\n                }\n                if (playerMap[_playerAddress].win == false){\n                    loseAmount = loseAmount + playerMap[_playerAddress].bets[i].betAmount;\n                }\n                else{\n                    winAmount = winAmount + playerMap[_playerAddress].bets[i].multiplier * playerMap[_playerAddress].bets[i].betAmount;\n                }\n            }\n            payCasino(loseAmount);\n            payPlayer(winAmount, _playerAddress);\n            updateWinnings(winAmount, loseAmount, _playerAddress);\n        }\n        \n    }\n    \n    function setBet(address _playerAddress, uint256[][] memory _bets, uint256 _betTotal) internal{\n        // Sample Bets [[100,1,2,3,4],[100,20],[100,1,2,3,4,5,6,7,8,9,10,11,12]]\n        uint256 betTotal = 0;\n        uint256 n = _bets.length;\n        for(uint i = 0; i < n; i++){\n            betTotal += _bets[i][0];\n        }\n        require(betTotal == _betTotal, \"Bet amount not equivalent to total bets\");\n        for(uint i = 0; i < n; i++){\n            uint256 betAmount = _bets[i][0];\n            uint256 multiplier = 36/(_bets[i].length - 1);\n            if(_bets[i][1] == 39 || _bets[i][1] == 40 || _bets[i][1] == 41 || _bets[i][1] == 42){ // Evens\n                multiplier = 2;\n            }\n            else if (_bets[i][1] == 43 || _bets[i][1] == 44 || _bets[i][1] == 45 || _bets[i][1] == 46 || _bets[i][1] == 47 || _bets[i][1] == 48){ // First dozen\n                multiplier = 3;\n            }\n            uint256[] memory numbers = new uint256[](_bets[i].length - 1);\n            for(uint j = 1; j < _bets[i].length; j++){\n                numbers[j-1]= _bets[i][j];\n            }\n            playerMap[_playerAddress].bets.push(Bet(numbers,multiplier,betAmount));\n        }\n    }\n    \n    function payCasino(uint256 amount) internal{\n        casinoDeposit = casinoDeposit + amount;\n    }\n    \n    function payPlayer(uint256 amount, address _playerAddress) internal{\n        casinoDeposit = casinoDeposit - amount;\n        sendViaCall(playerMap[_playerAddress].playerAddress, amount);\n        uint256 numberOfBets = playerMap[_playerAddress].bets.length;\n        for(uint256 i = 0; i < numberOfBets; i++){\n            playerMap[_playerAddress].bets.pop;\n        }\n    }\n    \n    // Funtion to return total balance of the contract which is casinoDeposit + all bets currently on the table\n    function getBalance() public view returns (uint) {\n        return address(this).balance;\n    }\n    \n    // See current players bets\n    function seeBets() public view returns (Bet[] memory){\n        return playerMap[msg.sender].bets;\n    }\n    \n    function seePlayerWinnings() public view returns (int256){\n        return playerMap[msg.sender].totalWinnings;\n    }\n    \n    function updateWinnings(uint256 winAmount, uint256 loseAmount, address _playerAddress) internal{\n        playerMap[_playerAddress].totalWinnings = playerMap[_playerAddress].totalWinnings + int256(winAmount - loseAmount);\n    }\n    \n    function gameReset() external{\n        require(msg.sender == casino, \"Only the casino can reset game\");\n        require(payingPhase);\n        payingPhase = false;\n        resetPhase = true;\n        commitHash = 0;\n        lastWinningNumber = winningNumber;\n        winningNumber = 38;\n        for (uint i = 0; i < playerAddressArray.length; i++){\n            while(playerMap[playerAddressArray[i]].bets.length > 0){\n                playerMap[playerAddressArray[i]].bets.pop();\n            }\n            playerMap[playerAddressArray[i]].win = false;\n        }\n    }\n    \n    function removeBet(uint index) public {\n        address _playerAddress = msg.sender;\n        if (index >= playerMap[_playerAddress].bets.length) return ;\n        for (uint i = index; i< playerMap[_playerAddress].bets.length - 1; i++){\n            playerMap[_playerAddress].bets[i] = playerMap[_playerAddress].bets[i+1];\n        }\n        playerMap[_playerAddress].bets.pop();\n    }\n    \n    function getGameState() public view returns (string memory) {\n        string  memory str;\n        if (bettingPhase){\n            str  = \"bettingPhase\";\n        }  \n        else if (payingPhase){\n            str = \"payingPhase\";\n        }\n        else if (resetPhase) {\n            str = \"resetPhase\";\n        }\n        return (str);\n    }\n    \n    \n}",
  "sourcePath": "/Users/MMayaguari/Documents/GitHub/EthereumRoullette/contracts/Roulette.sol",
  "compiler": {
    "name": "solc",
    "version": "0.6.6+commit.6c089d02.Emscripten.clang"
  },
  "schemaVersion": "3.3.4",
  "updatedAt": "2021-05-07T20:47:35.143Z",
  "networkType": "ethereum",
  "devdoc": {
    "methods": {}
  },
  "userdoc": {
    "methods": {}
  }
}